{
  "_format": "hh-sol-artifact-1",
  "contractName": "Banana",
  "sourceName": "contracts/Banana.sol",
  "abi": [
    {
      "inputs": [
        {
          "internalType": "string",
          "name": "name",
          "type": "string"
        },
        {
          "internalType": "string",
          "name": "symbol",
          "type": "string"
        }
      ],
      "stateMutability": "nonpayable",
      "type": "constructor"
    },
    {
      "anonymous": false,
      "inputs": [
        {
          "indexed": true,
          "internalType": "address",
          "name": "owner",
          "type": "address"
        },
        {
          "indexed": true,
          "internalType": "address",
          "name": "approved",
          "type": "address"
        },
        {
          "indexed": true,
          "internalType": "uint256",
          "name": "tokenId",
          "type": "uint256"
        }
      ],
      "name": "Approval",
      "type": "event"
    },
    {
      "anonymous": false,
      "inputs": [
        {
          "indexed": true,
          "internalType": "address",
          "name": "owner",
          "type": "address"
        },
        {
          "indexed": true,
          "internalType": "address",
          "name": "operator",
          "type": "address"
        },
        {
          "indexed": false,
          "internalType": "bool",
          "name": "approved",
          "type": "bool"
        }
      ],
      "name": "ApprovalForAll",
      "type": "event"
    },
    {
      "anonymous": false,
      "inputs": [
        {
          "indexed": true,
          "internalType": "address",
          "name": "previousOwner",
          "type": "address"
        },
        {
          "indexed": true,
          "internalType": "address",
          "name": "newOwner",
          "type": "address"
        }
      ],
      "name": "OwnershipTransferred",
      "type": "event"
    },
    {
      "anonymous": false,
      "inputs": [
        {
          "indexed": true,
          "internalType": "address",
          "name": "from",
          "type": "address"
        },
        {
          "indexed": true,
          "internalType": "address",
          "name": "to",
          "type": "address"
        },
        {
          "indexed": true,
          "internalType": "uint256",
          "name": "tokenId",
          "type": "uint256"
        }
      ],
      "name": "Transfer",
      "type": "event"
    },
    {
      "inputs": [],
      "name": "OAYC",
      "outputs": [
        {
          "internalType": "address",
          "name": "",
          "type": "address"
        }
      ],
      "stateMutability": "view",
      "type": "function"
    },
    {
      "inputs": [
        {
          "internalType": "address",
          "name": "to",
          "type": "address"
        },
        {
          "internalType": "uint256",
          "name": "tokenId",
          "type": "uint256"
        }
      ],
      "name": "approve",
      "outputs": [],
      "stateMutability": "nonpayable",
      "type": "function"
    },
    {
      "inputs": [
        {
          "internalType": "address",
          "name": "owner",
          "type": "address"
        }
      ],
      "name": "balanceOf",
      "outputs": [
        {
          "internalType": "uint256",
          "name": "",
          "type": "uint256"
        }
      ],
      "stateMutability": "view",
      "type": "function"
    },
    {
      "inputs": [],
      "name": "baseURI",
      "outputs": [
        {
          "internalType": "string",
          "name": "",
          "type": "string"
        }
      ],
      "stateMutability": "view",
      "type": "function"
    },
    {
      "inputs": [
        {
          "internalType": "uint256",
          "name": "tokenId",
          "type": "uint256"
        }
      ],
      "name": "burn",
      "outputs": [],
      "stateMutability": "nonpayable",
      "type": "function"
    },
    {
      "inputs": [
        {
          "internalType": "uint256",
          "name": "tokenId",
          "type": "uint256"
        }
      ],
      "name": "getApproved",
      "outputs": [
        {
          "internalType": "address",
          "name": "",
          "type": "address"
        }
      ],
      "stateMutability": "view",
      "type": "function"
    },
    {
      "inputs": [
        {
          "internalType": "address",
          "name": "owner",
          "type": "address"
        },
        {
          "internalType": "address",
          "name": "operator",
          "type": "address"
        }
      ],
      "name": "isApprovedForAll",
      "outputs": [
        {
          "internalType": "bool",
          "name": "",
          "type": "bool"
        }
      ],
      "stateMutability": "view",
      "type": "function"
    },
    {
      "inputs": [
        {
          "internalType": "address[]",
          "name": "addresses",
          "type": "address[]"
        },
        {
          "internalType": "uint256",
          "name": "_tokenCount",
          "type": "uint256"
        }
      ],
      "name": "mint",
      "outputs": [],
      "stateMutability": "nonpayable",
      "type": "function"
    },
    {
      "inputs": [],
      "name": "name",
      "outputs": [
        {
          "internalType": "string",
          "name": "",
          "type": "string"
        }
      ],
      "stateMutability": "view",
      "type": "function"
    },
    {
      "inputs": [],
      "name": "owner",
      "outputs": [
        {
          "internalType": "address",
          "name": "",
          "type": "address"
        }
      ],
      "stateMutability": "view",
      "type": "function"
    },
    {
      "inputs": [
        {
          "internalType": "uint256",
          "name": "tokenId",
          "type": "uint256"
        }
      ],
      "name": "ownerOf",
      "outputs": [
        {
          "internalType": "address",
          "name": "",
          "type": "address"
        }
      ],
      "stateMutability": "view",
      "type": "function"
    },
    {
      "inputs": [],
      "name": "renounceOwnership",
      "outputs": [],
      "stateMutability": "nonpayable",
      "type": "function"
    },
    {
      "inputs": [
        {
          "internalType": "address",
          "name": "from",
          "type": "address"
        },
        {
          "internalType": "address",
          "name": "to",
          "type": "address"
        },
        {
          "internalType": "uint256",
          "name": "tokenId",
          "type": "uint256"
        }
      ],
      "name": "safeTransferFrom",
      "outputs": [],
      "stateMutability": "nonpayable",
      "type": "function"
    },
    {
      "inputs": [
        {
          "internalType": "address",
          "name": "from",
          "type": "address"
        },
        {
          "internalType": "address",
          "name": "to",
          "type": "address"
        },
        {
          "internalType": "uint256",
          "name": "tokenId",
          "type": "uint256"
        },
        {
          "internalType": "bytes",
          "name": "data",
          "type": "bytes"
        }
      ],
      "name": "safeTransferFrom",
      "outputs": [],
      "stateMutability": "nonpayable",
      "type": "function"
    },
    {
      "inputs": [
        {
          "internalType": "address",
          "name": "operator",
          "type": "address"
        },
        {
          "internalType": "bool",
          "name": "approved",
          "type": "bool"
        }
      ],
      "name": "setApprovalForAll",
      "outputs": [],
      "stateMutability": "nonpayable",
      "type": "function"
    },
    {
      "inputs": [
        {
          "internalType": "string",
          "name": "_uri",
          "type": "string"
        }
      ],
      "name": "setBaseURI",
      "outputs": [],
      "stateMutability": "nonpayable",
      "type": "function"
    },
    {
      "inputs": [
        {
          "internalType": "address",
          "name": "_oayc",
          "type": "address"
        }
      ],
      "name": "setOAYC",
      "outputs": [],
      "stateMutability": "nonpayable",
      "type": "function"
    },
    {
      "inputs": [
        {
          "internalType": "bytes4",
          "name": "interfaceId",
          "type": "bytes4"
        }
      ],
      "name": "supportsInterface",
      "outputs": [
        {
          "internalType": "bool",
          "name": "",
          "type": "bool"
        }
      ],
      "stateMutability": "view",
      "type": "function"
    },
    {
      "inputs": [],
      "name": "symbol",
      "outputs": [
        {
          "internalType": "string",
          "name": "",
          "type": "string"
        }
      ],
      "stateMutability": "view",
      "type": "function"
    },
    {
      "inputs": [
        {
          "internalType": "uint256",
          "name": "index",
          "type": "uint256"
        }
      ],
      "name": "tokenByIndex",
      "outputs": [
        {
          "internalType": "uint256",
          "name": "",
          "type": "uint256"
        }
      ],
      "stateMutability": "view",
      "type": "function"
    },
    {
      "inputs": [
        {
          "internalType": "address",
          "name": "owner",
          "type": "address"
        },
        {
          "internalType": "uint256",
          "name": "index",
          "type": "uint256"
        }
      ],
      "name": "tokenOfOwnerByIndex",
      "outputs": [
        {
          "internalType": "uint256",
          "name": "",
          "type": "uint256"
        }
      ],
      "stateMutability": "view",
      "type": "function"
    },
    {
      "inputs": [
        {
          "internalType": "uint256",
          "name": "tokenId",
          "type": "uint256"
        }
      ],
      "name": "tokenURI",
      "outputs": [
        {
          "internalType": "string",
          "name": "",
          "type": "string"
        }
      ],
      "stateMutability": "view",
      "type": "function"
    },
    {
      "inputs": [],
      "name": "totalSupply",
      "outputs": [
        {
          "internalType": "uint256",
          "name": "",
          "type": "uint256"
        }
      ],
      "stateMutability": "view",
      "type": "function"
    },
    {
      "inputs": [
        {
          "internalType": "address",
          "name": "from",
          "type": "address"
        },
        {
          "internalType": "address",
          "name": "to",
          "type": "address"
        },
        {
          "internalType": "uint256",
          "name": "tokenId",
          "type": "uint256"
        }
      ],
      "name": "transferFrom",
      "outputs": [],
      "stateMutability": "nonpayable",
      "type": "function"
    },
    {
      "inputs": [
        {
          "internalType": "address",
          "name": "newOwner",
          "type": "address"
        }
      ],
      "name": "transferOwnership",
      "outputs": [],
      "stateMutability": "nonpayable",
      "type": "function"
    }
  ],
  "bytecode": "0x60806040523480156200001157600080fd5b5060405162001eb838038062001eb8833981016040819052620000349162000251565b8151829082906200004d906000906020850190620000de565b50805162000063906001906020840190620000de565b505050620000806200007a6200008860201b60201c565b6200008c565b5050620002f8565b3390565b600a80546001600160a01b038381166001600160a01b0319831681179093556040519116919082907f8be0079c531659141344cd1fd0a4f28419497f9722a3daafe3b4186f6b6457e090600090a35050565b828054620000ec90620002bb565b90600052602060002090601f0160209004810192826200011057600085556200015b565b82601f106200012b57805160ff19168380011785556200015b565b828001600101855582156200015b579182015b828111156200015b5782518255916020019190600101906200013e565b50620001699291506200016d565b5090565b5b808211156200016957600081556001016200016e565b634e487b7160e01b600052604160045260246000fd5b600082601f830112620001ac57600080fd5b81516001600160401b0380821115620001c957620001c962000184565b604051601f8301601f19908116603f01168101908282118183101715620001f457620001f462000184565b816040528381526020925086838588010111156200021157600080fd5b600091505b8382101562000235578582018301518183018401529082019062000216565b83821115620002475760008385830101525b9695505050505050565b600080604083850312156200026557600080fd5b82516001600160401b03808211156200027d57600080fd5b6200028b868387016200019a565b93506020850151915080821115620002a257600080fd5b50620002b1858286016200019a565b9150509250929050565b600181811c90821680620002d057607f821691505b60208210811415620002f257634e487b7160e01b600052602260045260246000fd5b50919050565b611bb080620003086000396000f3fe608060405234801561001057600080fd5b50600436106101735760003560e01c806369b687ce116100de578063a22cb46511610097578063d442c44411610071578063d442c44414610314578063e985e9c514610327578063ea66696c14610363578063f2fde38b1461037657600080fd5b8063a22cb465146102db578063b88d4fde146102ee578063c87b56dd1461030157600080fd5b806369b687ce1461028c5780636c0360eb1461029f57806370a08231146102a7578063715018a6146102ba5780638da5cb5b146102c257806395d89b41146102d357600080fd5b80632f745c59116101305780632f745c591461021a57806342842e0e1461022d57806342966c68146102405780634f6ccce71461025357806355f804b3146102665780636352211e1461027957600080fd5b806301ffc9a71461017857806306fdde03146101a0578063081812fc146101b5578063095ea7b3146101e057806318160ddd146101f557806323b872dd14610207575b600080fd5b61018b610186366004611644565b610389565b60405190151581526020015b60405180910390f35b6101a86103b4565b60405161019791906116b5565b6101c86101c33660046116c8565b610446565b6040516001600160a01b039091168152602001610197565b6101f36101ee3660046116fd565b61046d565b005b6008545b604051908152602001610197565b6101f3610215366004611727565b610588565b6101f96102283660046116fd565b6105b9565b6101f361023b366004611727565b61064f565b6101f361024e3660046116c8565b61066a565b6101f96102613660046116c8565b61067e565b6101f36102743660046117ef565b610711565b6101c86102873660046116c8565b610730565b6101f361029a366004611838565b610790565b6101a86107ba565b6101f96102b5366004611838565b610848565b6101f36108ce565b600a546001600160a01b03166101c8565b6101a86108e2565b6101f36102e9366004611853565b6108f1565b6101f36102fc36600461188f565b6108fc565b6101a861030f3660046116c8565b610934565b600c546101c8906001600160a01b031681565b61018b61033536600461190b565b6001600160a01b03918216600090815260056020908152604080832093909416825291909152205460ff1690565b6101f361037136600461193e565b6109c8565b6101f3610384366004611838565b610a48565b60006001600160e01b0319821663780e9d6360e01b14806103ae57506103ae82610abe565b92915050565b6060600080546103c3906119b9565b80601f01602080910402602001604051908101604052809291908181526020018280546103ef906119b9565b801561043c5780601f106104115761010080835404028352916020019161043c565b820191906000526020600020905b81548152906001019060200180831161041f57829003601f168201915b5050505050905090565b600061045182610b0e565b506000908152600460205260409020546001600160a01b031690565b600061047882610730565b9050806001600160a01b0316836001600160a01b031614156104eb5760405162461bcd60e51b815260206004820152602160248201527f4552433732313a20617070726f76616c20746f2063757272656e74206f776e656044820152603960f91b60648201526084015b60405180910390fd5b336001600160a01b038216148061050757506105078133610335565b6105795760405162461bcd60e51b815260206004820152603e60248201527f4552433732313a20617070726f76652063616c6c6572206973206e6f7420746f60448201527f6b656e206f776e6572206e6f7220617070726f76656420666f7220616c6c000060648201526084016104e2565b6105838383610b6d565b505050565b6105923382610bdb565b6105ae5760405162461bcd60e51b81526004016104e2906119f4565b610583838383610c5a565b60006105c483610848565b82106106265760405162461bcd60e51b815260206004820152602b60248201527f455243373231456e756d657261626c653a206f776e657220696e646578206f7560448201526a74206f6620626f756e647360a81b60648201526084016104e2565b506001600160a01b03919091166000908152600660209081526040808320938352929052205490565b610583838383604051806020016040528060008152506108fc565b610672610e01565b61067b81610e50565b50565b600061068960085490565b82106106ec5760405162461bcd60e51b815260206004820152602c60248201527f455243373231456e756d657261626c653a20676c6f62616c20696e646578206f60448201526b7574206f6620626f756e647360a01b60648201526084016104e2565b600882815481106106ff576106ff611a42565b90600052602060002001549050919050565b610719610ef7565b805161072c90600b906020840190611595565b5050565b6000818152600260205260408120546001600160a01b0316806103ae5760405162461bcd60e51b8152602060048201526018602482015277115490cdcc8c4e881a5b9d985b1a59081d1bdad95b88125160421b60448201526064016104e2565b610798610ef7565b600c80546001600160a01b0319166001600160a01b0392909216919091179055565b600b80546107c7906119b9565b80601f01602080910402602001604051908101604052809291908181526020018280546107f3906119b9565b80156108405780601f1061081557610100808354040283529160200191610840565b820191906000526020600020905b81548152906001019060200180831161082357829003601f168201915b505050505081565b60006001600160a01b0382166108b25760405162461bcd60e51b815260206004820152602960248201527f4552433732313a2061646472657373207a65726f206973206e6f7420612076616044820152683634b21037bbb732b960b91b60648201526084016104e2565b506001600160a01b031660009081526003602052604090205490565b6108d6610ef7565b6108e06000610f51565b565b6060600180546103c3906119b9565b61072c338383610fa3565b6109063383610bdb565b6109225760405162461bcd60e51b81526004016104e2906119f4565b61092e84848484611072565b50505050565b6060600b8054610943906119b9565b80601f016020809104026020016040519081016040528092919081815260200182805461096f906119b9565b80156109bc5780601f10610991576101008083540402835291602001916109bc565b820191906000526020600020905b81548152906001019060200180831161099f57829003601f168201915b50505050509050919050565b6109d0610ef7565b60005b8281101561092e5760005b82811015610a3557610a238585848181106109fb576109fb611a42565b9050602002016020810190610a109190611838565b600854610a1e906001611a6e565b6110a5565b80610a2d81611a86565b9150506109de565b5080610a4081611a86565b9150506109d3565b610a50610ef7565b6001600160a01b038116610ab55760405162461bcd60e51b815260206004820152602660248201527f4f776e61626c653a206e6577206f776e657220697320746865207a65726f206160448201526564647265737360d01b60648201526084016104e2565b61067b81610f51565b60006001600160e01b031982166380ac58cd60e01b1480610aef57506001600160e01b03198216635b5e139f60e01b145b806103ae57506301ffc9a760e01b6001600160e01b03198316146103ae565b6000818152600260205260409020546001600160a01b031661067b5760405162461bcd60e51b8152602060048201526018602482015277115490cdcc8c4e881a5b9d985b1a59081d1bdad95b88125160421b60448201526064016104e2565b600081815260046020526040902080546001600160a01b0319166001600160a01b0384169081179091558190610ba282610730565b6001600160a01b03167f8c5be1e5ebec7d5bd14f71427d1e84f3dd0314c0f7b2291e5b200ac8c7c3b92560405160405180910390a45050565b600080610be783610730565b9050806001600160a01b0316846001600160a01b03161480610c2e57506001600160a01b0380821660009081526005602090815260408083209388168352929052205460ff165b80610c525750836001600160a01b0316610c4784610446565b6001600160a01b0316145b949350505050565b826001600160a01b0316610c6d82610730565b6001600160a01b031614610cd15760405162461bcd60e51b815260206004820152602560248201527f4552433732313a207472616e736665722066726f6d20696e636f72726563742060448201526437bbb732b960d91b60648201526084016104e2565b6001600160a01b038216610d335760405162461bcd60e51b8152602060048201526024808201527f4552433732313a207472616e7366657220746f20746865207a65726f206164646044820152637265737360e01b60648201526084016104e2565b610d3e8383836110bf565b610d49600082610b6d565b6001600160a01b0383166000908152600360205260408120805460019290610d72908490611aa1565b90915550506001600160a01b0382166000908152600360205260408120805460019290610da0908490611a6e565b909155505060008181526002602052604080822080546001600160a01b0319166001600160a01b0386811691821790925591518493918716917fddf252ad1be2c89b69c2b068fc378daa952ba7f163c4a11628f55a4df523b3ef91a4505050565b600c546001600160a01b031633146108e05760405162461bcd60e51b815260206004820152601260248201527143616c6c6572206973206e6f74204f41594360701b60448201526064016104e2565b6000610e5b82610730565b9050610e69816000846110bf565b610e74600083610b6d565b6001600160a01b0381166000908152600360205260408120805460019290610e9d908490611aa1565b909155505060008281526002602052604080822080546001600160a01b0319169055518391906001600160a01b038416907fddf252ad1be2c89b69c2b068fc378daa952ba7f163c4a11628f55a4df523b3ef908390a45050565b600a546001600160a01b031633146108e05760405162461bcd60e51b815260206004820181905260248201527f4f776e61626c653a2063616c6c6572206973206e6f7420746865206f776e657260448201526064016104e2565b600a80546001600160a01b038381166001600160a01b0319831681179093556040519116919082907f8be0079c531659141344cd1fd0a4f28419497f9722a3daafe3b4186f6b6457e090600090a35050565b816001600160a01b0316836001600160a01b031614156110055760405162461bcd60e51b815260206004820152601960248201527f4552433732313a20617070726f766520746f2063616c6c65720000000000000060448201526064016104e2565b6001600160a01b03838116600081815260056020908152604080832094871680845294825291829020805460ff191686151590811790915591519182527f17307eab39ab6107e8899845ad3d59bd9653f200f220920489ca2b5937696c31910160405180910390a3505050565b61107d848484610c5a565b61108984848484611177565b61092e5760405162461bcd60e51b81526004016104e290611ab8565b61072c828260405180602001604052806000815250611284565b6001600160a01b03831661111a5761111581600880546000838152600960205260408120829055600182018355919091527ff3f7a9fe364faab93b216da50a3214154f22a0a2b415b23a84c8169e8b636ee30155565b61113d565b816001600160a01b0316836001600160a01b03161461113d5761113d83826112b7565b6001600160a01b0382166111545761058381611354565b826001600160a01b0316826001600160a01b031614610583576105838282611403565b60006001600160a01b0384163b1561127957604051630a85bd0160e11b81526001600160a01b0385169063150b7a02906111bb903390899088908890600401611b0a565b602060405180830381600087803b1580156111d557600080fd5b505af1925050508015611205575060408051601f3d908101601f1916820190925261120291810190611b47565b60015b61125f573d808015611233576040519150601f19603f3d011682016040523d82523d6000602084013e611238565b606091505b5080516112575760405162461bcd60e51b81526004016104e290611ab8565b805181602001fd5b6001600160e01b031916630a85bd0160e11b149050610c52565b506001949350505050565b61128e8383611447565b61129b6000848484611177565b6105835760405162461bcd60e51b81526004016104e290611ab8565b600060016112c484610848565b6112ce9190611aa1565b600083815260076020526040902054909150808214611321576001600160a01b03841660009081526006602090815260408083208584528252808320548484528184208190558352600790915290208190555b5060009182526007602090815260408084208490556001600160a01b039094168352600681528383209183525290812055565b60085460009061136690600190611aa1565b6000838152600960205260408120546008805493945090928490811061138e5761138e611a42565b9060005260206000200154905080600883815481106113af576113af611a42565b60009182526020808320909101929092558281526009909152604080822084905585825281205560088054806113e7576113e7611b64565b6001900381819060005260206000200160009055905550505050565b600061140e83610848565b6001600160a01b039093166000908152600660209081526040808320868452825280832085905593825260079052919091209190915550565b6001600160a01b03821661149d5760405162461bcd60e51b815260206004820181905260248201527f4552433732313a206d696e7420746f20746865207a65726f206164647265737360448201526064016104e2565b6000818152600260205260409020546001600160a01b0316156115025760405162461bcd60e51b815260206004820152601c60248201527f4552433732313a20746f6b656e20616c7265616479206d696e7465640000000060448201526064016104e2565b61150e600083836110bf565b6001600160a01b0382166000908152600360205260408120805460019290611537908490611a6e565b909155505060008181526002602052604080822080546001600160a01b0319166001600160a01b03861690811790915590518392907fddf252ad1be2c89b69c2b068fc378daa952ba7f163c4a11628f55a4df523b3ef908290a45050565b8280546115a1906119b9565b90600052602060002090601f0160209004810192826115c35760008555611609565b82601f106115dc57805160ff1916838001178555611609565b82800160010185558215611609579182015b828111156116095782518255916020019190600101906115ee565b50611615929150611619565b5090565b5b80821115611615576000815560010161161a565b6001600160e01b03198116811461067b57600080fd5b60006020828403121561165657600080fd5b81356116618161162e565b9392505050565b6000815180845260005b8181101561168e57602081850181015186830182015201611672565b818111156116a0576000602083870101525b50601f01601f19169290920160200192915050565b6020815260006116616020830184611668565b6000602082840312156116da57600080fd5b5035919050565b80356001600160a01b03811681146116f857600080fd5b919050565b6000806040838503121561171057600080fd5b611719836116e1565b946020939093013593505050565b60008060006060848603121561173c57600080fd5b611745846116e1565b9250611753602085016116e1565b9150604084013590509250925092565b634e487b7160e01b600052604160045260246000fd5b600067ffffffffffffffff8084111561179457611794611763565b604051601f8501601f19908116603f011681019082821181831017156117bc576117bc611763565b816040528093508581528686860111156117d557600080fd5b858560208301376000602087830101525050509392505050565b60006020828403121561180157600080fd5b813567ffffffffffffffff81111561181857600080fd5b8201601f8101841361182957600080fd5b610c5284823560208401611779565b60006020828403121561184a57600080fd5b611661826116e1565b6000806040838503121561186657600080fd5b61186f836116e1565b91506020830135801515811461188457600080fd5b809150509250929050565b600080600080608085870312156118a557600080fd5b6118ae856116e1565b93506118bc602086016116e1565b925060408501359150606085013567ffffffffffffffff8111156118df57600080fd5b8501601f810187136118f057600080fd5b6118ff87823560208401611779565b91505092959194509250565b6000806040838503121561191e57600080fd5b611927836116e1565b9150611935602084016116e1565b90509250929050565b60008060006040848603121561195357600080fd5b833567ffffffffffffffff8082111561196b57600080fd5b818601915086601f83011261197f57600080fd5b81358181111561198e57600080fd5b8760208260051b85010111156119a357600080fd5b6020928301989097509590910135949350505050565b600181811c908216806119cd57607f821691505b602082108114156119ee57634e487b7160e01b600052602260045260246000fd5b50919050565b6020808252602e908201527f4552433732313a2063616c6c6572206973206e6f7420746f6b656e206f776e6560408201526d1c881b9bdc88185c1c1c9bdd995960921b606082015260800190565b634e487b7160e01b600052603260045260246000fd5b634e487b7160e01b600052601160045260246000fd5b60008219821115611a8157611a81611a58565b500190565b6000600019821415611a9a57611a9a611a58565b5060010190565b600082821015611ab357611ab3611a58565b500390565b60208082526032908201527f4552433732313a207472616e7366657220746f206e6f6e20455243373231526560408201527131b2b4bb32b91034b6b83632b6b2b73a32b960711b606082015260800190565b6001600160a01b0385811682528416602082015260408101839052608060608201819052600090611b3d90830184611668565b9695505050505050565b600060208284031215611b5957600080fd5b81516116618161162e565b634e487b7160e01b600052603160045260246000fdfea2646970667358221220a14606b37163e2671aed5e299bc9ff14c9839b40f8f353ad0db3e3ff39fd832664736f6c63430008090033",
  "linkReferences": {},
  "deployedLinkReferences": {}
}