{
  "_format": "hh-sol-artifact-1",
  "contractName": "Mutant",
  "sourceName": "contracts/Mutant.sol",
  "abi": [
    {
      "inputs": [
        {
          "internalType": "string",
          "name": "name",
          "type": "string"
        },
        {
          "internalType": "string",
          "name": "symbol",
          "type": "string"
        },
        {
          "internalType": "contract IERC20",
          "name": "_op",
          "type": "address"
        },
        {
          "internalType": "contract IERC721",
          "name": "_oayc",
          "type": "address"
        }
      ],
      "stateMutability": "nonpayable",
      "type": "constructor"
    },
    {
      "anonymous": false,
      "inputs": [
        {
          "indexed": true,
          "internalType": "address",
          "name": "owner",
          "type": "address"
        },
        {
          "indexed": true,
          "internalType": "address",
          "name": "approved",
          "type": "address"
        },
        {
          "indexed": true,
          "internalType": "uint256",
          "name": "tokenId",
          "type": "uint256"
        }
      ],
      "name": "Approval",
      "type": "event"
    },
    {
      "anonymous": false,
      "inputs": [
        {
          "indexed": true,
          "internalType": "address",
          "name": "owner",
          "type": "address"
        },
        {
          "indexed": true,
          "internalType": "address",
          "name": "operator",
          "type": "address"
        },
        {
          "indexed": false,
          "internalType": "bool",
          "name": "approved",
          "type": "bool"
        }
      ],
      "name": "ApprovalForAll",
      "type": "event"
    },
    {
      "anonymous": false,
      "inputs": [
        {
          "indexed": true,
          "internalType": "address",
          "name": "previousOwner",
          "type": "address"
        },
        {
          "indexed": true,
          "internalType": "address",
          "name": "newOwner",
          "type": "address"
        }
      ],
      "name": "OwnershipTransferred",
      "type": "event"
    },
    {
      "anonymous": false,
      "inputs": [
        {
          "indexed": true,
          "internalType": "address",
          "name": "from",
          "type": "address"
        },
        {
          "indexed": true,
          "internalType": "address",
          "name": "to",
          "type": "address"
        },
        {
          "indexed": true,
          "internalType": "uint256",
          "name": "tokenId",
          "type": "uint256"
        }
      ],
      "name": "Transfer",
      "type": "event"
    },
    {
      "inputs": [],
      "name": "OAYC",
      "outputs": [
        {
          "internalType": "contract IERC721",
          "name": "",
          "type": "address"
        }
      ],
      "stateMutability": "view",
      "type": "function"
    },
    {
      "inputs": [],
      "name": "OPToken",
      "outputs": [
        {
          "internalType": "contract IERC20",
          "name": "",
          "type": "address"
        }
      ],
      "stateMutability": "view",
      "type": "function"
    },
    {
      "inputs": [
        {
          "internalType": "address",
          "name": "to",
          "type": "address"
        },
        {
          "internalType": "uint256",
          "name": "tokenId",
          "type": "uint256"
        }
      ],
      "name": "approve",
      "outputs": [],
      "stateMutability": "nonpayable",
      "type": "function"
    },
    {
      "inputs": [
        {
          "internalType": "address",
          "name": "owner",
          "type": "address"
        }
      ],
      "name": "balanceOf",
      "outputs": [
        {
          "internalType": "uint256",
          "name": "",
          "type": "uint256"
        }
      ],
      "stateMutability": "view",
      "type": "function"
    },
    {
      "inputs": [],
      "name": "baseURI",
      "outputs": [
        {
          "internalType": "string",
          "name": "",
          "type": "string"
        }
      ],
      "stateMutability": "view",
      "type": "function"
    },
    {
      "inputs": [
        {
          "internalType": "address[]",
          "name": "_addresses",
          "type": "address[]"
        },
        {
          "internalType": "uint256",
          "name": "_tokenCount",
          "type": "uint256"
        }
      ],
      "name": "claim",
      "outputs": [],
      "stateMutability": "nonpayable",
      "type": "function"
    },
    {
      "inputs": [
        {
          "internalType": "uint256",
          "name": "tokenId",
          "type": "uint256"
        }
      ],
      "name": "getApproved",
      "outputs": [
        {
          "internalType": "address",
          "name": "",
          "type": "address"
        }
      ],
      "stateMutability": "view",
      "type": "function"
    },
    {
      "inputs": [],
      "name": "info",
      "outputs": [
        {
          "components": [
            {
              "internalType": "enum Mutant.Status",
              "name": "stage",
              "type": "uint8"
            },
            {
              "internalType": "uint256",
              "name": "whiteListStart",
              "type": "uint256"
            },
            {
              "internalType": "uint256",
              "name": "publicStart",
              "type": "uint256"
            },
            {
              "internalType": "uint256",
              "name": "mutationStart",
              "type": "uint256"
            },
            {
              "internalType": "bool",
              "name": "saleOpen",
              "type": "bool"
            },
            {
              "internalType": "uint256",
              "name": "supply",
              "type": "uint256"
            },
            {
              "internalType": "uint256",
              "name": "minted",
              "type": "uint256"
            },
            {
              "internalType": "uint256",
              "name": "pricePerTokenWl",
              "type": "uint256"
            },
            {
              "internalType": "uint256",
              "name": "pricePerTokenPublic",
              "type": "uint256"
            },
            {
              "internalType": "uint256",
              "name": "mutationPrice",
              "type": "uint256"
            }
          ],
          "internalType": "struct Mutant.Info",
          "name": "",
          "type": "tuple"
        }
      ],
      "stateMutability": "view",
      "type": "function"
    },
    {
      "inputs": [
        {
          "internalType": "address",
          "name": "owner",
          "type": "address"
        },
        {
          "internalType": "address",
          "name": "operator",
          "type": "address"
        }
      ],
      "name": "isApprovedForAll",
      "outputs": [
        {
          "internalType": "bool",
          "name": "",
          "type": "bool"
        }
      ],
      "stateMutability": "view",
      "type": "function"
    },
    {
      "inputs": [],
      "name": "lvl1MutationCounter",
      "outputs": [
        {
          "internalType": "uint256",
          "name": "",
          "type": "uint256"
        }
      ],
      "stateMutability": "view",
      "type": "function"
    },
    {
      "inputs": [],
      "name": "lvl2MutationCounter",
      "outputs": [
        {
          "internalType": "uint256",
          "name": "",
          "type": "uint256"
        }
      ],
      "stateMutability": "view",
      "type": "function"
    },
    {
      "inputs": [],
      "name": "lvl3MutationCounter",
      "outputs": [
        {
          "internalType": "uint256",
          "name": "",
          "type": "uint256"
        }
      ],
      "stateMutability": "view",
      "type": "function"
    },
    {
      "inputs": [],
      "name": "maxPublicMint",
      "outputs": [
        {
          "internalType": "uint256",
          "name": "",
          "type": "uint256"
        }
      ],
      "stateMutability": "view",
      "type": "function"
    },
    {
      "inputs": [],
      "name": "maxWhitelistMint",
      "outputs": [
        {
          "internalType": "uint256",
          "name": "",
          "type": "uint256"
        }
      ],
      "stateMutability": "view",
      "type": "function"
    },
    {
      "inputs": [
        {
          "internalType": "uint256",
          "name": "_tokenCount",
          "type": "uint256"
        }
      ],
      "name": "mintPublic",
      "outputs": [],
      "stateMutability": "nonpayable",
      "type": "function"
    },
    {
      "inputs": [
        {
          "internalType": "uint256",
          "name": "_tokenCount",
          "type": "uint256"
        },
        {
          "internalType": "bytes32[]",
          "name": "_merkleProof",
          "type": "bytes32[]"
        }
      ],
      "name": "mintWhitelist",
      "outputs": [],
      "stateMutability": "nonpayable",
      "type": "function"
    },
    {
      "inputs": [],
      "name": "mutagen1",
      "outputs": [
        {
          "internalType": "contract Mutagen",
          "name": "",
          "type": "address"
        }
      ],
      "stateMutability": "view",
      "type": "function"
    },
    {
      "inputs": [],
      "name": "mutagen2",
      "outputs": [
        {
          "internalType": "contract Mutagen",
          "name": "",
          "type": "address"
        }
      ],
      "stateMutability": "view",
      "type": "function"
    },
    {
      "inputs": [],
      "name": "mutagen3",
      "outputs": [
        {
          "internalType": "contract Mutagen",
          "name": "",
          "type": "address"
        }
      ],
      "stateMutability": "view",
      "type": "function"
    },
    {
      "inputs": [
        {
          "internalType": "uint256",
          "name": "_mutagen1",
          "type": "uint256"
        },
        {
          "internalType": "uint256",
          "name": "_oayc",
          "type": "uint256"
        }
      ],
      "name": "mutate1",
      "outputs": [],
      "stateMutability": "payable",
      "type": "function"
    },
    {
      "inputs": [
        {
          "internalType": "uint256",
          "name": "_mutagen2",
          "type": "uint256"
        },
        {
          "internalType": "uint256",
          "name": "_moayc",
          "type": "uint256"
        }
      ],
      "name": "mutate2",
      "outputs": [],
      "stateMutability": "nonpayable",
      "type": "function"
    },
    {
      "inputs": [
        {
          "internalType": "uint256",
          "name": "_mutagen3",
          "type": "uint256"
        },
        {
          "internalType": "uint256",
          "name": "_moayc",
          "type": "uint256"
        }
      ],
      "name": "mutate3",
      "outputs": [],
      "stateMutability": "nonpayable",
      "type": "function"
    },
    {
      "inputs": [
        {
          "internalType": "uint256",
          "name": "",
          "type": "uint256"
        }
      ],
      "name": "mutationLvl",
      "outputs": [
        {
          "internalType": "uint256",
          "name": "",
          "type": "uint256"
        }
      ],
      "stateMutability": "view",
      "type": "function"
    },
    {
      "inputs": [],
      "name": "mutationPrice",
      "outputs": [
        {
          "internalType": "uint256",
          "name": "",
          "type": "uint256"
        }
      ],
      "stateMutability": "view",
      "type": "function"
    },
    {
      "inputs": [],
      "name": "mutationStart",
      "outputs": [
        {
          "internalType": "uint256",
          "name": "",
          "type": "uint256"
        }
      ],
      "stateMutability": "view",
      "type": "function"
    },
    {
      "inputs": [],
      "name": "name",
      "outputs": [
        {
          "internalType": "string",
          "name": "",
          "type": "string"
        }
      ],
      "stateMutability": "view",
      "type": "function"
    },
    {
      "inputs": [],
      "name": "owner",
      "outputs": [
        {
          "internalType": "address",
          "name": "",
          "type": "address"
        }
      ],
      "stateMutability": "view",
      "type": "function"
    },
    {
      "inputs": [
        {
          "internalType": "uint256",
          "name": "tokenId",
          "type": "uint256"
        }
      ],
      "name": "ownerOf",
      "outputs": [
        {
          "internalType": "address",
          "name": "",
          "type": "address"
        }
      ],
      "stateMutability": "view",
      "type": "function"
    },
    {
      "inputs": [],
      "name": "pricePerTokenPublic",
      "outputs": [
        {
          "internalType": "uint256",
          "name": "",
          "type": "uint256"
        }
      ],
      "stateMutability": "view",
      "type": "function"
    },
    {
      "inputs": [],
      "name": "pricePerTokenWl",
      "outputs": [
        {
          "internalType": "uint256",
          "name": "",
          "type": "uint256"
        }
      ],
      "stateMutability": "view",
      "type": "function"
    },
    {
      "inputs": [],
      "name": "publicMintCounter",
      "outputs": [
        {
          "internalType": "uint256",
          "name": "",
          "type": "uint256"
        }
      ],
      "stateMutability": "view",
      "type": "function"
    },
    {
      "inputs": [
        {
          "internalType": "address",
          "name": "",
          "type": "address"
        }
      ],
      "name": "publicMints",
      "outputs": [
        {
          "internalType": "uint256",
          "name": "",
          "type": "uint256"
        }
      ],
      "stateMutability": "view",
      "type": "function"
    },
    {
      "inputs": [],
      "name": "publicStart",
      "outputs": [
        {
          "internalType": "uint256",
          "name": "",
          "type": "uint256"
        }
      ],
      "stateMutability": "view",
      "type": "function"
    },
    {
      "inputs": [],
      "name": "renounceOwnership",
      "outputs": [],
      "stateMutability": "nonpayable",
      "type": "function"
    },
    {
      "inputs": [
        {
          "internalType": "address",
          "name": "from",
          "type": "address"
        },
        {
          "internalType": "address",
          "name": "to",
          "type": "address"
        },
        {
          "internalType": "uint256",
          "name": "tokenId",
          "type": "uint256"
        }
      ],
      "name": "safeTransferFrom",
      "outputs": [],
      "stateMutability": "nonpayable",
      "type": "function"
    },
    {
      "inputs": [
        {
          "internalType": "address",
          "name": "from",
          "type": "address"
        },
        {
          "internalType": "address",
          "name": "to",
          "type": "address"
        },
        {
          "internalType": "uint256",
          "name": "tokenId",
          "type": "uint256"
        },
        {
          "internalType": "bytes",
          "name": "data",
          "type": "bytes"
        }
      ],
      "name": "safeTransferFrom",
      "outputs": [],
      "stateMutability": "nonpayable",
      "type": "function"
    },
    {
      "inputs": [],
      "name": "saleOpen",
      "outputs": [
        {
          "internalType": "bool",
          "name": "",
          "type": "bool"
        }
      ],
      "stateMutability": "view",
      "type": "function"
    },
    {
      "inputs": [
        {
          "internalType": "address",
          "name": "operator",
          "type": "address"
        },
        {
          "internalType": "bool",
          "name": "approved",
          "type": "bool"
        }
      ],
      "name": "setApprovalForAll",
      "outputs": [],
      "stateMutability": "nonpayable",
      "type": "function"
    },
    {
      "inputs": [
        {
          "internalType": "string",
          "name": "_uri",
          "type": "string"
        }
      ],
      "name": "setBaseURI",
      "outputs": [],
      "stateMutability": "nonpayable",
      "type": "function"
    },
    {
      "inputs": [
        {
          "internalType": "uint256",
          "name": "_amount",
          "type": "uint256"
        }
      ],
      "name": "setMaxPublicMint",
      "outputs": [],
      "stateMutability": "nonpayable",
      "type": "function"
    },
    {
      "inputs": [
        {
          "internalType": "uint256",
          "name": "_amount",
          "type": "uint256"
        }
      ],
      "name": "setMaxWhitelistMint",
      "outputs": [],
      "stateMutability": "nonpayable",
      "type": "function"
    },
    {
      "inputs": [
        {
          "internalType": "contract Mutagen",
          "name": "_mutagen1",
          "type": "address"
        },
        {
          "internalType": "contract Mutagen",
          "name": "_mutagen2",
          "type": "address"
        },
        {
          "internalType": "contract Mutagen",
          "name": "_mutagen3",
          "type": "address"
        }
      ],
      "name": "setMutagens",
      "outputs": [],
      "stateMutability": "nonpayable",
      "type": "function"
    },
    {
      "inputs": [
        {
          "internalType": "uint256",
          "name": "_price",
          "type": "uint256"
        }
      ],
      "name": "setMutationPrice",
      "outputs": [],
      "stateMutability": "nonpayable",
      "type": "function"
    },
    {
      "inputs": [
        {
          "internalType": "uint256",
          "name": "_price",
          "type": "uint256"
        }
      ],
      "name": "setPricePublic",
      "outputs": [],
      "stateMutability": "nonpayable",
      "type": "function"
    },
    {
      "inputs": [
        {
          "internalType": "uint256",
          "name": "_price",
          "type": "uint256"
        }
      ],
      "name": "setPriceWl",
      "outputs": [],
      "stateMutability": "nonpayable",
      "type": "function"
    },
    {
      "inputs": [],
      "name": "setSaleClose",
      "outputs": [],
      "stateMutability": "nonpayable",
      "type": "function"
    },
    {
      "inputs": [],
      "name": "setSaleOpen",
      "outputs": [],
      "stateMutability": "nonpayable",
      "type": "function"
    },
    {
      "inputs": [
        {
          "internalType": "uint256",
          "name": "_whiteListStart",
          "type": "uint256"
        },
        {
          "internalType": "uint256",
          "name": "_publicStart",
          "type": "uint256"
        },
        {
          "internalType": "uint256",
          "name": "_mutationStart",
          "type": "uint256"
        }
      ],
      "name": "setSaleStart",
      "outputs": [],
      "stateMutability": "nonpayable",
      "type": "function"
    },
    {
      "inputs": [
        {
          "internalType": "bytes32",
          "name": "_merkleRoot",
          "type": "bytes32"
        }
      ],
      "name": "setWhiteListRoot",
      "outputs": [],
      "stateMutability": "nonpayable",
      "type": "function"
    },
    {
      "inputs": [],
      "name": "stage",
      "outputs": [
        {
          "internalType": "enum Mutant.Status",
          "name": "",
          "type": "uint8"
        }
      ],
      "stateMutability": "view",
      "type": "function"
    },
    {
      "inputs": [],
      "name": "supply",
      "outputs": [
        {
          "internalType": "uint256",
          "name": "",
          "type": "uint256"
        }
      ],
      "stateMutability": "view",
      "type": "function"
    },
    {
      "inputs": [
        {
          "internalType": "bytes4",
          "name": "interfaceId",
          "type": "bytes4"
        }
      ],
      "name": "supportsInterface",
      "outputs": [
        {
          "internalType": "bool",
          "name": "",
          "type": "bool"
        }
      ],
      "stateMutability": "view",
      "type": "function"
    },
    {
      "inputs": [],
      "name": "symbol",
      "outputs": [
        {
          "internalType": "string",
          "name": "",
          "type": "string"
        }
      ],
      "stateMutability": "view",
      "type": "function"
    },
    {
      "inputs": [
        {
          "internalType": "uint256",
          "name": "index",
          "type": "uint256"
        }
      ],
      "name": "tokenByIndex",
      "outputs": [
        {
          "internalType": "uint256",
          "name": "",
          "type": "uint256"
        }
      ],
      "stateMutability": "view",
      "type": "function"
    },
    {
      "inputs": [
        {
          "internalType": "address",
          "name": "owner",
          "type": "address"
        },
        {
          "internalType": "uint256",
          "name": "index",
          "type": "uint256"
        }
      ],
      "name": "tokenOfOwnerByIndex",
      "outputs": [
        {
          "internalType": "uint256",
          "name": "",
          "type": "uint256"
        }
      ],
      "stateMutability": "view",
      "type": "function"
    },
    {
      "inputs": [
        {
          "internalType": "uint256",
          "name": "tokenId",
          "type": "uint256"
        }
      ],
      "name": "tokenURI",
      "outputs": [
        {
          "internalType": "string",
          "name": "",
          "type": "string"
        }
      ],
      "stateMutability": "view",
      "type": "function"
    },
    {
      "inputs": [],
      "name": "totalSupply",
      "outputs": [
        {
          "internalType": "uint256",
          "name": "",
          "type": "uint256"
        }
      ],
      "stateMutability": "view",
      "type": "function"
    },
    {
      "inputs": [
        {
          "internalType": "address",
          "name": "from",
          "type": "address"
        },
        {
          "internalType": "address",
          "name": "to",
          "type": "address"
        },
        {
          "internalType": "uint256",
          "name": "tokenId",
          "type": "uint256"
        }
      ],
      "name": "transferFrom",
      "outputs": [],
      "stateMutability": "nonpayable",
      "type": "function"
    },
    {
      "inputs": [
        {
          "internalType": "address",
          "name": "newOwner",
          "type": "address"
        }
      ],
      "name": "transferOwnership",
      "outputs": [],
      "stateMutability": "nonpayable",
      "type": "function"
    },
    {
      "inputs": [],
      "name": "whiteListStart",
      "outputs": [
        {
          "internalType": "uint256",
          "name": "",
          "type": "uint256"
        }
      ],
      "stateMutability": "view",
      "type": "function"
    },
    {
      "inputs": [
        {
          "internalType": "address",
          "name": "",
          "type": "address"
        }
      ],
      "name": "whitelistMints",
      "outputs": [
        {
          "internalType": "uint256",
          "name": "",
          "type": "uint256"
        }
      ],
      "stateMutability": "view",
      "type": "function"
    },
    {
      "inputs": [],
      "name": "withdraw",
      "outputs": [],
      "stateMutability": "nonpayable",
      "type": "function"
    },
    {
      "inputs": [
        {
          "internalType": "contract IERC20",
          "name": "_token",
          "type": "address"
        }
      ],
      "name": "withdrawToken",
      "outputs": [],
      "stateMutability": "nonpayable",
      "type": "function"
    }
  ],
  "bytecode": "0x6080604052620186a0600b55610bb8600d556000600e556000600f55600060105560006011556801a055690d9db8000060175568015af1d78b58c40000601855661c6bf5263400006019556003601d55600a601e553480156200006157600080fd5b50604051620040a8380380620040a88339810160408190526200008491620002e7565b8351849084906200009d9060009060208501906200015b565b508051620000b39060019060208401906200015b565b505050620000d0620000ca6200010560201b60201c565b62000109565b601280546001600160a01b039384166001600160a01b0319918216179091556013805492909316911617905550620003b89050565b3390565b600a80546001600160a01b038381166001600160a01b0319831681179093556040519116919082907f8be0079c531659141344cd1fd0a4f28419497f9722a3daafe3b4186f6b6457e090600090a35050565b82805462000169906200037b565b90600052602060002090601f0160209004810192826200018d5760008555620001d8565b82601f10620001a857805160ff1916838001178555620001d8565b82800160010185558215620001d8579182015b82811115620001d8578251825591602001919060010190620001bb565b50620001e6929150620001ea565b5090565b5b80821115620001e65760008155600101620001eb565b634e487b7160e01b600052604160045260246000fd5b600082601f8301126200022957600080fd5b81516001600160401b038082111562000246576200024662000201565b604051601f8301601f19908116603f0116810190828211818310171562000271576200027162000201565b816040528381526020925086838588010111156200028e57600080fd5b600091505b83821015620002b2578582018301518183018401529082019062000293565b83821115620002c45760008385830101525b9695505050505050565b6001600160a01b0381168114620002e457600080fd5b50565b60008060008060808587031215620002fe57600080fd5b84516001600160401b03808211156200031657600080fd5b620003248883890162000217565b955060208701519150808211156200033b57600080fd5b506200034a8782880162000217565b93505060408501516200035d81620002ce565b60608601519092506200037081620002ce565b939692955090935050565b600181811c908216806200039057607f821691505b60208210811415620003b257634e487b7160e01b600052602260045260246000fd5b50919050565b613ce080620003c86000396000f3fe6080604052600436106103b75760003560e01c806368432dad116101f2578063a5f4c6ff1161010d578063d442c444116100a0578063efd0cbf91161006f578063efd0cbf914610ae5578063f1c0fc8f14610b05578063f2fde38b14610b1b578063fb2faa8014610b3b57600080fd5b8063d442c44414610a46578063e2dd299514610a66578063e4ff8e4214610a7c578063e985e9c514610a9c57600080fd5b8063c040e6b8116100dc578063c040e6b8146109ce578063c48bfc9c146109f0578063c87b56dd14610a10578063cabadaa014610a3057600080fd5b8063a5f4c6ff14610962578063b3e4046914610978578063b88d4fde1461098e578063bc83574f146109ae57600080fd5b806388eae7051161018557806395d89b411161015457806395d89b41146108e55780639634a6ee146108fa57806399288dbb14610928578063a22cb4651461094257600080fd5b806388eae7051461087b57806389476069146108915780638da5cb5b146108b15780639437908e146108cf57600080fd5b8063715018a6116101c1578063715018a61461081157806371978011146108265780637de861ae14610846578063882c02b71461085b57600080fd5b806368432dad146107a65780636c0360eb146107c65780636e33a165146107db57806370a08231146107f157600080fd5b80632f08c934116102e257806342842e0e116102755780634f6ccce7116102445780634f6ccce71461072657806355f804b3146107465780636352211e1461076657806363a553d51461078657600080fd5b806342842e0e146106a657806345149bb3146106c65780634530a832146106e6578063483483521461070657600080fd5b80633add14c8116102b15780633add14c8146106375780633ccfd60b146106655780633eda15de1461067a57806341596c2c1461069057600080fd5b80632f08c934146105bf5780632f745c59146105df578063309a3686146105ff578063370158ea1461061557600080fd5b80630e11602a1161035a57806323b872dd1161032957806323b872dd1461053f578063270ab52c1461055f5780632dfdd2441461057f5780632eb97c431461059f57600080fd5b80630e11602a146104df57806318160ddd146104ff5780631974c9981461051457806319dad6801461052a57600080fd5b8063061431a811610396578063061431a81461044357806306fdde0314610465578063081812fc14610487578063095ea7b3146104bf57600080fd5b80628af2e6146103bc57806301ffc9a7146103fd578063047fc9aa1461042d575b600080fd5b3480156103c857600080fd5b506103ea6103d7366004613304565b610bda6020526000908152604090205481565b6040519081526020015b60405180910390f35b34801561040957600080fd5b5061041d610418366004613337565b610b4e565b60405190151581526020016103f4565b34801561043957600080fd5b506103ea600d5481565b34801561044f57600080fd5b5061046361045e3660046133a0565b610b79565b005b34801561047157600080fd5b5061047a610edc565b6040516103f49190613444565b34801561049357600080fd5b506104a76104a2366004613457565b610f6e565b6040516001600160a01b0390911681526020016103f4565b3480156104cb57600080fd5b506104636104da366004613470565b610f95565b3480156104eb57600080fd5b506104636104fa36600461349c565b6110ab565b34801561050b57600080fd5b506008546103ea565b34801561052057600080fd5b506103ea60195481565b34801561053657600080fd5b5061046361134f565b34801561054b57600080fd5b5061046361055a3660046134be565b611366565b34801561056b57600080fd5b5061046361057a366004613457565b611397565b34801561058b57600080fd5b506012546104a7906001600160a01b031681565b3480156105ab57600080fd5b506015546104a7906001600160a01b031681565b3480156105cb57600080fd5b506104636105da3660046134ff565b6113a4565b3480156105eb57600080fd5b506103ea6105fa366004613470565b6113eb565b34801561060b57600080fd5b506103ea601d5481565b34801561062157600080fd5b5061062a611481565b6040516103f49190613582565b34801561064357600080fd5b506103ea610652366004613304565b610bdb6020526000908152604090205481565b34801561067157600080fd5b5061046361155a565b34801561068657600080fd5b506103ea60185481565b34801561069c57600080fd5b506103ea60175481565b3480156106b257600080fd5b506104636106c13660046134be565b611595565b3480156106d257600080fd5b506104636106e1366004613457565b6115b0565b3480156106f257600080fd5b50610463610701366004613457565b6115bd565b34801561071257600080fd5b5061046361072136600461349c565b6115ca565b34801561073257600080fd5b506103ea610741366004613457565b61183c565b34801561075257600080fd5b50610463610761366004613690565b6118cf565b34801561077257600080fd5b506104a7610781366004613457565b6118eb565b34801561079257600080fd5b506014546104a7906001600160a01b031681565b3480156107b257600080fd5b506104636107c13660046136d9565b61194b565b3480156107d257600080fd5b5061047a611a52565b3480156107e757600080fd5b506103ea600f5481565b3480156107fd57600080fd5b506103ea61080c366004613304565b611ae1565b34801561081d57600080fd5b50610463611b67565b34801561083257600080fd5b50610463610841366004613457565b611b7b565b34801561085257600080fd5b50610463611b88565b34801561086757600080fd5b506016546104a7906001600160a01b031681565b34801561088757600080fd5b506103ea601a5481565b34801561089d57600080fd5b506104636108ac366004613304565b611b9c565b3480156108bd57600080fd5b50600a546001600160a01b03166104a7565b3480156108db57600080fd5b506103ea600e5481565b3480156108f157600080fd5b5061047a611ca3565b34801561090657600080fd5b506103ea610915366004613457565b610bd96020526000908152604090205481565b34801561093457600080fd5b50600c5461041d9060ff1681565b34801561094e57600080fd5b5061046361095d366004613733565b611cb2565b34801561096e57600080fd5b506103ea601c5481565b34801561098457600080fd5b506103ea601b5481565b34801561099a57600080fd5b506104636109a936600461376c565b611cbd565b3480156109ba57600080fd5b506104636109c9366004613457565b611cef565b3480156109da57600080fd5b506109e3611cfc565b6040516103f491906137ec565b3480156109fc57600080fd5b50610463610a0b3660046137fa565b611d8c565b348015610a1c57600080fd5b5061047a610a2b366004613457565b611da2565b348015610a3c57600080fd5b506103ea601e5481565b348015610a5257600080fd5b506013546104a7906001600160a01b031681565b348015610a7257600080fd5b506103ea60115481565b348015610a8857600080fd5b50610463610a97366004613457565b611eb6565b348015610aa857600080fd5b5061041d610ab7366004613826565b6001600160a01b03918216600090815260056020908152604080832093909416825291909152205460ff1690565b348015610af157600080fd5b50610463610b00366004613457565b611ec3565b348015610b1157600080fd5b506103ea60105481565b348015610b2757600080fd5b50610463610b36366004613304565b612156565b610463610b4936600461349c565b6121cf565b60006001600160e01b0319821663780e9d6360e01b1480610b735750610b738261256c565b92915050565b600c5460ff16610ba45760405162461bcd60e51b8152600401610b9b90613854565b60405180910390fd5b6012546001600160a01b0316610bee5760405162461bcd60e51b815260206004820152600f60248201526e13d4151bdad95b881b9bdd081cd95d608a1b6044820152606401610b9b565b6002610bf8611cfc565b6005811115610c0957610c0961354a565b14610c565760405162461bcd60e51b815260206004820152601a60248201527f57686974656c697374206d696e74206e6f7420737461727465640000000000006044820152606401610b9b565b600d5483600e54610c679190613892565b1115610c855760405162461bcd60e51b8152600401610b9b906138aa565b601d54336000908152610bda6020526040902054610ca4908590613892565b1115610cc25760405162461bcd60e51b8152600401610b9b906138aa565b60008311610ce25760405162461bcd60e51b8152600401610b9b906138df565b610d5782828080602002602001604051908101604052809392919081815260200183836020028082843760009201919091525050601f546040516bffffffffffffffffffffffff193360601b1660208201529092506034019050604051602081830303815290604052805190602001206125bc565b610da35760405162461bcd60e51b815260206004820152601a60248201527f41646472657373206973206e6f742077686974656c69737465640000000000006044820152606401610b9b565b6012546018546001600160a01b03909116906323b872dd9033903090610dca908890613916565b6040516001600160e01b031960e086901b1681526001600160a01b0393841660048201529290911660248301526044820152606401602060405180830381600087803b158015610e1957600080fd5b505af1158015610e2d573d6000803e3d6000fd5b505050506040513d601f19601f82011682018060405250810190610e519190613935565b5082600e6000828254610e649190613892565b9091555050336000908152610bda602052604081208054859290610e89908490613892565b90915550600090505b83811015610ed6576000610ea46125d2565b6000818152610bd960205260409020600190559050610ec333826125ed565b5080610ece81613952565b915050610e92565b50505050565b606060008054610eeb9061396d565b80601f0160208091040260200160405190810160405280929190818152602001828054610f179061396d565b8015610f645780601f10610f3957610100808354040283529160200191610f64565b820191906000526020600020905b815481529060010190602001808311610f4757829003601f168201915b5050505050905090565b6000610f7982612607565b506000908152600460205260409020546001600160a01b031690565b6000610fa0826118eb565b9050806001600160a01b0316836001600160a01b0316141561100e5760405162461bcd60e51b815260206004820152602160248201527f4552433732313a20617070726f76616c20746f2063757272656e74206f776e656044820152603960f91b6064820152608401610b9b565b336001600160a01b038216148061102a575061102a8133610ab7565b61109c5760405162461bcd60e51b815260206004820152603e60248201527f4552433732313a20617070726f76652063616c6c6572206973206e6f7420746f60448201527f6b656e206f776e6572206e6f7220617070726f76656420666f7220616c6c00006064820152608401610b9b565b6110a68383612666565b505050565b600c5460ff166110cd5760405162461bcd60e51b8152600401610b9b90613854565b6016546001600160a01b03166111185760405162461bcd60e51b815260206004820152601060248201526f135d5d1859d95b8cc81b9bdd081cd95d60821b6044820152606401610b9b565b6016546040516331a9108f60e11b81526004810184905233916001600160a01b031690636352211e9060240160206040518083038186803b15801561115c57600080fd5b505afa158015611170573d6000803e3d6000fd5b505050506040513d601f19601f8201168201806040525081019061119491906139a8565b6001600160a01b0316146111ba5760405162461bcd60e51b8152600401610b9b906139c5565b336111c4826118eb565b6001600160a01b03161461121a5760405162461bcd60e51b815260206004820152601c60248201527f43616c6c6572206973206e6f74206f776e6572206f66204d4f415943000000006044820152606401610b9b565b6000818152610bd960205260409020546002146112795760405162461bcd60e51b815260206004820152601d60248201527f43616e206e6f74206c766c33206d75746174652074686973204f4159430000006044820152606401610b9b565b6004611283611cfc565b60058111156112945761129461354a565b146112b15760405162461bcd60e51b8152600401610b9b906139fa565b6000818152610bd9602052604081206003905560118054916112d283613952565b9091555050601080549060006112e783613a28565b9091555050601654604051630852cd8d60e31b8152600481018490526001600160a01b03909116906342966c68906024015b600060405180830381600087803b15801561133357600080fd5b505af1158015611347573d6000803e3d6000fd5b505050505050565b6113576126d4565b600c805460ff19166001179055565b611370338261272e565b61138c5760405162461bcd60e51b8152600401610b9b90613a3f565b6110a68383836127ad565b61139f6126d4565b601e55565b6113ac6126d4565b601480546001600160a01b039485166001600160a01b031991821617909155601580549385169382169390931790925560168054919093169116179055565b60006113f683611ae1565b82106114585760405162461bcd60e51b815260206004820152602b60248201527f455243373231456e756d657261626c653a206f776e657220696e646578206f7560448201526a74206f6620626f756e647360a81b6064820152608401610b9b565b506001600160a01b03919091166000908152600660209081526040808320938352929052205490565b6114da604080516101408101909152806000815260200160008152602001600081526020016000815260200160001515815260200160008152602001600081526020016000815260200160008152602001600081525090565b6040518061014001604052806114ee611cfc565b60058111156114ff576114ff61354a565b8152601a546020820152601c546040820152601b546060820152600c5460ff1615156080820152600d5460a082015260c00161153a60085490565b815260200160185481526020016017548152602001601954815250905090565b6115626126d4565b6040514790339082156108fc029083906000818181858888f19350505050158015611591573d6000803e3d6000fd5b5050565b6110a683838360405180602001604052806000815250611cbd565b6115b86126d4565b601f55565b6115c56126d4565b601755565b600c5460ff166115ec5760405162461bcd60e51b8152600401610b9b90613854565b6015546001600160a01b03166116375760405162461bcd60e51b815260206004820152601060248201526f135d5d1859d95b8c881b9bdd081cd95d60821b6044820152606401610b9b565b6015546040516331a9108f60e11b81526004810184905233916001600160a01b031690636352211e9060240160206040518083038186803b15801561167b57600080fd5b505afa15801561168f573d6000803e3d6000fd5b505050506040513d601f19601f820116820180604052508101906116b391906139a8565b6001600160a01b0316146116d95760405162461bcd60e51b8152600401610b9b906139c5565b336116e3826118eb565b6001600160a01b0316146117395760405162461bcd60e51b815260206004820152601b60248201527f43616c6c6572206973206e6f74206f776e6572206f66204f41594300000000006044820152606401610b9b565b6000818152610bd960205260409020546001146117985760405162461bcd60e51b815260206004820152601d60248201527f43616e206e6f74206c766c32206d75746174652074686973204f4159430000006044820152606401610b9b565b60046117a2611cfc565b60058111156117b3576117b361354a565b146117d05760405162461bcd60e51b8152600401610b9b906139fa565b6000818152610bd9602052604081206002905560108054916117f183613952565b9091555050600f805490600061180683613a28565b9091555050601554604051630852cd8d60e31b8152600481018490526001600160a01b03909116906342966c6890602401611319565b600061184760085490565b82106118aa5760405162461bcd60e51b815260206004820152602c60248201527f455243373231456e756d657261626c653a20676c6f62616c20696e646578206f60448201526b7574206f6620626f756e647360a01b6064820152608401610b9b565b600882815481106118bd576118bd613a8d565b90600052602060002001549050919050565b6118d76126d4565b805161159190610bdc906020840190613256565b6000818152600260205260408120546001600160a01b031680610b735760405162461bcd60e51b8152602060048201526018602482015277115490cdcc8c4e881a5b9d985b1a59081d1bdad95b88125160421b6044820152606401610b9b565b6119536126d4565b600d5481600e546119649190613892565b11156119825760405162461bcd60e51b8152600401610b9b906138aa565b6000811180156119935750600a8111155b6119af5760405162461bcd60e51b8152600401610b9b906138df565b80600e60008282546119c19190613892565b90915550600090505b82811015610ed65760005b82811015611a3f5760006119e76125d2565b6000818152610bd960205260409020600190559050611a2c868685818110611a1157611a11613a8d565b9050602002016020810190611a269190613304565b826125ed565b5080611a3781613952565b9150506119d5565b5080611a4a81613952565b9150506119ca565b610bdc8054611a609061396d565b80601f0160208091040260200160405190810160405280929190818152602001828054611a8c9061396d565b8015611ad95780601f10611aae57610100808354040283529160200191611ad9565b820191906000526020600020905b815481529060010190602001808311611abc57829003601f168201915b505050505081565b60006001600160a01b038216611b4b5760405162461bcd60e51b815260206004820152602960248201527f4552433732313a2061646472657373207a65726f206973206e6f7420612076616044820152683634b21037bbb732b960b91b6064820152608401610b9b565b506001600160a01b031660009081526003602052604090205490565b611b6f6126d4565b611b796000612954565b565b611b836126d4565b601d55565b611b906126d4565b600c805460ff19169055565b611ba46126d4565b6040516370a0823160e01b81523060048201526001600160a01b0382169063a9059cbb90339083906370a082319060240160206040518083038186803b158015611bed57600080fd5b505afa158015611c01573d6000803e3d6000fd5b505050506040513d601f19601f82011682018060405250810190611c259190613aa3565b6040516001600160e01b031960e085901b1681526001600160a01b0390921660048301526024820152604401602060405180830381600087803b158015611c6b57600080fd5b505af1158015611c7f573d6000803e3d6000fd5b505050506040513d601f19601f820116820180604052508101906115919190613935565b606060018054610eeb9061396d565b6115913383836129a6565b611cc7338361272e565b611ce35760405162461bcd60e51b8152600401610b9b90613a3f565b610ed684848484612a75565b611cf76126d4565b601955565b600c5460009060ff16611d0f5750600090565b601b54429015801590611d245750601b548110155b15611d3157600491505090565b600d54600e5410611d4457600191505090565b601c5415801590611d575750601c548110155b15611d6457600391505090565b601a5415801590611d775750601a548110155b15611d8457600291505090565b600591505090565b611d946126d4565b601a92909255601c55601b55565b6000818152600260205260409020546060906001600160a01b0316611e215760405162461bcd60e51b815260206004820152602f60248201527f4552433732314d657461646174613a2055524920717565727920666f72206e6f60448201526e3732bc34b9ba32b73a103a37b5b2b760891b6064820152608401610b9b565b6000828152610bd96020526040812054611e3d90600190613abc565b600b54611e4a9190613916565b611e549084613892565b90506000610bdc8054611e669061396d565b905011611e825760405180602001604052806000815250611eaf565b610bdc611e8e82612aa8565b604051602001611e9f929190613aef565b6040516020818303038152906040525b9392505050565b611ebe6126d4565b601855565b600c5460ff16611ee55760405162461bcd60e51b8152600401610b9b90613854565b6012546001600160a01b0316611f2f5760405162461bcd60e51b815260206004820152600f60248201526e13d4151bdad95b881b9bdd081cd95d608a1b6044820152606401610b9b565b6003611f39611cfc565b6005811115611f4a57611f4a61354a565b14611f975760405162461bcd60e51b815260206004820152601760248201527f5075626c6963206d696e74206e6f7420737461727465640000000000000000006044820152606401610b9b565b600d5481600e54611fa89190613892565b1115611fc65760405162461bcd60e51b8152600401610b9b906138aa565b601e54336000908152610bdb6020526040902054611fe5908390613892565b11156120035760405162461bcd60e51b8152600401610b9b906138aa565b600081116120235760405162461bcd60e51b8152600401610b9b906138df565b6012546017546001600160a01b03909116906323b872dd903390309061204a908690613916565b6040516001600160e01b031960e086901b1681526001600160a01b0393841660048201529290911660248301526044820152606401602060405180830381600087803b15801561209957600080fd5b505af11580156120ad573d6000803e3d6000fd5b505050506040513d601f19601f820116820180604052508101906120d19190613935565b5080600e60008282546120e49190613892565b9091555050336000908152610bdb602052604081208054839290612109908490613892565b90915550600090505b818110156115915760006121246125d2565b6000818152610bd96020526040902060019055905061214333826125ed565b508061214e81613952565b915050612112565b61215e6126d4565b6001600160a01b0381166121c35760405162461bcd60e51b815260206004820152602660248201527f4f776e61626c653a206e6577206f776e657220697320746865207a65726f206160448201526564647265737360d01b6064820152608401610b9b565b6121cc81612954565b50565b600c5460ff166121f15760405162461bcd60e51b8152600401610b9b90613854565b6014546001600160a01b031661223c5760405162461bcd60e51b815260206004820152601060248201526f135d5d1859d95b8c481b9bdd081cd95d60821b6044820152606401610b9b565b6013546001600160a01b03166122835760405162461bcd60e51b815260206004820152600c60248201526b13d05650c81b9bdd081cd95d60a21b6044820152606401610b9b565b6014546040516331a9108f60e11b81526004810184905233916001600160a01b031690636352211e9060240160206040518083038186803b1580156122c757600080fd5b505afa1580156122db573d6000803e3d6000fd5b505050506040513d601f19601f820116820180604052508101906122ff91906139a8565b6001600160a01b0316146123255760405162461bcd60e51b8152600401610b9b906139c5565b6013546040516331a9108f60e11b81526004810183905233916001600160a01b031690636352211e9060240160206040518083038186803b15801561236957600080fd5b505afa15801561237d573d6000803e3d6000fd5b505050506040513d601f19601f820116820180604052508101906123a191906139a8565b6001600160a01b0316146123f75760405162461bcd60e51b815260206004820152601b60248201527f43616c6c6572206973206e6f74206f776e6572206f66204f41594300000000006044820152606401610b9b565b6019543410156124495760405162461bcd60e51b815260206004820152601760248201527f4e6f7420656e6f756768206574682061747461636865640000000000000000006044820152606401610b9b565b6000818152610bd96020526040902054156124a65760405162461bcd60e51b815260206004820152601d60248201527f43616e206e6f74206c766c31206d75746174652074686973204f4159430000006044820152606401610b9b565b60046124b0611cfc565b60058111156124c1576124c161354a565b146124de5760405162461bcd60e51b8152600401610b9b906139fa565b6000818152610bd96020526040812060019055600f8054916124ff83613952565b9091555050601454604051630852cd8d60e31b8152600481018490526001600160a01b03909116906342966c6890602401600060405180830381600087803b15801561254a57600080fd5b505af115801561255e573d6000803e3d6000fd5b5050505061159133826125ed565b60006001600160e01b031982166380ac58cd60e01b148061259d57506001600160e01b03198216635b5e139f60e01b145b80610b7357506301ffc9a760e01b6001600160e01b0319831614610b73565b6000826125c98584612ba6565b14949350505050565b60006125dc612bf3565b6125e890612710613892565b905090565b611591828260405180602001604052806000815250612d54565b6000818152600260205260409020546001600160a01b03166121cc5760405162461bcd60e51b8152602060048201526018602482015277115490cdcc8c4e881a5b9d985b1a59081d1bdad95b88125160421b6044820152606401610b9b565b600081815260046020526040902080546001600160a01b0319166001600160a01b038416908117909155819061269b826118eb565b6001600160a01b03167f8c5be1e5ebec7d5bd14f71427d1e84f3dd0314c0f7b2291e5b200ac8c7c3b92560405160405180910390a45050565b600a546001600160a01b03163314611b795760405162461bcd60e51b815260206004820181905260248201527f4f776e61626c653a2063616c6c6572206973206e6f7420746865206f776e65726044820152606401610b9b565b60008061273a836118eb565b9050806001600160a01b0316846001600160a01b0316148061278157506001600160a01b0380821660009081526005602090815260408083209388168352929052205460ff165b806127a55750836001600160a01b031661279a84610f6e565b6001600160a01b0316145b949350505050565b826001600160a01b03166127c0826118eb565b6001600160a01b0316146128245760405162461bcd60e51b815260206004820152602560248201527f4552433732313a207472616e736665722066726f6d20696e636f72726563742060448201526437bbb732b960d91b6064820152608401610b9b565b6001600160a01b0382166128865760405162461bcd60e51b8152602060048201526024808201527f4552433732313a207472616e7366657220746f20746865207a65726f206164646044820152637265737360e01b6064820152608401610b9b565b612891838383612d87565b61289c600082612666565b6001600160a01b03831660009081526003602052604081208054600192906128c5908490613abc565b90915550506001600160a01b03821660009081526003602052604081208054600192906128f3908490613892565b909155505060008181526002602052604080822080546001600160a01b0319166001600160a01b0386811691821790925591518493918716917fddf252ad1be2c89b69c2b068fc378daa952ba7f163c4a11628f55a4df523b3ef91a4505050565b600a80546001600160a01b038381166001600160a01b0319831681179093556040519116919082907f8be0079c531659141344cd1fd0a4f28419497f9722a3daafe3b4186f6b6457e090600090a35050565b816001600160a01b0316836001600160a01b03161415612a085760405162461bcd60e51b815260206004820152601960248201527f4552433732313a20617070726f766520746f2063616c6c6572000000000000006044820152606401610b9b565b6001600160a01b03838116600081815260056020908152604080832094871680845294825291829020805460ff191686151590811790915591519182527f17307eab39ab6107e8899845ad3d59bd9653f200f220920489ca2b5937696c31910160405180910390a3505050565b612a808484846127ad565b612a8c84848484612e3f565b610ed65760405162461bcd60e51b8152600401610b9b90613baa565b606081612acc5750506040805180820190915260018152600360fc1b602082015290565b8160005b8115612af65780612ae081613952565b9150612aef9050600a83613c12565b9150612ad0565b60008167ffffffffffffffff811115612b1157612b11613604565b6040519080825280601f01601f191660200182016040528015612b3b576020820181803683370190505b5090505b84156127a557612b50600183613abc565b9150612b5d600a86613c26565b612b68906030613892565b60f81b818381518110612b7d57612b7d613a8d565b60200101906001600160f81b031916908160001a905350612b9f600a86613c12565b9450612b3f565b600081815b8451811015612beb57612bd782868381518110612bca57612bca613a8d565b6020026020010151612f4c565b915080612be381613952565b915050612bab565b509392505050565b600080612c01600143613abc565b60208054914092506000919082612c1783613952565b90915550612c2790610bb8613abc565b905060008111612c675760405162461bcd60e51b815260206004820152600b60248201526a1b9bc81a591cc81b19599d60aa1b6044820152606401610b9b565b6000612c738284613c26565b9050602181610bb88110612c8957612c89613a8d565b0154612c955780612cac565b602181610bb88110612ca957612ca9613a8d565b01545b9350612cb9600185613892565b93506021612cc8600184613abc565b610bb88110612cd957612cd9613a8d565b015415612d05576021612ced600184613abc565b610bb88110612cfe57612cfe613a8d565b0154612d10565b612d10600183613abc565b61ffff16602182610bb88110612d2857612d28613a8d565b015560006021612d39600185613abc565b610bb88110612d4a57612d4a613a8d565b0155509192915050565b612d5e8383612f78565b612d6b6000848484612e3f565b6110a65760405162461bcd60e51b8152600401610b9b90613baa565b6001600160a01b038316612de257612ddd81600880546000838152600960205260408120829055600182018355919091527ff3f7a9fe364faab93b216da50a3214154f22a0a2b415b23a84c8169e8b636ee30155565b612e05565b816001600160a01b0316836001600160a01b031614612e0557612e0583826130c6565b6001600160a01b038216612e1c576110a681613163565b826001600160a01b0316826001600160a01b0316146110a6576110a68282613212565b60006001600160a01b0384163b15612f4157604051630a85bd0160e11b81526001600160a01b0385169063150b7a0290612e83903390899088908890600401613c3a565b602060405180830381600087803b158015612e9d57600080fd5b505af1925050508015612ecd575060408051601f3d908101601f19168201909252612eca91810190613c77565b60015b612f27573d808015612efb576040519150601f19603f3d011682016040523d82523d6000602084013e612f00565b606091505b508051612f1f5760405162461bcd60e51b8152600401610b9b90613baa565b805181602001fd5b6001600160e01b031916630a85bd0160e11b1490506127a5565b506001949350505050565b6000818310612f68576000828152602084905260409020611eaf565b5060009182526020526040902090565b6001600160a01b038216612fce5760405162461bcd60e51b815260206004820181905260248201527f4552433732313a206d696e7420746f20746865207a65726f20616464726573736044820152606401610b9b565b6000818152600260205260409020546001600160a01b0316156130335760405162461bcd60e51b815260206004820152601c60248201527f4552433732313a20746f6b656e20616c7265616479206d696e746564000000006044820152606401610b9b565b61303f60008383612d87565b6001600160a01b0382166000908152600360205260408120805460019290613068908490613892565b909155505060008181526002602052604080822080546001600160a01b0319166001600160a01b03861690811790915590518392907fddf252ad1be2c89b69c2b068fc378daa952ba7f163c4a11628f55a4df523b3ef908290a45050565b600060016130d384611ae1565b6130dd9190613abc565b600083815260076020526040902054909150808214613130576001600160a01b03841660009081526006602090815260408083208584528252808320548484528184208190558352600790915290208190555b5060009182526007602090815260408084208490556001600160a01b039094168352600681528383209183525290812055565b60085460009061317590600190613abc565b6000838152600960205260408120546008805493945090928490811061319d5761319d613a8d565b9060005260206000200154905080600883815481106131be576131be613a8d565b60009182526020808320909101929092558281526009909152604080822084905585825281205560088054806131f6576131f6613c94565b6001900381819060005260206000200160009055905550505050565b600061321d83611ae1565b6001600160a01b039093166000908152600660209081526040808320868452825280832085905593825260079052919091209190915550565b8280546132629061396d565b90600052602060002090601f01602090048101928261328457600085556132ca565b82601f1061329d57805160ff19168380011785556132ca565b828001600101855582156132ca579182015b828111156132ca5782518255916020019190600101906132af565b506132d69291506132da565b5090565b5b808211156132d657600081556001016132db565b6001600160a01b03811681146121cc57600080fd5b60006020828403121561331657600080fd5b8135611eaf816132ef565b6001600160e01b0319811681146121cc57600080fd5b60006020828403121561334957600080fd5b8135611eaf81613321565b60008083601f84011261336657600080fd5b50813567ffffffffffffffff81111561337e57600080fd5b6020830191508360208260051b850101111561339957600080fd5b9250929050565b6000806000604084860312156133b557600080fd5b83359250602084013567ffffffffffffffff8111156133d357600080fd5b6133df86828701613354565b9497909650939450505050565b60005b838110156134075781810151838201526020016133ef565b83811115610ed65750506000910152565b600081518084526134308160208601602086016133ec565b601f01601f19169290920160200192915050565b602081526000611eaf6020830184613418565b60006020828403121561346957600080fd5b5035919050565b6000806040838503121561348357600080fd5b823561348e816132ef565b946020939093013593505050565b600080604083850312156134af57600080fd5b50508035926020909101359150565b6000806000606084860312156134d357600080fd5b83356134de816132ef565b925060208401356134ee816132ef565b929592945050506040919091013590565b60008060006060848603121561351457600080fd5b833561351f816132ef565b9250602084013561352f816132ef565b9150604084013561353f816132ef565b809150509250925092565b634e487b7160e01b600052602160045260246000fd5b6006811061357e57634e487b7160e01b600052602160045260246000fd5b9052565b600061014082019050613596828451613560565b60208301516020830152604083015160408301526060830151606083015260808301516135c7608084018215159052565b5060a083015160a083015260c083015160c083015260e083015160e083015261010080840151818401525061012080840151818401525092915050565b634e487b7160e01b600052604160045260246000fd5b600067ffffffffffffffff8084111561363557613635613604565b604051601f8501601f19908116603f0116810190828211818310171561365d5761365d613604565b8160405280935085815286868601111561367657600080fd5b858560208301376000602087830101525050509392505050565b6000602082840312156136a257600080fd5b813567ffffffffffffffff8111156136b957600080fd5b8201601f810184136136ca57600080fd5b6127a58482356020840161361a565b6000806000604084860312156136ee57600080fd5b833567ffffffffffffffff81111561370557600080fd5b61371186828701613354565b909790965060209590950135949350505050565b80151581146121cc57600080fd5b6000806040838503121561374657600080fd5b8235613751816132ef565b9150602083013561376181613725565b809150509250929050565b6000806000806080858703121561378257600080fd5b843561378d816132ef565b9350602085013561379d816132ef565b925060408501359150606085013567ffffffffffffffff8111156137c057600080fd5b8501601f810187136137d157600080fd5b6137e08782356020840161361a565b91505092959194509250565b60208101610b738284613560565b60008060006060848603121561380f57600080fd5b505081359360208301359350604090920135919050565b6000806040838503121561383957600080fd5b8235613844816132ef565b91506020830135613761816132ef565b6020808252600e908201526d14d85b19481a5cc818db1bdcd95960921b604082015260600190565b634e487b7160e01b600052601160045260246000fd5b600082198211156138a5576138a561387c565b500190565b6020808252818101527f507572636861736520776f756c6420657863656564206d617820746f6b656e73604082015260600190565b6020808252601c908201527f496e76616c696420746f6b656e20636f756e7420737570706c69656400000000604082015260600190565b60008160001904831182151516156139305761393061387c565b500290565b60006020828403121561394757600080fd5b8151611eaf81613725565b60006000198214156139665761396661387c565b5060010190565b600181811c9082168061398157607f821691505b602082108114156139a257634e487b7160e01b600052602260045260246000fd5b50919050565b6000602082840312156139ba57600080fd5b8151611eaf816132ef565b6020808252818101527f43616c6c6572206973206e6f74206f776e6572206f66204d75746167656e2031604082015260600190565b602080825260149082015273135d5d185d1a5bdb881b9bdd081cdd185c9d195960621b604082015260600190565b600081613a3757613a3761387c565b506000190190565b6020808252602e908201527f4552433732313a2063616c6c6572206973206e6f7420746f6b656e206f776e6560408201526d1c881b9bdc88185c1c1c9bdd995960921b606082015260800190565b634e487b7160e01b600052603260045260246000fd5b600060208284031215613ab557600080fd5b5051919050565b600082821015613ace57613ace61387c565b500390565b60008151613ae58185602086016133ec565b9290920192915050565b600080845481600182811c915080831680613b0b57607f831692505b6020808410821415613b2b57634e487b7160e01b86526022600452602486fd5b818015613b3f5760018114613b5057613b7d565b60ff19861689528489019650613b7d565b60008b81526020902060005b86811015613b755781548b820152908501908301613b5c565b505084890196505b505050505050613ba1613b908286613ad3565b64173539b7b760d91b815260050190565b95945050505050565b60208082526032908201527f4552433732313a207472616e7366657220746f206e6f6e20455243373231526560408201527131b2b4bb32b91034b6b83632b6b2b73a32b960711b606082015260800190565b634e487b7160e01b600052601260045260246000fd5b600082613c2157613c21613bfc565b500490565b600082613c3557613c35613bfc565b500690565b6001600160a01b0385811682528416602082015260408101839052608060608201819052600090613c6d90830184613418565b9695505050505050565b600060208284031215613c8957600080fd5b8151611eaf81613321565b634e487b7160e01b600052603160045260246000fdfea26469706673582212206324be926e65881dc1df92fa3fb254a455a91be25a8332a8bb139872599120c564736f6c63430008090033",
  "linkReferences": {},
  "deployedLinkReferences": {}
}