{
  "_format": "hh-sol-artifact-1",
  "contractName": "Mutagen",
  "sourceName": "contracts/Mutagen.sol",
  "abi": [
    {
      "inputs": [
        {
          "internalType": "string",
          "name": "name",
          "type": "string"
        },
        {
          "internalType": "string",
          "name": "symbol",
          "type": "string"
        }
      ],
      "stateMutability": "nonpayable",
      "type": "constructor"
    },
    {
      "anonymous": false,
      "inputs": [
        {
          "indexed": true,
          "internalType": "address",
          "name": "owner",
          "type": "address"
        },
        {
          "indexed": true,
          "internalType": "address",
          "name": "approved",
          "type": "address"
        },
        {
          "indexed": true,
          "internalType": "uint256",
          "name": "tokenId",
          "type": "uint256"
        }
      ],
      "name": "Approval",
      "type": "event"
    },
    {
      "anonymous": false,
      "inputs": [
        {
          "indexed": true,
          "internalType": "address",
          "name": "owner",
          "type": "address"
        },
        {
          "indexed": true,
          "internalType": "address",
          "name": "operator",
          "type": "address"
        },
        {
          "indexed": false,
          "internalType": "bool",
          "name": "approved",
          "type": "bool"
        }
      ],
      "name": "ApprovalForAll",
      "type": "event"
    },
    {
      "anonymous": false,
      "inputs": [
        {
          "indexed": true,
          "internalType": "address",
          "name": "previousOwner",
          "type": "address"
        },
        {
          "indexed": true,
          "internalType": "address",
          "name": "newOwner",
          "type": "address"
        }
      ],
      "name": "OwnershipTransferred",
      "type": "event"
    },
    {
      "anonymous": false,
      "inputs": [
        {
          "indexed": true,
          "internalType": "address",
          "name": "from",
          "type": "address"
        },
        {
          "indexed": true,
          "internalType": "address",
          "name": "to",
          "type": "address"
        },
        {
          "indexed": true,
          "internalType": "uint256",
          "name": "tokenId",
          "type": "uint256"
        }
      ],
      "name": "Transfer",
      "type": "event"
    },
    {
      "inputs": [],
      "name": "CONTRACT",
      "outputs": [
        {
          "internalType": "address",
          "name": "",
          "type": "address"
        }
      ],
      "stateMutability": "view",
      "type": "function"
    },
    {
      "inputs": [
        {
          "internalType": "address",
          "name": "to",
          "type": "address"
        },
        {
          "internalType": "uint256",
          "name": "tokenId",
          "type": "uint256"
        }
      ],
      "name": "approve",
      "outputs": [],
      "stateMutability": "nonpayable",
      "type": "function"
    },
    {
      "inputs": [
        {
          "internalType": "address",
          "name": "owner",
          "type": "address"
        }
      ],
      "name": "balanceOf",
      "outputs": [
        {
          "internalType": "uint256",
          "name": "",
          "type": "uint256"
        }
      ],
      "stateMutability": "view",
      "type": "function"
    },
    {
      "inputs": [],
      "name": "baseURI",
      "outputs": [
        {
          "internalType": "string",
          "name": "",
          "type": "string"
        }
      ],
      "stateMutability": "view",
      "type": "function"
    },
    {
      "inputs": [
        {
          "internalType": "uint256",
          "name": "tokenId",
          "type": "uint256"
        }
      ],
      "name": "burn",
      "outputs": [],
      "stateMutability": "nonpayable",
      "type": "function"
    },
    {
      "inputs": [
        {
          "internalType": "uint256",
          "name": "tokenId",
          "type": "uint256"
        }
      ],
      "name": "getApproved",
      "outputs": [
        {
          "internalType": "address",
          "name": "",
          "type": "address"
        }
      ],
      "stateMutability": "view",
      "type": "function"
    },
    {
      "inputs": [
        {
          "internalType": "address",
          "name": "owner",
          "type": "address"
        },
        {
          "internalType": "address",
          "name": "operator",
          "type": "address"
        }
      ],
      "name": "isApprovedForAll",
      "outputs": [
        {
          "internalType": "bool",
          "name": "",
          "type": "bool"
        }
      ],
      "stateMutability": "view",
      "type": "function"
    },
    {
      "inputs": [
        {
          "internalType": "address[]",
          "name": "addresses",
          "type": "address[]"
        },
        {
          "internalType": "uint256",
          "name": "_tokenCount",
          "type": "uint256"
        }
      ],
      "name": "mint",
      "outputs": [],
      "stateMutability": "nonpayable",
      "type": "function"
    },
    {
      "inputs": [],
      "name": "name",
      "outputs": [
        {
          "internalType": "string",
          "name": "",
          "type": "string"
        }
      ],
      "stateMutability": "view",
      "type": "function"
    },
    {
      "inputs": [],
      "name": "owner",
      "outputs": [
        {
          "internalType": "address",
          "name": "",
          "type": "address"
        }
      ],
      "stateMutability": "view",
      "type": "function"
    },
    {
      "inputs": [
        {
          "internalType": "uint256",
          "name": "tokenId",
          "type": "uint256"
        }
      ],
      "name": "ownerOf",
      "outputs": [
        {
          "internalType": "address",
          "name": "",
          "type": "address"
        }
      ],
      "stateMutability": "view",
      "type": "function"
    },
    {
      "inputs": [],
      "name": "renounceOwnership",
      "outputs": [],
      "stateMutability": "nonpayable",
      "type": "function"
    },
    {
      "inputs": [
        {
          "internalType": "address",
          "name": "from",
          "type": "address"
        },
        {
          "internalType": "address",
          "name": "to",
          "type": "address"
        },
        {
          "internalType": "uint256",
          "name": "tokenId",
          "type": "uint256"
        }
      ],
      "name": "safeTransferFrom",
      "outputs": [],
      "stateMutability": "nonpayable",
      "type": "function"
    },
    {
      "inputs": [
        {
          "internalType": "address",
          "name": "from",
          "type": "address"
        },
        {
          "internalType": "address",
          "name": "to",
          "type": "address"
        },
        {
          "internalType": "uint256",
          "name": "tokenId",
          "type": "uint256"
        },
        {
          "internalType": "bytes",
          "name": "data",
          "type": "bytes"
        }
      ],
      "name": "safeTransferFrom",
      "outputs": [],
      "stateMutability": "nonpayable",
      "type": "function"
    },
    {
      "inputs": [
        {
          "internalType": "address",
          "name": "operator",
          "type": "address"
        },
        {
          "internalType": "bool",
          "name": "approved",
          "type": "bool"
        }
      ],
      "name": "setApprovalForAll",
      "outputs": [],
      "stateMutability": "nonpayable",
      "type": "function"
    },
    {
      "inputs": [
        {
          "internalType": "string",
          "name": "_uri",
          "type": "string"
        }
      ],
      "name": "setBaseURI",
      "outputs": [],
      "stateMutability": "nonpayable",
      "type": "function"
    },
    {
      "inputs": [
        {
          "internalType": "address",
          "name": "_contract",
          "type": "address"
        }
      ],
      "name": "setContract",
      "outputs": [],
      "stateMutability": "nonpayable",
      "type": "function"
    },
    {
      "inputs": [
        {
          "internalType": "bytes4",
          "name": "interfaceId",
          "type": "bytes4"
        }
      ],
      "name": "supportsInterface",
      "outputs": [
        {
          "internalType": "bool",
          "name": "",
          "type": "bool"
        }
      ],
      "stateMutability": "view",
      "type": "function"
    },
    {
      "inputs": [],
      "name": "symbol",
      "outputs": [
        {
          "internalType": "string",
          "name": "",
          "type": "string"
        }
      ],
      "stateMutability": "view",
      "type": "function"
    },
    {
      "inputs": [
        {
          "internalType": "uint256",
          "name": "index",
          "type": "uint256"
        }
      ],
      "name": "tokenByIndex",
      "outputs": [
        {
          "internalType": "uint256",
          "name": "",
          "type": "uint256"
        }
      ],
      "stateMutability": "view",
      "type": "function"
    },
    {
      "inputs": [
        {
          "internalType": "address",
          "name": "owner",
          "type": "address"
        },
        {
          "internalType": "uint256",
          "name": "index",
          "type": "uint256"
        }
      ],
      "name": "tokenOfOwnerByIndex",
      "outputs": [
        {
          "internalType": "uint256",
          "name": "",
          "type": "uint256"
        }
      ],
      "stateMutability": "view",
      "type": "function"
    },
    {
      "inputs": [
        {
          "internalType": "uint256",
          "name": "tokenId",
          "type": "uint256"
        }
      ],
      "name": "tokenURI",
      "outputs": [
        {
          "internalType": "string",
          "name": "",
          "type": "string"
        }
      ],
      "stateMutability": "view",
      "type": "function"
    },
    {
      "inputs": [],
      "name": "totalSupply",
      "outputs": [
        {
          "internalType": "uint256",
          "name": "",
          "type": "uint256"
        }
      ],
      "stateMutability": "view",
      "type": "function"
    },
    {
      "inputs": [
        {
          "internalType": "address",
          "name": "from",
          "type": "address"
        },
        {
          "internalType": "address",
          "name": "to",
          "type": "address"
        },
        {
          "internalType": "uint256",
          "name": "tokenId",
          "type": "uint256"
        }
      ],
      "name": "transferFrom",
      "outputs": [],
      "stateMutability": "nonpayable",
      "type": "function"
    },
    {
      "inputs": [
        {
          "internalType": "address",
          "name": "newOwner",
          "type": "address"
        }
      ],
      "name": "transferOwnership",
      "outputs": [],
      "stateMutability": "nonpayable",
      "type": "function"
    }
  ],
  "bytecode": "0x60806040526001600d553480156200001657600080fd5b506040516200214938038062002149833981016040819052620000399162000256565b81518290829062000052906000906020850190620000e3565b50805162000068906001906020840190620000e3565b505050620000856200007f6200008d60201b60201c565b62000091565b5050620002fd565b3390565b600a80546001600160a01b038381166001600160a01b0319831681179093556040519116919082907f8be0079c531659141344cd1fd0a4f28419497f9722a3daafe3b4186f6b6457e090600090a35050565b828054620000f190620002c0565b90600052602060002090601f01602090048101928262000115576000855562000160565b82601f106200013057805160ff191683800117855562000160565b8280016001018555821562000160579182015b828111156200016057825182559160200191906001019062000143565b506200016e92915062000172565b5090565b5b808211156200016e576000815560010162000173565b634e487b7160e01b600052604160045260246000fd5b600082601f830112620001b157600080fd5b81516001600160401b0380821115620001ce57620001ce62000189565b604051601f8301601f19908116603f01168101908282118183101715620001f957620001f962000189565b816040528381526020925086838588010111156200021657600080fd5b600091505b838210156200023a57858201830151818301840152908201906200021b565b838211156200024c5760008385830101525b9695505050505050565b600080604083850312156200026a57600080fd5b82516001600160401b03808211156200028257600080fd5b62000290868387016200019f565b93506020850151915080821115620002a757600080fd5b50620002b6858286016200019f565b9150509250929050565b600181811c90821680620002d557607f821691505b60208210811415620002f757634e487b7160e01b600052602260045260246000fd5b50919050565b611e3c806200030d6000396000f3fe608060405234801561001057600080fd5b50600436106101735760003560e01c80636c0360eb116100de578063a22cb46511610097578063e985e9c511610071578063e985e9c514610314578063ea66696c14610350578063f2fde38b14610363578063fc833ac61461037657600080fd5b8063a22cb465146102db578063b88d4fde146102ee578063c87b56dd1461030157600080fd5b80636c0360eb1461028c57806370a0823114610294578063715018a6146102a757806375f890ab146102af5780638da5cb5b146102c257806395d89b41146102d357600080fd5b80632f745c59116101305780632f745c591461021a57806342842e0e1461022d57806342966c68146102405780634f6ccce71461025357806355f804b3146102665780636352211e1461027957600080fd5b806301ffc9a71461017857806306fdde03146101a0578063081812fc146101b5578063095ea7b3146101e057806318160ddd146101f557806323b872dd14610207575b600080fd5b61018b6101863660046117b7565b610389565b60405190151581526020015b60405180910390f35b6101a86103b4565b604051610197919061182c565b6101c86101c336600461183f565b610446565b6040516001600160a01b039091168152602001610197565b6101f36101ee366004611874565b61046d565b005b6008545b604051908152602001610197565b6101f361021536600461189e565b610588565b6101f9610228366004611874565b6105b9565b6101f361023b36600461189e565b61064f565b6101f361024e36600461183f565b61066a565b6101f961026136600461183f565b61067e565b6101f3610274366004611966565b610711565b6101c861028736600461183f565b610730565b6101a8610790565b6101f96102a23660046119af565b61081e565b6101f36108a4565b6101f36102bd3660046119af565b6108b8565b600a546001600160a01b03166101c8565b6101a86108e2565b6101f36102e93660046119ca565b6108f1565b6101f36102fc366004611a06565b6108fc565b6101a861030f36600461183f565b610934565b61018b610322366004611a82565b6001600160a01b03918216600090815260056020908152604080832093909416825291909152205460ff1690565b6101f361035e366004611ab5565b610a37565b6101f36103713660046119af565b610abd565b600c546101c8906001600160a01b031681565b60006001600160e01b0319821663780e9d6360e01b14806103ae57506103ae82610b33565b92915050565b6060600080546103c390611b30565b80601f01602080910402602001604051908101604052809291908181526020018280546103ef90611b30565b801561043c5780601f106104115761010080835404028352916020019161043c565b820191906000526020600020905b81548152906001019060200180831161041f57829003601f168201915b5050505050905090565b600061045182610b83565b506000908152600460205260409020546001600160a01b031690565b600061047882610730565b9050806001600160a01b0316836001600160a01b031614156104eb5760405162461bcd60e51b815260206004820152602160248201527f4552433732313a20617070726f76616c20746f2063757272656e74206f776e656044820152603960f91b60648201526084015b60405180910390fd5b336001600160a01b038216148061050757506105078133610322565b6105795760405162461bcd60e51b815260206004820152603e60248201527f4552433732313a20617070726f76652063616c6c6572206973206e6f7420746f60448201527f6b656e206f776e6572206e6f7220617070726f76656420666f7220616c6c000060648201526084016104e2565b6105838383610be2565b505050565b6105923382610c50565b6105ae5760405162461bcd60e51b81526004016104e290611b6b565b610583838383610ccf565b60006105c48361081e565b82106106265760405162461bcd60e51b815260206004820152602b60248201527f455243373231456e756d657261626c653a206f776e657220696e646578206f7560448201526a74206f6620626f756e647360a81b60648201526084016104e2565b506001600160a01b03919091166000908152600660209081526040808320938352929052205490565b610583838383604051806020016040528060008152506108fc565b610672610e76565b61067b81610ec5565b50565b600061068960085490565b82106106ec5760405162461bcd60e51b815260206004820152602c60248201527f455243373231456e756d657261626c653a20676c6f62616c20696e646578206f60448201526b7574206f6620626f756e647360a01b60648201526084016104e2565b600882815481106106ff576106ff611bb9565b90600052602060002001549050919050565b610719610f6c565b805161072c90600b906020840190611708565b5050565b6000818152600260205260408120546001600160a01b0316806103ae5760405162461bcd60e51b8152602060048201526018602482015277115490cdcc8c4e881a5b9d985b1a59081d1bdad95b88125160421b60448201526064016104e2565b600b805461079d90611b30565b80601f01602080910402602001604051908101604052809291908181526020018280546107c990611b30565b80156108165780601f106107eb57610100808354040283529160200191610816565b820191906000526020600020905b8154815290600101906020018083116107f957829003601f168201915b505050505081565b60006001600160a01b0382166108885760405162461bcd60e51b815260206004820152602960248201527f4552433732313a2061646472657373207a65726f206973206e6f7420612076616044820152683634b21037bbb732b960b91b60648201526084016104e2565b506001600160a01b031660009081526003602052604090205490565b6108ac610f6c565b6108b66000610fc6565b565b6108c0610f6c565b600c80546001600160a01b0319166001600160a01b0392909216919091179055565b6060600180546103c390611b30565b61072c338383611018565b6109063383610c50565b6109225760405162461bcd60e51b81526004016104e290611b6b565b61092e848484846110e7565b50505050565b6000818152600260205260409020546060906001600160a01b03166109b35760405162461bcd60e51b815260206004820152602f60248201527f4552433732314d657461646174613a2055524920717565727920666f72206e6f60448201526e3732bc34b9ba32b73a103a37b5b2b760891b60648201526084016104e2565b600060036109c2600185611be5565b6109cc9190611c12565b6109d7906001611c26565b90506000600b80546109e890611b30565b905011610a045760405180602001604052806000815250610a30565b600b610a0f8261111a565b604051602001610a20929190611c5a565b6040516020818303038152906040525b9392505050565b610a3f610f6c565b60005b8281101561092e5760005b82811015610aaa57610a98858584818110610a6a57610a6a611bb9565b9050602002016020810190610a7f91906119af565b600d8054906000610a8f83611d15565b91905055611218565b80610aa281611d15565b915050610a4d565b5080610ab581611d15565b915050610a42565b610ac5610f6c565b6001600160a01b038116610b2a5760405162461bcd60e51b815260206004820152602660248201527f4f776e61626c653a206e6577206f776e657220697320746865207a65726f206160448201526564647265737360d01b60648201526084016104e2565b61067b81610fc6565b60006001600160e01b031982166380ac58cd60e01b1480610b6457506001600160e01b03198216635b5e139f60e01b145b806103ae57506301ffc9a760e01b6001600160e01b03198316146103ae565b6000818152600260205260409020546001600160a01b031661067b5760405162461bcd60e51b8152602060048201526018602482015277115490cdcc8c4e881a5b9d985b1a59081d1bdad95b88125160421b60448201526064016104e2565b600081815260046020526040902080546001600160a01b0319166001600160a01b0384169081179091558190610c1782610730565b6001600160a01b03167f8c5be1e5ebec7d5bd14f71427d1e84f3dd0314c0f7b2291e5b200ac8c7c3b92560405160405180910390a45050565b600080610c5c83610730565b9050806001600160a01b0316846001600160a01b03161480610ca357506001600160a01b0380821660009081526005602090815260408083209388168352929052205460ff165b80610cc75750836001600160a01b0316610cbc84610446565b6001600160a01b0316145b949350505050565b826001600160a01b0316610ce282610730565b6001600160a01b031614610d465760405162461bcd60e51b815260206004820152602560248201527f4552433732313a207472616e736665722066726f6d20696e636f72726563742060448201526437bbb732b960d91b60648201526084016104e2565b6001600160a01b038216610da85760405162461bcd60e51b8152602060048201526024808201527f4552433732313a207472616e7366657220746f20746865207a65726f206164646044820152637265737360e01b60648201526084016104e2565b610db3838383611232565b610dbe600082610be2565b6001600160a01b0383166000908152600360205260408120805460019290610de7908490611be5565b90915550506001600160a01b0382166000908152600360205260408120805460019290610e15908490611c26565b909155505060008181526002602052604080822080546001600160a01b0319166001600160a01b0386811691821790925591518493918716917fddf252ad1be2c89b69c2b068fc378daa952ba7f163c4a11628f55a4df523b3ef91a4505050565b600c546001600160a01b031633146108b65760405162461bcd60e51b815260206004820152601260248201527143616c6c6572206973206e6f74204f41594360701b60448201526064016104e2565b6000610ed082610730565b9050610ede81600084611232565b610ee9600083610be2565b6001600160a01b0381166000908152600360205260408120805460019290610f12908490611be5565b909155505060008281526002602052604080822080546001600160a01b0319169055518391906001600160a01b038416907fddf252ad1be2c89b69c2b068fc378daa952ba7f163c4a11628f55a4df523b3ef908390a45050565b600a546001600160a01b031633146108b65760405162461bcd60e51b815260206004820181905260248201527f4f776e61626c653a2063616c6c6572206973206e6f7420746865206f776e657260448201526064016104e2565b600a80546001600160a01b038381166001600160a01b0319831681179093556040519116919082907f8be0079c531659141344cd1fd0a4f28419497f9722a3daafe3b4186f6b6457e090600090a35050565b816001600160a01b0316836001600160a01b0316141561107a5760405162461bcd60e51b815260206004820152601960248201527f4552433732313a20617070726f766520746f2063616c6c65720000000000000060448201526064016104e2565b6001600160a01b03838116600081815260056020908152604080832094871680845294825291829020805460ff191686151590811790915591519182527f17307eab39ab6107e8899845ad3d59bd9653f200f220920489ca2b5937696c31910160405180910390a3505050565b6110f2848484610ccf565b6110fe848484846112ea565b61092e5760405162461bcd60e51b81526004016104e290611d30565b60608161113e5750506040805180820190915260018152600360fc1b602082015290565b8160005b8115611168578061115281611d15565b91506111619050600a83611d82565b9150611142565b60008167ffffffffffffffff811115611183576111836118da565b6040519080825280601f01601f1916602001820160405280156111ad576020820181803683370190505b5090505b8415610cc7576111c2600183611be5565b91506111cf600a86611c12565b6111da906030611c26565b60f81b8183815181106111ef576111ef611bb9565b60200101906001600160f81b031916908160001a905350611211600a86611d82565b94506111b1565b61072c8282604051806020016040528060008152506113f7565b6001600160a01b03831661128d5761128881600880546000838152600960205260408120829055600182018355919091527ff3f7a9fe364faab93b216da50a3214154f22a0a2b415b23a84c8169e8b636ee30155565b6112b0565b816001600160a01b0316836001600160a01b0316146112b0576112b0838261142a565b6001600160a01b0382166112c757610583816114c7565b826001600160a01b0316826001600160a01b031614610583576105838282611576565b60006001600160a01b0384163b156113ec57604051630a85bd0160e11b81526001600160a01b0385169063150b7a029061132e903390899088908890600401611d96565b602060405180830381600087803b15801561134857600080fd5b505af1925050508015611378575060408051601f3d908101601f1916820190925261137591810190611dd3565b60015b6113d2573d8080156113a6576040519150601f19603f3d011682016040523d82523d6000602084013e6113ab565b606091505b5080516113ca5760405162461bcd60e51b81526004016104e290611d30565b805181602001fd5b6001600160e01b031916630a85bd0160e11b149050610cc7565b506001949350505050565b61140183836115ba565b61140e60008484846112ea565b6105835760405162461bcd60e51b81526004016104e290611d30565b600060016114378461081e565b6114419190611be5565b600083815260076020526040902054909150808214611494576001600160a01b03841660009081526006602090815260408083208584528252808320548484528184208190558352600790915290208190555b5060009182526007602090815260408084208490556001600160a01b039094168352600681528383209183525290812055565b6008546000906114d990600190611be5565b6000838152600960205260408120546008805493945090928490811061150157611501611bb9565b90600052602060002001549050806008838154811061152257611522611bb9565b600091825260208083209091019290925582815260099091526040808220849055858252812055600880548061155a5761155a611df0565b6001900381819060005260206000200160009055905550505050565b60006115818361081e565b6001600160a01b039093166000908152600660209081526040808320868452825280832085905593825260079052919091209190915550565b6001600160a01b0382166116105760405162461bcd60e51b815260206004820181905260248201527f4552433732313a206d696e7420746f20746865207a65726f206164647265737360448201526064016104e2565b6000818152600260205260409020546001600160a01b0316156116755760405162461bcd60e51b815260206004820152601c60248201527f4552433732313a20746f6b656e20616c7265616479206d696e7465640000000060448201526064016104e2565b61168160008383611232565b6001600160a01b03821660009081526003602052604081208054600192906116aa908490611c26565b909155505060008181526002602052604080822080546001600160a01b0319166001600160a01b03861690811790915590518392907fddf252ad1be2c89b69c2b068fc378daa952ba7f163c4a11628f55a4df523b3ef908290a45050565b82805461171490611b30565b90600052602060002090601f016020900481019282611736576000855561177c565b82601f1061174f57805160ff191683800117855561177c565b8280016001018555821561177c579182015b8281111561177c578251825591602001919060010190611761565b5061178892915061178c565b5090565b5b80821115611788576000815560010161178d565b6001600160e01b03198116811461067b57600080fd5b6000602082840312156117c957600080fd5b8135610a30816117a1565b60005b838110156117ef5781810151838201526020016117d7565b8381111561092e5750506000910152565b600081518084526118188160208601602086016117d4565b601f01601f19169290920160200192915050565b602081526000610a306020830184611800565b60006020828403121561185157600080fd5b5035919050565b80356001600160a01b038116811461186f57600080fd5b919050565b6000806040838503121561188757600080fd5b61189083611858565b946020939093013593505050565b6000806000606084860312156118b357600080fd5b6118bc84611858565b92506118ca60208501611858565b9150604084013590509250925092565b634e487b7160e01b600052604160045260246000fd5b600067ffffffffffffffff8084111561190b5761190b6118da565b604051601f8501601f19908116603f01168101908282118183101715611933576119336118da565b8160405280935085815286868601111561194c57600080fd5b858560208301376000602087830101525050509392505050565b60006020828403121561197857600080fd5b813567ffffffffffffffff81111561198f57600080fd5b8201601f810184136119a057600080fd5b610cc7848235602084016118f0565b6000602082840312156119c157600080fd5b610a3082611858565b600080604083850312156119dd57600080fd5b6119e683611858565b9150602083013580151581146119fb57600080fd5b809150509250929050565b60008060008060808587031215611a1c57600080fd5b611a2585611858565b9350611a3360208601611858565b925060408501359150606085013567ffffffffffffffff811115611a5657600080fd5b8501601f81018713611a6757600080fd5b611a76878235602084016118f0565b91505092959194509250565b60008060408385031215611a9557600080fd5b611a9e83611858565b9150611aac60208401611858565b90509250929050565b600080600060408486031215611aca57600080fd5b833567ffffffffffffffff80821115611ae257600080fd5b818601915086601f830112611af657600080fd5b813581811115611b0557600080fd5b8760208260051b8501011115611b1a57600080fd5b6020928301989097509590910135949350505050565b600181811c90821680611b4457607f821691505b60208210811415611b6557634e487b7160e01b600052602260045260246000fd5b50919050565b6020808252602e908201527f4552433732313a2063616c6c6572206973206e6f7420746f6b656e206f776e6560408201526d1c881b9bdc88185c1c1c9bdd995960921b606082015260800190565b634e487b7160e01b600052603260045260246000fd5b634e487b7160e01b600052601160045260246000fd5b600082821015611bf757611bf7611bcf565b500390565b634e487b7160e01b600052601260045260246000fd5b600082611c2157611c21611bfc565b500690565b60008219821115611c3957611c39611bcf565b500190565b60008151611c508185602086016117d4565b9290920192915050565b600080845481600182811c915080831680611c7657607f831692505b6020808410821415611c9657634e487b7160e01b86526022600452602486fd5b818015611caa5760018114611cbb57611ce8565b60ff19861689528489019650611ce8565b60008b81526020902060005b86811015611ce05781548b820152908501908301611cc7565b505084890196505b505050505050611d0c611cfb8286611c3e565b64173539b7b760d91b815260050190565b95945050505050565b6000600019821415611d2957611d29611bcf565b5060010190565b60208082526032908201527f4552433732313a207472616e7366657220746f206e6f6e20455243373231526560408201527131b2b4bb32b91034b6b83632b6b2b73a32b960711b606082015260800190565b600082611d9157611d91611bfc565b500490565b6001600160a01b0385811682528416602082015260408101839052608060608201819052600090611dc990830184611800565b9695505050505050565b600060208284031215611de557600080fd5b8151610a30816117a1565b634e487b7160e01b600052603160045260246000fdfea26469706673582212208ec66c9a1eb042e66e619d22cac6deb52361b3f926a016295dee61da21f9612264736f6c63430008090033",
  "linkReferences": {},
  "deployedLinkReferences": {}
}