{
  "_format": "hh-sol-artifact-1",
  "contractName": "Mutant",
  "sourceName": "contracts/Mutant.sol",
  "abi": [
    {
      "inputs": [
        {
          "internalType": "string",
          "name": "name",
          "type": "string"
        },
        {
          "internalType": "string",
          "name": "symbol",
          "type": "string"
        },
        {
          "internalType": "contract IERC20",
          "name": "_op",
          "type": "address"
        },
        {
          "internalType": "contract IERC721",
          "name": "_oayc",
          "type": "address"
        }
      ],
      "stateMutability": "nonpayable",
      "type": "constructor"
    },
    {
      "anonymous": false,
      "inputs": [
        {
          "indexed": true,
          "internalType": "address",
          "name": "owner",
          "type": "address"
        },
        {
          "indexed": true,
          "internalType": "address",
          "name": "approved",
          "type": "address"
        },
        {
          "indexed": true,
          "internalType": "uint256",
          "name": "tokenId",
          "type": "uint256"
        }
      ],
      "name": "Approval",
      "type": "event"
    },
    {
      "anonymous": false,
      "inputs": [
        {
          "indexed": true,
          "internalType": "address",
          "name": "owner",
          "type": "address"
        },
        {
          "indexed": true,
          "internalType": "address",
          "name": "operator",
          "type": "address"
        },
        {
          "indexed": false,
          "internalType": "bool",
          "name": "approved",
          "type": "bool"
        }
      ],
      "name": "ApprovalForAll",
      "type": "event"
    },
    {
      "anonymous": false,
      "inputs": [
        {
          "indexed": true,
          "internalType": "address",
          "name": "previousOwner",
          "type": "address"
        },
        {
          "indexed": true,
          "internalType": "address",
          "name": "newOwner",
          "type": "address"
        }
      ],
      "name": "OwnershipTransferred",
      "type": "event"
    },
    {
      "anonymous": false,
      "inputs": [
        {
          "indexed": true,
          "internalType": "address",
          "name": "from",
          "type": "address"
        },
        {
          "indexed": true,
          "internalType": "address",
          "name": "to",
          "type": "address"
        },
        {
          "indexed": true,
          "internalType": "uint256",
          "name": "tokenId",
          "type": "uint256"
        }
      ],
      "name": "Transfer",
      "type": "event"
    },
    {
      "inputs": [],
      "name": "OAYC",
      "outputs": [
        {
          "internalType": "contract IERC721",
          "name": "",
          "type": "address"
        }
      ],
      "stateMutability": "view",
      "type": "function"
    },
    {
      "inputs": [],
      "name": "OPToken",
      "outputs": [
        {
          "internalType": "contract IERC20",
          "name": "",
          "type": "address"
        }
      ],
      "stateMutability": "view",
      "type": "function"
    },
    {
      "inputs": [
        {
          "internalType": "address",
          "name": "to",
          "type": "address"
        },
        {
          "internalType": "uint256",
          "name": "tokenId",
          "type": "uint256"
        }
      ],
      "name": "approve",
      "outputs": [],
      "stateMutability": "nonpayable",
      "type": "function"
    },
    {
      "inputs": [
        {
          "internalType": "address",
          "name": "owner",
          "type": "address"
        }
      ],
      "name": "balanceOf",
      "outputs": [
        {
          "internalType": "uint256",
          "name": "",
          "type": "uint256"
        }
      ],
      "stateMutability": "view",
      "type": "function"
    },
    {
      "inputs": [],
      "name": "baseURI",
      "outputs": [
        {
          "internalType": "string",
          "name": "",
          "type": "string"
        }
      ],
      "stateMutability": "view",
      "type": "function"
    },
    {
      "inputs": [
        {
          "internalType": "uint256",
          "name": "_tokenCount",
          "type": "uint256"
        }
      ],
      "name": "claim",
      "outputs": [],
      "stateMutability": "nonpayable",
      "type": "function"
    },
    {
      "inputs": [
        {
          "internalType": "uint256",
          "name": "tokenId",
          "type": "uint256"
        }
      ],
      "name": "getApproved",
      "outputs": [
        {
          "internalType": "address",
          "name": "",
          "type": "address"
        }
      ],
      "stateMutability": "view",
      "type": "function"
    },
    {
      "inputs": [],
      "name": "info",
      "outputs": [
        {
          "components": [
            {
              "internalType": "enum Mutant.Status",
              "name": "stage",
              "type": "uint8"
            },
            {
              "internalType": "uint256",
              "name": "whiteListStart",
              "type": "uint256"
            },
            {
              "internalType": "uint256",
              "name": "publicStart",
              "type": "uint256"
            },
            {
              "internalType": "uint256",
              "name": "mutationStart",
              "type": "uint256"
            },
            {
              "internalType": "bool",
              "name": "saleOpen",
              "type": "bool"
            },
            {
              "internalType": "uint256",
              "name": "supply",
              "type": "uint256"
            },
            {
              "internalType": "uint256",
              "name": "minted",
              "type": "uint256"
            },
            {
              "internalType": "uint256",
              "name": "pricePerTokenWl",
              "type": "uint256"
            },
            {
              "internalType": "uint256",
              "name": "pricePerTokenPublic",
              "type": "uint256"
            },
            {
              "internalType": "uint256",
              "name": "mutationPrice",
              "type": "uint256"
            }
          ],
          "internalType": "struct Mutant.Info",
          "name": "",
          "type": "tuple"
        }
      ],
      "stateMutability": "view",
      "type": "function"
    },
    {
      "inputs": [
        {
          "internalType": "address",
          "name": "owner",
          "type": "address"
        },
        {
          "internalType": "address",
          "name": "operator",
          "type": "address"
        }
      ],
      "name": "isApprovedForAll",
      "outputs": [
        {
          "internalType": "bool",
          "name": "",
          "type": "bool"
        }
      ],
      "stateMutability": "view",
      "type": "function"
    },
    {
      "inputs": [],
      "name": "lvl1MutationCounter",
      "outputs": [
        {
          "internalType": "uint256",
          "name": "",
          "type": "uint256"
        }
      ],
      "stateMutability": "view",
      "type": "function"
    },
    {
      "inputs": [],
      "name": "lvl2MutationCounter",
      "outputs": [
        {
          "internalType": "uint256",
          "name": "",
          "type": "uint256"
        }
      ],
      "stateMutability": "view",
      "type": "function"
    },
    {
      "inputs": [],
      "name": "lvl3MutationCounter",
      "outputs": [
        {
          "internalType": "uint256",
          "name": "",
          "type": "uint256"
        }
      ],
      "stateMutability": "view",
      "type": "function"
    },
    {
      "inputs": [],
      "name": "maxWhitelistMint",
      "outputs": [
        {
          "internalType": "uint256",
          "name": "",
          "type": "uint256"
        }
      ],
      "stateMutability": "view",
      "type": "function"
    },
    {
      "inputs": [
        {
          "internalType": "uint256",
          "name": "_tokenCount",
          "type": "uint256"
        }
      ],
      "name": "mintPublic",
      "outputs": [],
      "stateMutability": "nonpayable",
      "type": "function"
    },
    {
      "inputs": [
        {
          "internalType": "uint256",
          "name": "_tokenCount",
          "type": "uint256"
        },
        {
          "internalType": "bytes32[]",
          "name": "_merkleProof",
          "type": "bytes32[]"
        }
      ],
      "name": "mintWhitelist",
      "outputs": [],
      "stateMutability": "nonpayable",
      "type": "function"
    },
    {
      "inputs": [],
      "name": "mutagen1",
      "outputs": [
        {
          "internalType": "contract Mutagen",
          "name": "",
          "type": "address"
        }
      ],
      "stateMutability": "view",
      "type": "function"
    },
    {
      "inputs": [],
      "name": "mutagen2",
      "outputs": [
        {
          "internalType": "contract Mutagen",
          "name": "",
          "type": "address"
        }
      ],
      "stateMutability": "view",
      "type": "function"
    },
    {
      "inputs": [],
      "name": "mutagen3",
      "outputs": [
        {
          "internalType": "contract Mutagen",
          "name": "",
          "type": "address"
        }
      ],
      "stateMutability": "view",
      "type": "function"
    },
    {
      "inputs": [
        {
          "internalType": "uint256",
          "name": "_mutagen1",
          "type": "uint256"
        },
        {
          "internalType": "uint256",
          "name": "_oayc",
          "type": "uint256"
        }
      ],
      "name": "mutate1",
      "outputs": [],
      "stateMutability": "payable",
      "type": "function"
    },
    {
      "inputs": [
        {
          "internalType": "uint256",
          "name": "_mutagen2",
          "type": "uint256"
        },
        {
          "internalType": "uint256",
          "name": "_moayc",
          "type": "uint256"
        }
      ],
      "name": "mutate2",
      "outputs": [],
      "stateMutability": "nonpayable",
      "type": "function"
    },
    {
      "inputs": [
        {
          "internalType": "uint256",
          "name": "_mutagen3",
          "type": "uint256"
        },
        {
          "internalType": "uint256",
          "name": "_moayc",
          "type": "uint256"
        }
      ],
      "name": "mutate3",
      "outputs": [],
      "stateMutability": "nonpayable",
      "type": "function"
    },
    {
      "inputs": [
        {
          "internalType": "uint256",
          "name": "",
          "type": "uint256"
        }
      ],
      "name": "mutationLvl",
      "outputs": [
        {
          "internalType": "uint256",
          "name": "",
          "type": "uint256"
        }
      ],
      "stateMutability": "view",
      "type": "function"
    },
    {
      "inputs": [],
      "name": "mutationPrice",
      "outputs": [
        {
          "internalType": "uint256",
          "name": "",
          "type": "uint256"
        }
      ],
      "stateMutability": "view",
      "type": "function"
    },
    {
      "inputs": [],
      "name": "mutationStart",
      "outputs": [
        {
          "internalType": "uint256",
          "name": "",
          "type": "uint256"
        }
      ],
      "stateMutability": "view",
      "type": "function"
    },
    {
      "inputs": [],
      "name": "name",
      "outputs": [
        {
          "internalType": "string",
          "name": "",
          "type": "string"
        }
      ],
      "stateMutability": "view",
      "type": "function"
    },
    {
      "inputs": [],
      "name": "owner",
      "outputs": [
        {
          "internalType": "address",
          "name": "",
          "type": "address"
        }
      ],
      "stateMutability": "view",
      "type": "function"
    },
    {
      "inputs": [
        {
          "internalType": "uint256",
          "name": "tokenId",
          "type": "uint256"
        }
      ],
      "name": "ownerOf",
      "outputs": [
        {
          "internalType": "address",
          "name": "",
          "type": "address"
        }
      ],
      "stateMutability": "view",
      "type": "function"
    },
    {
      "inputs": [],
      "name": "pricePerTokenPublic",
      "outputs": [
        {
          "internalType": "uint256",
          "name": "",
          "type": "uint256"
        }
      ],
      "stateMutability": "view",
      "type": "function"
    },
    {
      "inputs": [],
      "name": "pricePerTokenWl",
      "outputs": [
        {
          "internalType": "uint256",
          "name": "",
          "type": "uint256"
        }
      ],
      "stateMutability": "view",
      "type": "function"
    },
    {
      "inputs": [],
      "name": "publicMintCounter",
      "outputs": [
        {
          "internalType": "uint256",
          "name": "",
          "type": "uint256"
        }
      ],
      "stateMutability": "view",
      "type": "function"
    },
    {
      "inputs": [],
      "name": "publicStart",
      "outputs": [
        {
          "internalType": "uint256",
          "name": "",
          "type": "uint256"
        }
      ],
      "stateMutability": "view",
      "type": "function"
    },
    {
      "inputs": [
        {
          "internalType": "address[]",
          "name": "_addresses",
          "type": "address[]"
        }
      ],
      "name": "removeChosenOnes",
      "outputs": [],
      "stateMutability": "nonpayable",
      "type": "function"
    },
    {
      "inputs": [],
      "name": "renounceOwnership",
      "outputs": [],
      "stateMutability": "nonpayable",
      "type": "function"
    },
    {
      "inputs": [
        {
          "internalType": "address",
          "name": "from",
          "type": "address"
        },
        {
          "internalType": "address",
          "name": "to",
          "type": "address"
        },
        {
          "internalType": "uint256",
          "name": "tokenId",
          "type": "uint256"
        }
      ],
      "name": "safeTransferFrom",
      "outputs": [],
      "stateMutability": "nonpayable",
      "type": "function"
    },
    {
      "inputs": [
        {
          "internalType": "address",
          "name": "from",
          "type": "address"
        },
        {
          "internalType": "address",
          "name": "to",
          "type": "address"
        },
        {
          "internalType": "uint256",
          "name": "tokenId",
          "type": "uint256"
        },
        {
          "internalType": "bytes",
          "name": "data",
          "type": "bytes"
        }
      ],
      "name": "safeTransferFrom",
      "outputs": [],
      "stateMutability": "nonpayable",
      "type": "function"
    },
    {
      "inputs": [],
      "name": "saleOpen",
      "outputs": [
        {
          "internalType": "bool",
          "name": "",
          "type": "bool"
        }
      ],
      "stateMutability": "view",
      "type": "function"
    },
    {
      "inputs": [
        {
          "internalType": "address",
          "name": "operator",
          "type": "address"
        },
        {
          "internalType": "bool",
          "name": "approved",
          "type": "bool"
        }
      ],
      "name": "setApprovalForAll",
      "outputs": [],
      "stateMutability": "nonpayable",
      "type": "function"
    },
    {
      "inputs": [
        {
          "internalType": "string",
          "name": "_uri",
          "type": "string"
        }
      ],
      "name": "setBaseURI",
      "outputs": [],
      "stateMutability": "nonpayable",
      "type": "function"
    },
    {
      "inputs": [
        {
          "internalType": "address[]",
          "name": "_addresses",
          "type": "address[]"
        }
      ],
      "name": "setChosenOnes",
      "outputs": [],
      "stateMutability": "nonpayable",
      "type": "function"
    },
    {
      "inputs": [
        {
          "internalType": "contract Mutagen",
          "name": "_mutagen1",
          "type": "address"
        },
        {
          "internalType": "contract Mutagen",
          "name": "_mutagen2",
          "type": "address"
        },
        {
          "internalType": "contract Mutagen",
          "name": "_mutagen3",
          "type": "address"
        }
      ],
      "name": "setMutagens",
      "outputs": [],
      "stateMutability": "nonpayable",
      "type": "function"
    },
    {
      "inputs": [
        {
          "internalType": "uint256",
          "name": "_price",
          "type": "uint256"
        }
      ],
      "name": "setPricePublic",
      "outputs": [],
      "stateMutability": "nonpayable",
      "type": "function"
    },
    {
      "inputs": [
        {
          "internalType": "uint256",
          "name": "_price",
          "type": "uint256"
        }
      ],
      "name": "setPriceWl",
      "outputs": [],
      "stateMutability": "nonpayable",
      "type": "function"
    },
    {
      "inputs": [],
      "name": "setSaleClose",
      "outputs": [],
      "stateMutability": "nonpayable",
      "type": "function"
    },
    {
      "inputs": [],
      "name": "setSaleOpen",
      "outputs": [],
      "stateMutability": "nonpayable",
      "type": "function"
    },
    {
      "inputs": [
        {
          "internalType": "uint256",
          "name": "_whiteListStart",
          "type": "uint256"
        },
        {
          "internalType": "uint256",
          "name": "_publicStart",
          "type": "uint256"
        },
        {
          "internalType": "uint256",
          "name": "_mutationStart",
          "type": "uint256"
        }
      ],
      "name": "setSaleStart",
      "outputs": [],
      "stateMutability": "nonpayable",
      "type": "function"
    },
    {
      "inputs": [
        {
          "internalType": "bytes32",
          "name": "_merkleRoot",
          "type": "bytes32"
        }
      ],
      "name": "setWhiteListRoot",
      "outputs": [],
      "stateMutability": "nonpayable",
      "type": "function"
    },
    {
      "inputs": [],
      "name": "stage",
      "outputs": [
        {
          "internalType": "enum Mutant.Status",
          "name": "",
          "type": "uint8"
        }
      ],
      "stateMutability": "view",
      "type": "function"
    },
    {
      "inputs": [],
      "name": "supply",
      "outputs": [
        {
          "internalType": "uint256",
          "name": "",
          "type": "uint256"
        }
      ],
      "stateMutability": "view",
      "type": "function"
    },
    {
      "inputs": [
        {
          "internalType": "bytes4",
          "name": "interfaceId",
          "type": "bytes4"
        }
      ],
      "name": "supportsInterface",
      "outputs": [
        {
          "internalType": "bool",
          "name": "",
          "type": "bool"
        }
      ],
      "stateMutability": "view",
      "type": "function"
    },
    {
      "inputs": [],
      "name": "symbol",
      "outputs": [
        {
          "internalType": "string",
          "name": "",
          "type": "string"
        }
      ],
      "stateMutability": "view",
      "type": "function"
    },
    {
      "inputs": [
        {
          "internalType": "uint256",
          "name": "index",
          "type": "uint256"
        }
      ],
      "name": "tokenByIndex",
      "outputs": [
        {
          "internalType": "uint256",
          "name": "",
          "type": "uint256"
        }
      ],
      "stateMutability": "view",
      "type": "function"
    },
    {
      "inputs": [
        {
          "internalType": "address",
          "name": "owner",
          "type": "address"
        },
        {
          "internalType": "uint256",
          "name": "index",
          "type": "uint256"
        }
      ],
      "name": "tokenOfOwnerByIndex",
      "outputs": [
        {
          "internalType": "uint256",
          "name": "",
          "type": "uint256"
        }
      ],
      "stateMutability": "view",
      "type": "function"
    },
    {
      "inputs": [
        {
          "internalType": "uint256",
          "name": "tokenId",
          "type": "uint256"
        }
      ],
      "name": "tokenURI",
      "outputs": [
        {
          "internalType": "string",
          "name": "",
          "type": "string"
        }
      ],
      "stateMutability": "view",
      "type": "function"
    },
    {
      "inputs": [],
      "name": "totalSupply",
      "outputs": [
        {
          "internalType": "uint256",
          "name": "",
          "type": "uint256"
        }
      ],
      "stateMutability": "view",
      "type": "function"
    },
    {
      "inputs": [
        {
          "internalType": "address",
          "name": "from",
          "type": "address"
        },
        {
          "internalType": "address",
          "name": "to",
          "type": "address"
        },
        {
          "internalType": "uint256",
          "name": "tokenId",
          "type": "uint256"
        }
      ],
      "name": "transferFrom",
      "outputs": [],
      "stateMutability": "nonpayable",
      "type": "function"
    },
    {
      "inputs": [
        {
          "internalType": "address",
          "name": "newOwner",
          "type": "address"
        }
      ],
      "name": "transferOwnership",
      "outputs": [],
      "stateMutability": "nonpayable",
      "type": "function"
    },
    {
      "inputs": [],
      "name": "whiteListStart",
      "outputs": [
        {
          "internalType": "uint256",
          "name": "",
          "type": "uint256"
        }
      ],
      "stateMutability": "view",
      "type": "function"
    },
    {
      "inputs": [],
      "name": "withdraw",
      "outputs": [],
      "stateMutability": "nonpayable",
      "type": "function"
    },
    {
      "inputs": [
        {
          "internalType": "contract IERC20",
          "name": "_token",
          "type": "address"
        }
      ],
      "name": "withdrawToken",
      "outputs": [],
      "stateMutability": "nonpayable",
      "type": "function"
    }
  ],
  "bytecode": "0x6080604052610bb8600b556000600c556000600d556000600e556000600f55678ac7230489e80000601555676f05b59d3b200000601655662386f26fc100006017556003601b553480156200005357600080fd5b5060405162004080380380620040808339810160408190526200007691620002d9565b8351849084906200008f9060009060208501906200014d565b508051620000a59060019060208401906200014d565b505050620000c2620000bc620000f760201b60201c565b620000fb565b601080546001600160a01b039384166001600160a01b0319918216179091556011805492909316911617905550620003aa9050565b3390565b600a80546001600160a01b038381166001600160a01b0319831681179093556040519116919082907f8be0079c531659141344cd1fd0a4f28419497f9722a3daafe3b4186f6b6457e090600090a35050565b8280546200015b906200036d565b90600052602060002090601f0160209004810192826200017f5760008555620001ca565b82601f106200019a57805160ff1916838001178555620001ca565b82800160010185558215620001ca579182015b82811115620001ca578251825591602001919060010190620001ad565b50620001d8929150620001dc565b5090565b5b80821115620001d85760008155600101620001dd565b634e487b7160e01b600052604160045260246000fd5b600082601f8301126200021b57600080fd5b81516001600160401b0380821115620002385762000238620001f3565b604051601f8301601f19908116603f01168101908282118183101715620002635762000263620001f3565b816040528381526020925086838588010111156200028057600080fd5b600091505b83821015620002a4578582018301518183018401529082019062000285565b83821115620002b65760008385830101525b9695505050505050565b6001600160a01b0381168114620002d657600080fd5b50565b60008060008060808587031215620002f057600080fd5b84516001600160401b03808211156200030857600080fd5b620003168883890162000209565b955060208701519150808211156200032d57600080fd5b506200033c8782880162000209565b93505060408501516200034f81620002c0565b60608601519092506200036281620002c0565b939692955090935050565b600181811c908216806200038257607f821691505b60208210811415620003a457634e487b7160e01b600052602260045260246000fd5b50919050565b613cc680620003ba6000396000f3fe60806040526004361061038c5760003560e01c80636c0360eb116101dc578063a5f4c6ff11610102578063d442c444116100a0578063efd0cbf91161006f578063efd0cbf914610a2f578063f1c0fc8f14610a4f578063f2fde38b14610a65578063fb2faa8014610a8557600080fd5b8063d442c44414610990578063e2dd2995146109b0578063e4ff8e42146109c6578063e985e9c5146109e657600080fd5b8063c040e6b8116100dc578063c040e6b81461090e578063c48bfc9c14610930578063c87b56dd14610950578063c977871c1461097057600080fd5b8063a5f4c6ff146108c2578063b3e40469146108d8578063b88d4fde146108ee57600080fd5b806388eae7051161017a57806395d89b411161014957806395d89b411461083e5780639634a6ee1461085357806399288dbb14610881578063a22cb465146108a257600080fd5b806388eae705146107d457806389476069146107ea5780638da5cb5b1461080a5780639437908e1461082857600080fd5b8063715018a6116101b6578063715018a61461076a578063733bf9311461077f5780637de861ae1461079f578063882c02b7146107b457600080fd5b80636c0360eb1461071f5780636e33a1651461073457806370a082311461074a57600080fd5b80632f745c59116102c157806342842e0e1161025f5780634f6ccce71161022e5780634f6ccce71461069f57806355f804b3146106bf5780636352211e146106df57806363a553d5146106ff57600080fd5b806342842e0e1461061f57806345149bb31461063f5780634530a8321461065f578063483483521461067f57600080fd5b8063379607f51161029b578063379607f5146105be5780633ccfd60b146105de5780633eda15de146105f357806341596c2c1461060957600080fd5b80632f745c5914610566578063309a368614610586578063370158ea1461059c57600080fd5b806318160ddd1161032e57806323b872dd1161030857806323b872dd146104e65780632dfdd244146105065780632eb97c43146105265780632f08c9341461054657600080fd5b806318160ddd146104a65780631974c998146104bb57806319dad680146104d157600080fd5b806306fdde031161036a57806306fdde031461040c578063081812fc1461042e578063095ea7b3146104665780630e11602a1461048657600080fd5b806301ffc9a714610391578063047fc9aa146103c6578063061431a8146103ea575b600080fd5b34801561039d57600080fd5b506103b16103ac3660046132f5565b610a98565b60405190151581526020015b60405180910390f35b3480156103d257600080fd5b506103dc600b5481565b6040519081526020016103bd565b3480156103f657600080fd5b5061040a61040536600461335e565b610ac3565b005b34801561041857600080fd5b50610421610e2d565b6040516103bd9190613402565b34801561043a57600080fd5b5061044e610449366004613415565b610ebf565b6040516001600160a01b0390911681526020016103bd565b34801561047257600080fd5b5061040a610481366004613443565b610ee6565b34801561049257600080fd5b5061040a6104a136600461346f565b610ffc565b3480156104b257600080fd5b506008546103dc565b3480156104c757600080fd5b506103dc60175481565b3480156104dd57600080fd5b5061040a6112a7565b3480156104f257600080fd5b5061040a610501366004613491565b6112c4565b34801561051257600080fd5b5060105461044e906001600160a01b031681565b34801561053257600080fd5b5060135461044e906001600160a01b031681565b34801561055257600080fd5b5061040a6105613660046134d2565b6112f5565b34801561057257600080fd5b506103dc610581366004613443565b61133c565b34801561059257600080fd5b506103dc601b5481565b3480156105a857600080fd5b506105b16113d2565b6040516103bd9190613555565b3480156105ca57600080fd5b5061040a6105d9366004613415565b6114b3565b3480156105ea57600080fd5b5061040a6115c5565b3480156105ff57600080fd5b506103dc60165481565b34801561061557600080fd5b506103dc60155481565b34801561062b57600080fd5b5061040a61063a366004613491565b6115fc565b34801561064b57600080fd5b5061040a61065a366004613415565b611617565b34801561066b57600080fd5b5061040a61067a366004613415565b611624565b34801561068b57600080fd5b5061040a61069a36600461346f565b611631565b3480156106ab57600080fd5b506103dc6106ba366004613415565b6118aa565b3480156106cb57600080fd5b5061040a6106da366004613663565b61193d565b3480156106eb57600080fd5b5061044e6106fa366004613415565b611959565b34801561070b57600080fd5b5060125461044e906001600160a01b031681565b34801561072b57600080fd5b506104216119b9565b34801561074057600080fd5b506103dc600d5481565b34801561075657600080fd5b506103dc6107653660046136ac565b611a48565b34801561077657600080fd5b5061040a611ace565b34801561078b57600080fd5b5061040a61079a3660046136c9565b611ae2565b3480156107ab57600080fd5b5061040a611b54565b3480156107c057600080fd5b5060145461044e906001600160a01b031681565b3480156107e057600080fd5b506103dc60185481565b3480156107f657600080fd5b5061040a6108053660046136ac565b611b6b565b34801561081657600080fd5b50600a546001600160a01b031661044e565b34801561083457600080fd5b506103dc600c5481565b34801561084a57600080fd5b50610421611c72565b34801561085f57600080fd5b506103dc61086e366004613415565b610bd66020526000908152604090205481565b34801561088d57600080fd5b50600a546103b190600160a01b900460ff1681565b3480156108ae57600080fd5b5061040a6108bd366004613719565b611c81565b3480156108ce57600080fd5b506103dc601a5481565b3480156108e457600080fd5b506103dc60195481565b3480156108fa57600080fd5b5061040a610909366004613752565b611c8c565b34801561091a57600080fd5b50610923611cbe565b6040516103bd91906137d2565b34801561093c57600080fd5b5061040a61094b3660046137e0565b611d55565b34801561095c57600080fd5b5061042161096b366004613415565b611d6b565b34801561097c57600080fd5b5061040a61098b3660046136c9565b611e7f565b34801561099c57600080fd5b5060115461044e906001600160a01b031681565b3480156109bc57600080fd5b506103dc600f5481565b3480156109d257600080fd5b5061040a6109e1366004613415565b611efa565b3480156109f257600080fd5b506103b1610a0136600461380c565b6001600160a01b03918216600090815260056020908152604080832093909416825291909152205460ff1690565b348015610a3b57600080fd5b5061040a610a4a366004613415565b611f07565b348015610a5b57600080fd5b506103dc600e5481565b348015610a7157600080fd5b5061040a610a803660046136ac565b61213f565b61040a610a9336600461346f565b6121b8565b60006001600160e01b0319821663780e9d6360e01b1480610abd5750610abd8261255c565b92915050565b600a54600160a01b900460ff16610af55760405162461bcd60e51b8152600401610aec9061383a565b60405180910390fd5b6010546001600160a01b0316610b3f5760405162461bcd60e51b815260206004820152600f60248201526e13d4151bdad95b881b9bdd081cd95d608a1b6044820152606401610aec565b6002610b49611cbe565b6005811115610b5a57610b5a61351d565b14610ba75760405162461bcd60e51b815260206004820152601a60248201527f57686974656c697374206d696e74206e6f7420737461727465640000000000006044820152606401610aec565b600b5483600c54610bb89190613878565b1115610bd65760405162461bcd60e51b8152600401610aec90613890565b601b54336000908152610bd86020526040902054610bf5908590613878565b1115610c135760405162461bcd60e51b8152600401610aec90613890565b60008311610c335760405162461bcd60e51b8152600401610aec906138c5565b610ca882828080602002602001604051908101604052809392919081815260200183836020028082843760009201919091525050601c546040516bffffffffffffffffffffffff193360601b1660208201529092506034019050604051602081830303815290604052805190602001206125ac565b610cf45760405162461bcd60e51b815260206004820152601a60248201527f41646472657373206973206e6f742077686974656c69737465640000000000006044820152606401610aec565b6010546016546001600160a01b03909116906323b872dd9033903090610d1b9088906138fc565b6040516001600160e01b031960e086901b1681526001600160a01b0393841660048201529290911660248301526044820152606401602060405180830381600087803b158015610d6a57600080fd5b505af1158015610d7e573d6000803e3d6000fd5b505050506040513d601f19601f82011682018060405250810190610da2919061391b565b5082600c6000828254610db59190613878565b9091555050336000908152610bd8602052604081208054859290610dda908490613878565b90915550600090505b83811015610e27576000610df56125c2565b6000818152610bd660205260409020600190559050610e1433826125dd565b5080610e1f81613938565b915050610de3565b50505050565b606060008054610e3c90613953565b80601f0160208091040260200160405190810160405280929190818152602001828054610e6890613953565b8015610eb55780601f10610e8a57610100808354040283529160200191610eb5565b820191906000526020600020905b815481529060010190602001808311610e9857829003601f168201915b5050505050905090565b6000610eca826125f7565b506000908152600460205260409020546001600160a01b031690565b6000610ef182611959565b9050806001600160a01b0316836001600160a01b03161415610f5f5760405162461bcd60e51b815260206004820152602160248201527f4552433732313a20617070726f76616c20746f2063757272656e74206f776e656044820152603960f91b6064820152608401610aec565b336001600160a01b0382161480610f7b5750610f7b8133610a01565b610fed5760405162461bcd60e51b815260206004820152603e60248201527f4552433732313a20617070726f76652063616c6c6572206973206e6f7420746f60448201527f6b656e206f776e6572206e6f7220617070726f76656420666f7220616c6c00006064820152608401610aec565b610ff78383612656565b505050565b600a54600160a01b900460ff166110255760405162461bcd60e51b8152600401610aec9061383a565b6014546001600160a01b03166110705760405162461bcd60e51b815260206004820152601060248201526f135d5d1859d95b8cc81b9bdd081cd95d60821b6044820152606401610aec565b6014546040516331a9108f60e11b81526004810184905233916001600160a01b031690636352211e9060240160206040518083038186803b1580156110b457600080fd5b505afa1580156110c8573d6000803e3d6000fd5b505050506040513d601f19601f820116820180604052508101906110ec919061398e565b6001600160a01b0316146111125760405162461bcd60e51b8152600401610aec906139ab565b3361111c82611959565b6001600160a01b0316146111725760405162461bcd60e51b815260206004820152601c60248201527f43616c6c6572206973206e6f74206f776e6572206f66204d4f415943000000006044820152606401610aec565b6000818152610bd660205260409020546002146111d15760405162461bcd60e51b815260206004820152601d60248201527f43616e206e6f74206c766c33206d75746174652074686973204f4159430000006044820152606401610aec565b60046111db611cbe565b60058111156111ec576111ec61351d565b146112095760405162461bcd60e51b8152600401610aec906139e0565b6000818152610bd66020526040812060039055600f80549161122a83613938565b9091555050600e805490600061123f83613a0e565b9091555050601454604051630852cd8d60e31b8152600481018490526001600160a01b03909116906342966c68906024015b600060405180830381600087803b15801561128b57600080fd5b505af115801561129f573d6000803e3d6000fd5b505050505050565b6112af6126c4565b600a805460ff60a01b1916600160a01b179055565b6112ce338261271e565b6112ea5760405162461bcd60e51b8152600401610aec90613a25565b610ff783838361279d565b6112fd6126c4565b601280546001600160a01b039485166001600160a01b031991821617909155601380549385169382169390931790925560148054919093169116179055565b600061134783611a48565b82106113a95760405162461bcd60e51b815260206004820152602b60248201527f455243373231456e756d657261626c653a206f776e657220696e646578206f7560448201526a74206f6620626f756e647360a81b6064820152608401610aec565b506001600160a01b03919091166000908152600660209081526040808320938352929052205490565b61142b604080516101408101909152806000815260200160008152602001600081526020016000815260200160001515815260200160008152602001600081526020016000815260200160008152602001600081525090565b60405180610140016040528061143f611cbe565b60058111156114505761145061351d565b81526018546020820152601a5460408201526019546060820152600a5460ff600160a01b9091041615156080820152600b5460a082015260c00161149360085490565b815260200160165481526020016015548152602001601754815250905090565b600b5481600c546114c49190613878565b11156114e25760405162461bcd60e51b8152600401610aec90613890565b600081116115025760405162461bcd60e51b8152600401610aec906138c5565b336000908152610bd7602052604090205460ff166115625760405162461bcd60e51b815260206004820152601960248201527f41646472657373206973206e6f742063686f73656e206f6e65000000000000006044820152606401610aec565b80600c60008282546115749190613878565b90915550600090505b818110156115c157600061158f6125c2565b6000818152610bd6602052604090206001905590506115ae33826125dd565b50806115b981613938565b91505061157d565b5050565b6115cd6126c4565b6040514790339082156108fc029083906000818181858888f193505050501580156115c1573d6000803e3d6000fd5b610ff783838360405180602001604052806000815250611c8c565b61161f6126c4565b601c55565b61162c6126c4565b601555565b600a54600160a01b900460ff1661165a5760405162461bcd60e51b8152600401610aec9061383a565b6013546001600160a01b03166116a55760405162461bcd60e51b815260206004820152601060248201526f135d5d1859d95b8c881b9bdd081cd95d60821b6044820152606401610aec565b6013546040516331a9108f60e11b81526004810184905233916001600160a01b031690636352211e9060240160206040518083038186803b1580156116e957600080fd5b505afa1580156116fd573d6000803e3d6000fd5b505050506040513d601f19601f82011682018060405250810190611721919061398e565b6001600160a01b0316146117475760405162461bcd60e51b8152600401610aec906139ab565b3361175182611959565b6001600160a01b0316146117a75760405162461bcd60e51b815260206004820152601b60248201527f43616c6c6572206973206e6f74206f776e6572206f66204f41594300000000006044820152606401610aec565b6000818152610bd660205260409020546001146118065760405162461bcd60e51b815260206004820152601d60248201527f43616e206e6f74206c766c32206d75746174652074686973204f4159430000006044820152606401610aec565b6004611810611cbe565b60058111156118215761182161351d565b1461183e5760405162461bcd60e51b8152600401610aec906139e0565b6000818152610bd66020526040812060029055600e80549161185f83613938565b9091555050600d805490600061187483613a0e565b9091555050601354604051630852cd8d60e31b8152600481018490526001600160a01b03909116906342966c6890602401611271565b60006118b560085490565b82106119185760405162461bcd60e51b815260206004820152602c60248201527f455243373231456e756d657261626c653a20676c6f62616c20696e646578206f60448201526b7574206f6620626f756e647360a01b6064820152608401610aec565b6008828154811061192b5761192b613a73565b90600052602060002001549050919050565b6119456126c4565b80516115c190610bd9906020840190613246565b6000818152600260205260408120546001600160a01b031680610abd5760405162461bcd60e51b8152602060048201526018602482015277115490cdcc8c4e881a5b9d985b1a59081d1bdad95b88125160421b6044820152606401610aec565b610bd980546119c790613953565b80601f01602080910402602001604051908101604052809291908181526020018280546119f390613953565b8015611a405780601f10611a1557610100808354040283529160200191611a40565b820191906000526020600020905b815481529060010190602001808311611a2357829003601f168201915b505050505081565b60006001600160a01b038216611ab25760405162461bcd60e51b815260206004820152602960248201527f4552433732313a2061646472657373207a65726f206973206e6f7420612076616044820152683634b21037bbb732b960b91b6064820152608401610aec565b506001600160a01b031660009081526003602052604090205490565b611ad66126c4565b611ae06000612944565b565b611aea6126c4565b60005b81811015610ff757610bd76000848484818110611b0c57611b0c613a73565b9050602002016020810190611b2191906136ac565b6001600160a01b031681526020810191909152604001600020805460ff1916905580611b4c81613938565b915050611aed565b611b5c6126c4565b600a805460ff60a01b19169055565b611b736126c4565b6040516370a0823160e01b81523060048201526001600160a01b0382169063a9059cbb90339083906370a082319060240160206040518083038186803b158015611bbc57600080fd5b505afa158015611bd0573d6000803e3d6000fd5b505050506040513d601f19601f82011682018060405250810190611bf49190613a89565b6040516001600160e01b031960e085901b1681526001600160a01b0390921660048301526024820152604401602060405180830381600087803b158015611c3a57600080fd5b505af1158015611c4e573d6000803e3d6000fd5b505050506040513d601f19601f820116820180604052508101906115c1919061391b565b606060018054610e3c90613953565b6115c1338383612996565b611c96338361271e565b611cb25760405162461bcd60e51b8152600401610aec90613a25565b610e2784848484612a65565b600a54600090600160a01b900460ff16611cd85750600090565b601954429015801590611ced57506019548110155b15611cfa57600491505090565b601a5415801590611d0d5750601a548110155b15611d2d57600b54600c5410611d2557600191505090565b600391505090565b60185415801590611d4057506018548110155b15611d4d57600291505090565b600591505090565b611d5d6126c4565b601892909255601a55601955565b6000818152600260205260409020546060906001600160a01b0316611dea5760405162461bcd60e51b815260206004820152602f60248201527f4552433732314d657461646174613a2055524920717565727920666f72206e6f60448201526e3732bc34b9ba32b73a103a37b5b2b760891b6064820152608401610aec565b6000828152610bd66020526040812054600190611e09906127106138fc565b611e139085613878565b611e1d9190613aa2565b90506000610bd98054611e2f90613953565b905011611e4b5760405180602001604052806000815250611e78565b610bd9611e5782612a98565b604051602001611e68929190613ad5565b6040516020818303038152906040525b9392505050565b611e876126c4565b60005b81811015610ff7576001610bd76000858585818110611eab57611eab613a73565b9050602002016020810190611ec091906136ac565b6001600160a01b031681526020810191909152604001600020805460ff191691151591909117905580611ef281613938565b915050611e8a565b611f026126c4565b601655565b600a54600160a01b900460ff16611f305760405162461bcd60e51b8152600401610aec9061383a565b6010546001600160a01b0316611f7a5760405162461bcd60e51b815260206004820152600f60248201526e13d4151bdad95b881b9bdd081cd95d608a1b6044820152606401610aec565b6003611f84611cbe565b6005811115611f9557611f9561351d565b14611fe25760405162461bcd60e51b815260206004820152601760248201527f5075626c6963206d696e74206e6f7420737461727465640000000000000000006044820152606401610aec565b600b5481600c54611ff39190613878565b11156120115760405162461bcd60e51b8152600401610aec90613890565b600081116120315760405162461bcd60e51b8152600401610aec906138c5565b6010546015546001600160a01b03909116906323b872dd90339030906120589086906138fc565b6040516001600160e01b031960e086901b1681526001600160a01b0393841660048201529290911660248301526044820152606401602060405180830381600087803b1580156120a757600080fd5b505af11580156120bb573d6000803e3d6000fd5b505050506040513d601f19601f820116820180604052508101906120df919061391b565b5080600c60008282546120f29190613878565b90915550600090505b818110156115c157600061210d6125c2565b6000818152610bd66020526040902060019055905061212c33826125dd565b508061213781613938565b9150506120fb565b6121476126c4565b6001600160a01b0381166121ac5760405162461bcd60e51b815260206004820152602660248201527f4f776e61626c653a206e6577206f776e657220697320746865207a65726f206160448201526564647265737360d01b6064820152608401610aec565b6121b581612944565b50565b600a54600160a01b900460ff166121e15760405162461bcd60e51b8152600401610aec9061383a565b6012546001600160a01b031661222c5760405162461bcd60e51b815260206004820152601060248201526f135d5d1859d95b8c481b9bdd081cd95d60821b6044820152606401610aec565b6011546001600160a01b03166122735760405162461bcd60e51b815260206004820152600c60248201526b13d05650c81b9bdd081cd95d60a21b6044820152606401610aec565b6012546040516331a9108f60e11b81526004810184905233916001600160a01b031690636352211e9060240160206040518083038186803b1580156122b757600080fd5b505afa1580156122cb573d6000803e3d6000fd5b505050506040513d601f19601f820116820180604052508101906122ef919061398e565b6001600160a01b0316146123155760405162461bcd60e51b8152600401610aec906139ab565b6011546040516331a9108f60e11b81526004810183905233916001600160a01b031690636352211e9060240160206040518083038186803b15801561235957600080fd5b505afa15801561236d573d6000803e3d6000fd5b505050506040513d601f19601f82011682018060405250810190612391919061398e565b6001600160a01b0316146123e75760405162461bcd60e51b815260206004820152601b60248201527f43616c6c6572206973206e6f74206f776e6572206f66204f41594300000000006044820152606401610aec565b6017543410156124395760405162461bcd60e51b815260206004820152601760248201527f4e6f7420656e6f756768206574682061747461636865640000000000000000006044820152606401610aec565b6000818152610bd66020526040902054156124965760405162461bcd60e51b815260206004820152601d60248201527f43616e206e6f74206c766c31206d75746174652074686973204f4159430000006044820152606401610aec565b60046124a0611cbe565b60058111156124b1576124b161351d565b146124ce5760405162461bcd60e51b8152600401610aec906139e0565b6000818152610bd66020526040812060019055600d8054916124ef83613938565b9091555050601254604051630852cd8d60e31b8152600481018490526001600160a01b03909116906342966c6890602401600060405180830381600087803b15801561253a57600080fd5b505af115801561254e573d6000803e3d6000fd5b505050506115c133826125dd565b60006001600160e01b031982166380ac58cd60e01b148061258d57506001600160e01b03198216635b5e139f60e01b145b80610abd57506301ffc9a760e01b6001600160e01b0319831614610abd565b6000826125b98584612b96565b14949350505050565b60006125cc612be3565b6125d890612710613878565b905090565b6115c1828260405180602001604052806000815250612d44565b6000818152600260205260409020546001600160a01b03166121b55760405162461bcd60e51b8152602060048201526018602482015277115490cdcc8c4e881a5b9d985b1a59081d1bdad95b88125160421b6044820152606401610aec565b600081815260046020526040902080546001600160a01b0319166001600160a01b038416908117909155819061268b82611959565b6001600160a01b03167f8c5be1e5ebec7d5bd14f71427d1e84f3dd0314c0f7b2291e5b200ac8c7c3b92560405160405180910390a45050565b600a546001600160a01b03163314611ae05760405162461bcd60e51b815260206004820181905260248201527f4f776e61626c653a2063616c6c6572206973206e6f7420746865206f776e65726044820152606401610aec565b60008061272a83611959565b9050806001600160a01b0316846001600160a01b0316148061277157506001600160a01b0380821660009081526005602090815260408083209388168352929052205460ff165b806127955750836001600160a01b031661278a84610ebf565b6001600160a01b0316145b949350505050565b826001600160a01b03166127b082611959565b6001600160a01b0316146128145760405162461bcd60e51b815260206004820152602560248201527f4552433732313a207472616e736665722066726f6d20696e636f72726563742060448201526437bbb732b960d91b6064820152608401610aec565b6001600160a01b0382166128765760405162461bcd60e51b8152602060048201526024808201527f4552433732313a207472616e7366657220746f20746865207a65726f206164646044820152637265737360e01b6064820152608401610aec565b612881838383612d77565b61288c600082612656565b6001600160a01b03831660009081526003602052604081208054600192906128b5908490613aa2565b90915550506001600160a01b03821660009081526003602052604081208054600192906128e3908490613878565b909155505060008181526002602052604080822080546001600160a01b0319166001600160a01b0386811691821790925591518493918716917fddf252ad1be2c89b69c2b068fc378daa952ba7f163c4a11628f55a4df523b3ef91a4505050565b600a80546001600160a01b038381166001600160a01b0319831681179093556040519116919082907f8be0079c531659141344cd1fd0a4f28419497f9722a3daafe3b4186f6b6457e090600090a35050565b816001600160a01b0316836001600160a01b031614156129f85760405162461bcd60e51b815260206004820152601960248201527f4552433732313a20617070726f766520746f2063616c6c6572000000000000006044820152606401610aec565b6001600160a01b03838116600081815260056020908152604080832094871680845294825291829020805460ff191686151590811790915591519182527f17307eab39ab6107e8899845ad3d59bd9653f200f220920489ca2b5937696c31910160405180910390a3505050565b612a7084848461279d565b612a7c84848484612e2f565b610e275760405162461bcd60e51b8152600401610aec90613b90565b606081612abc5750506040805180820190915260018152600360fc1b602082015290565b8160005b8115612ae65780612ad081613938565b9150612adf9050600a83613bf8565b9150612ac0565b60008167ffffffffffffffff811115612b0157612b016135d7565b6040519080825280601f01601f191660200182016040528015612b2b576020820181803683370190505b5090505b841561279557612b40600183613aa2565b9150612b4d600a86613c0c565b612b58906030613878565b60f81b818381518110612b6d57612b6d613a73565b60200101906001600160f81b031916908160001a905350612b8f600a86613bf8565b9450612b2f565b600081815b8451811015612bdb57612bc782868381518110612bba57612bba613a73565b6020026020010151612f3c565b915080612bd381613938565b915050612b9b565b509392505050565b600080612bf1600143613aa2565b601d8054914092506000919082612c0783613938565b90915550612c1790610bb8613aa2565b905060008111612c575760405162461bcd60e51b815260206004820152600b60248201526a1b9bc81a591cc81b19599d60aa1b6044820152606401610aec565b6000612c638284613c0c565b9050601e81610bb88110612c7957612c79613a73565b0154612c855780612c9c565b601e81610bb88110612c9957612c99613a73565b01545b9350612ca9600185613878565b9350601e612cb8600184613aa2565b610bb88110612cc957612cc9613a73565b015415612cf557601e612cdd600184613aa2565b610bb88110612cee57612cee613a73565b0154612d00565b612d00600183613aa2565b61ffff16601e82610bb88110612d1857612d18613a73565b01556000601e612d29600185613aa2565b610bb88110612d3a57612d3a613a73565b0155509192915050565b612d4e8383612f68565b612d5b6000848484612e2f565b610ff75760405162461bcd60e51b8152600401610aec90613b90565b6001600160a01b038316612dd257612dcd81600880546000838152600960205260408120829055600182018355919091527ff3f7a9fe364faab93b216da50a3214154f22a0a2b415b23a84c8169e8b636ee30155565b612df5565b816001600160a01b0316836001600160a01b031614612df557612df583826130b6565b6001600160a01b038216612e0c57610ff781613153565b826001600160a01b0316826001600160a01b031614610ff757610ff78282613202565b60006001600160a01b0384163b15612f3157604051630a85bd0160e11b81526001600160a01b0385169063150b7a0290612e73903390899088908890600401613c20565b602060405180830381600087803b158015612e8d57600080fd5b505af1925050508015612ebd575060408051601f3d908101601f19168201909252612eba91810190613c5d565b60015b612f17573d808015612eeb576040519150601f19603f3d011682016040523d82523d6000602084013e612ef0565b606091505b508051612f0f5760405162461bcd60e51b8152600401610aec90613b90565b805181602001fd5b6001600160e01b031916630a85bd0160e11b149050612795565b506001949350505050565b6000818310612f58576000828152602084905260409020611e78565b5060009182526020526040902090565b6001600160a01b038216612fbe5760405162461bcd60e51b815260206004820181905260248201527f4552433732313a206d696e7420746f20746865207a65726f20616464726573736044820152606401610aec565b6000818152600260205260409020546001600160a01b0316156130235760405162461bcd60e51b815260206004820152601c60248201527f4552433732313a20746f6b656e20616c7265616479206d696e746564000000006044820152606401610aec565b61302f60008383612d77565b6001600160a01b0382166000908152600360205260408120805460019290613058908490613878565b909155505060008181526002602052604080822080546001600160a01b0319166001600160a01b03861690811790915590518392907fddf252ad1be2c89b69c2b068fc378daa952ba7f163c4a11628f55a4df523b3ef908290a45050565b600060016130c384611a48565b6130cd9190613aa2565b600083815260076020526040902054909150808214613120576001600160a01b03841660009081526006602090815260408083208584528252808320548484528184208190558352600790915290208190555b5060009182526007602090815260408084208490556001600160a01b039094168352600681528383209183525290812055565b60085460009061316590600190613aa2565b6000838152600960205260408120546008805493945090928490811061318d5761318d613a73565b9060005260206000200154905080600883815481106131ae576131ae613a73565b60009182526020808320909101929092558281526009909152604080822084905585825281205560088054806131e6576131e6613c7a565b6001900381819060005260206000200160009055905550505050565b600061320d83611a48565b6001600160a01b039093166000908152600660209081526040808320868452825280832085905593825260079052919091209190915550565b82805461325290613953565b90600052602060002090601f01602090048101928261327457600085556132ba565b82601f1061328d57805160ff19168380011785556132ba565b828001600101855582156132ba579182015b828111156132ba57825182559160200191906001019061329f565b506132c69291506132ca565b5090565b5b808211156132c657600081556001016132cb565b6001600160e01b0319811681146121b557600080fd5b60006020828403121561330757600080fd5b8135611e78816132df565b60008083601f84011261332457600080fd5b50813567ffffffffffffffff81111561333c57600080fd5b6020830191508360208260051b850101111561335757600080fd5b9250929050565b60008060006040848603121561337357600080fd5b83359250602084013567ffffffffffffffff81111561339157600080fd5b61339d86828701613312565b9497909650939450505050565b60005b838110156133c55781810151838201526020016133ad565b83811115610e275750506000910152565b600081518084526133ee8160208601602086016133aa565b601f01601f19169290920160200192915050565b602081526000611e7860208301846133d6565b60006020828403121561342757600080fd5b5035919050565b6001600160a01b03811681146121b557600080fd5b6000806040838503121561345657600080fd5b82356134618161342e565b946020939093013593505050565b6000806040838503121561348257600080fd5b50508035926020909101359150565b6000806000606084860312156134a657600080fd5b83356134b18161342e565b925060208401356134c18161342e565b929592945050506040919091013590565b6000806000606084860312156134e757600080fd5b83356134f28161342e565b925060208401356135028161342e565b915060408401356135128161342e565b809150509250925092565b634e487b7160e01b600052602160045260246000fd5b6006811061355157634e487b7160e01b600052602160045260246000fd5b9052565b600061014082019050613569828451613533565b602083015160208301526040830151604083015260608301516060830152608083015161359a608084018215159052565b5060a083015160a083015260c083015160c083015260e083015160e083015261010080840151818401525061012080840151818401525092915050565b634e487b7160e01b600052604160045260246000fd5b600067ffffffffffffffff80841115613608576136086135d7565b604051601f8501601f19908116603f01168101908282118183101715613630576136306135d7565b8160405280935085815286868601111561364957600080fd5b858560208301376000602087830101525050509392505050565b60006020828403121561367557600080fd5b813567ffffffffffffffff81111561368c57600080fd5b8201601f8101841361369d57600080fd5b612795848235602084016135ed565b6000602082840312156136be57600080fd5b8135611e788161342e565b600080602083850312156136dc57600080fd5b823567ffffffffffffffff8111156136f357600080fd5b6136ff85828601613312565b90969095509350505050565b80151581146121b557600080fd5b6000806040838503121561372c57600080fd5b82356137378161342e565b915060208301356137478161370b565b809150509250929050565b6000806000806080858703121561376857600080fd5b84356137738161342e565b935060208501356137838161342e565b925060408501359150606085013567ffffffffffffffff8111156137a657600080fd5b8501601f810187136137b757600080fd5b6137c6878235602084016135ed565b91505092959194509250565b60208101610abd8284613533565b6000806000606084860312156137f557600080fd5b505081359360208301359350604090920135919050565b6000806040838503121561381f57600080fd5b823561382a8161342e565b915060208301356137478161342e565b6020808252600e908201526d14d85b19481a5cc818db1bdcd95960921b604082015260600190565b634e487b7160e01b600052601160045260246000fd5b6000821982111561388b5761388b613862565b500190565b6020808252818101527f507572636861736520776f756c6420657863656564206d617820746f6b656e73604082015260600190565b6020808252601c908201527f496e76616c696420746f6b656e20636f756e7420737570706c69656400000000604082015260600190565b600081600019048311821515161561391657613916613862565b500290565b60006020828403121561392d57600080fd5b8151611e788161370b565b600060001982141561394c5761394c613862565b5060010190565b600181811c9082168061396757607f821691505b6020821081141561398857634e487b7160e01b600052602260045260246000fd5b50919050565b6000602082840312156139a057600080fd5b8151611e788161342e565b6020808252818101527f43616c6c6572206973206e6f74206f776e6572206f66204d75746167656e2031604082015260600190565b602080825260149082015273135d5d185d1a5bdb881b9bdd081cdd185c9d195960621b604082015260600190565b600081613a1d57613a1d613862565b506000190190565b6020808252602e908201527f4552433732313a2063616c6c6572206973206e6f7420746f6b656e206f776e6560408201526d1c881b9bdc88185c1c1c9bdd995960921b606082015260800190565b634e487b7160e01b600052603260045260246000fd5b600060208284031215613a9b57600080fd5b5051919050565b600082821015613ab457613ab4613862565b500390565b60008151613acb8185602086016133aa565b9290920192915050565b600080845481600182811c915080831680613af157607f831692505b6020808410821415613b1157634e487b7160e01b86526022600452602486fd5b818015613b255760018114613b3657613b63565b60ff19861689528489019650613b63565b60008b81526020902060005b86811015613b5b5781548b820152908501908301613b42565b505084890196505b505050505050613b87613b768286613ab9565b64173539b7b760d91b815260050190565b95945050505050565b60208082526032908201527f4552433732313a207472616e7366657220746f206e6f6e20455243373231526560408201527131b2b4bb32b91034b6b83632b6b2b73a32b960711b606082015260800190565b634e487b7160e01b600052601260045260246000fd5b600082613c0757613c07613be2565b500490565b600082613c1b57613c1b613be2565b500690565b6001600160a01b0385811682528416602082015260408101839052608060608201819052600090613c53908301846133d6565b9695505050505050565b600060208284031215613c6f57600080fd5b8151611e78816132df565b634e487b7160e01b600052603160045260246000fdfea264697066735822122054924106627da105a4175e1d0a52b447283c38ce77ec945b8cb04d1765fbedb764736f6c63430008090033",
  "linkReferences": {},
  "deployedLinkReferences": {}
}