{
  "_format": "hh-sol-artifact-1",
  "contractName": "OaycNFT",
  "sourceName": "contracts/OaycNFT.sol",
  "abi": [
    {
      "inputs": [
        {
          "internalType": "string",
          "name": "name",
          "type": "string"
        },
        {
          "internalType": "string",
          "name": "symbol",
          "type": "string"
        },
        {
          "internalType": "contract IERC20",
          "name": "op",
          "type": "address"
        }
      ],
      "stateMutability": "nonpayable",
      "type": "constructor"
    },
    {
      "anonymous": false,
      "inputs": [
        {
          "indexed": true,
          "internalType": "address",
          "name": "owner",
          "type": "address"
        },
        {
          "indexed": true,
          "internalType": "address",
          "name": "approved",
          "type": "address"
        },
        {
          "indexed": true,
          "internalType": "uint256",
          "name": "tokenId",
          "type": "uint256"
        }
      ],
      "name": "Approval",
      "type": "event"
    },
    {
      "anonymous": false,
      "inputs": [
        {
          "indexed": true,
          "internalType": "address",
          "name": "owner",
          "type": "address"
        },
        {
          "indexed": true,
          "internalType": "address",
          "name": "operator",
          "type": "address"
        },
        {
          "indexed": false,
          "internalType": "bool",
          "name": "approved",
          "type": "bool"
        }
      ],
      "name": "ApprovalForAll",
      "type": "event"
    },
    {
      "anonymous": false,
      "inputs": [
        {
          "indexed": true,
          "internalType": "address",
          "name": "previousOwner",
          "type": "address"
        },
        {
          "indexed": true,
          "internalType": "address",
          "name": "newOwner",
          "type": "address"
        }
      ],
      "name": "OwnershipTransferred",
      "type": "event"
    },
    {
      "anonymous": false,
      "inputs": [
        {
          "indexed": true,
          "internalType": "address",
          "name": "from",
          "type": "address"
        },
        {
          "indexed": true,
          "internalType": "address",
          "name": "to",
          "type": "address"
        },
        {
          "indexed": true,
          "internalType": "uint256",
          "name": "tokenId",
          "type": "uint256"
        }
      ],
      "name": "Transfer",
      "type": "event"
    },
    {
      "inputs": [],
      "name": "OPToken",
      "outputs": [
        {
          "internalType": "contract IERC20",
          "name": "",
          "type": "address"
        }
      ],
      "stateMutability": "view",
      "type": "function"
    },
    {
      "inputs": [
        {
          "internalType": "address",
          "name": "to",
          "type": "address"
        },
        {
          "internalType": "uint256",
          "name": "tokenId",
          "type": "uint256"
        }
      ],
      "name": "approve",
      "outputs": [],
      "stateMutability": "nonpayable",
      "type": "function"
    },
    {
      "inputs": [
        {
          "internalType": "address",
          "name": "owner",
          "type": "address"
        }
      ],
      "name": "balanceOf",
      "outputs": [
        {
          "internalType": "uint256",
          "name": "",
          "type": "uint256"
        }
      ],
      "stateMutability": "view",
      "type": "function"
    },
    {
      "inputs": [],
      "name": "baseURI",
      "outputs": [
        {
          "internalType": "string",
          "name": "",
          "type": "string"
        }
      ],
      "stateMutability": "view",
      "type": "function"
    },
    {
      "inputs": [
        {
          "internalType": "uint256",
          "name": "tokenId",
          "type": "uint256"
        }
      ],
      "name": "getApproved",
      "outputs": [
        {
          "internalType": "address",
          "name": "",
          "type": "address"
        }
      ],
      "stateMutability": "view",
      "type": "function"
    },
    {
      "inputs": [],
      "name": "goldenBanana",
      "outputs": [
        {
          "internalType": "contract Banana",
          "name": "",
          "type": "address"
        }
      ],
      "stateMutability": "view",
      "type": "function"
    },
    {
      "inputs": [],
      "name": "info",
      "outputs": [
        {
          "components": [
            {
              "internalType": "enum OaycNFT.Status",
              "name": "stage",
              "type": "uint8"
            },
            {
              "internalType": "uint256",
              "name": "whiteListStart",
              "type": "uint256"
            },
            {
              "internalType": "uint256",
              "name": "publicStart",
              "type": "uint256"
            },
            {
              "internalType": "bool",
              "name": "saleOpen",
              "type": "bool"
            },
            {
              "internalType": "uint256",
              "name": "supply",
              "type": "uint256"
            },
            {
              "internalType": "uint256",
              "name": "minted",
              "type": "uint256"
            },
            {
              "internalType": "uint256",
              "name": "pricePerTokenWl",
              "type": "uint256"
            },
            {
              "internalType": "uint256",
              "name": "pricePerTokenPublic",
              "type": "uint256"
            }
          ],
          "internalType": "struct OaycNFT.Info",
          "name": "",
          "type": "tuple"
        }
      ],
      "stateMutability": "view",
      "type": "function"
    },
    {
      "inputs": [
        {
          "internalType": "address",
          "name": "owner",
          "type": "address"
        },
        {
          "internalType": "address",
          "name": "operator",
          "type": "address"
        }
      ],
      "name": "isApprovedForAll",
      "outputs": [
        {
          "internalType": "bool",
          "name": "",
          "type": "bool"
        }
      ],
      "stateMutability": "view",
      "type": "function"
    },
    {
      "inputs": [
        {
          "internalType": "uint256",
          "name": "tokenId",
          "type": "uint256"
        }
      ],
      "name": "mintGoldenBanana",
      "outputs": [],
      "stateMutability": "nonpayable",
      "type": "function"
    },
    {
      "inputs": [
        {
          "internalType": "uint256",
          "name": "_tokenCount",
          "type": "uint256"
        }
      ],
      "name": "mintPublic",
      "outputs": [],
      "stateMutability": "nonpayable",
      "type": "function"
    },
    {
      "inputs": [
        {
          "internalType": "uint256",
          "name": "tokenId",
          "type": "uint256"
        }
      ],
      "name": "mintSilverBanana",
      "outputs": [],
      "stateMutability": "nonpayable",
      "type": "function"
    },
    {
      "inputs": [],
      "name": "name",
      "outputs": [
        {
          "internalType": "string",
          "name": "",
          "type": "string"
        }
      ],
      "stateMutability": "view",
      "type": "function"
    },
    {
      "inputs": [],
      "name": "owner",
      "outputs": [
        {
          "internalType": "address",
          "name": "",
          "type": "address"
        }
      ],
      "stateMutability": "view",
      "type": "function"
    },
    {
      "inputs": [
        {
          "internalType": "uint256",
          "name": "tokenId",
          "type": "uint256"
        }
      ],
      "name": "ownerOf",
      "outputs": [
        {
          "internalType": "address",
          "name": "",
          "type": "address"
        }
      ],
      "stateMutability": "view",
      "type": "function"
    },
    {
      "inputs": [],
      "name": "pricePerTokenPublic",
      "outputs": [
        {
          "internalType": "uint256",
          "name": "",
          "type": "uint256"
        }
      ],
      "stateMutability": "view",
      "type": "function"
    },
    {
      "inputs": [],
      "name": "pricePerTokenWl",
      "outputs": [
        {
          "internalType": "uint256",
          "name": "",
          "type": "uint256"
        }
      ],
      "stateMutability": "view",
      "type": "function"
    },
    {
      "inputs": [],
      "name": "publicStart",
      "outputs": [
        {
          "internalType": "uint256",
          "name": "",
          "type": "uint256"
        }
      ],
      "stateMutability": "view",
      "type": "function"
    },
    {
      "inputs": [],
      "name": "renounceOwnership",
      "outputs": [],
      "stateMutability": "nonpayable",
      "type": "function"
    },
    {
      "inputs": [
        {
          "internalType": "address",
          "name": "from",
          "type": "address"
        },
        {
          "internalType": "address",
          "name": "to",
          "type": "address"
        },
        {
          "internalType": "uint256",
          "name": "tokenId",
          "type": "uint256"
        }
      ],
      "name": "safeTransferFrom",
      "outputs": [],
      "stateMutability": "nonpayable",
      "type": "function"
    },
    {
      "inputs": [
        {
          "internalType": "address",
          "name": "from",
          "type": "address"
        },
        {
          "internalType": "address",
          "name": "to",
          "type": "address"
        },
        {
          "internalType": "uint256",
          "name": "tokenId",
          "type": "uint256"
        },
        {
          "internalType": "bytes",
          "name": "data",
          "type": "bytes"
        }
      ],
      "name": "safeTransferFrom",
      "outputs": [],
      "stateMutability": "nonpayable",
      "type": "function"
    },
    {
      "inputs": [],
      "name": "saleOpen",
      "outputs": [
        {
          "internalType": "bool",
          "name": "",
          "type": "bool"
        }
      ],
      "stateMutability": "view",
      "type": "function"
    },
    {
      "inputs": [
        {
          "internalType": "address",
          "name": "operator",
          "type": "address"
        },
        {
          "internalType": "bool",
          "name": "approved",
          "type": "bool"
        }
      ],
      "name": "setApprovalForAll",
      "outputs": [],
      "stateMutability": "nonpayable",
      "type": "function"
    },
    {
      "inputs": [
        {
          "internalType": "string",
          "name": "_uri",
          "type": "string"
        }
      ],
      "name": "setBaseURI",
      "outputs": [],
      "stateMutability": "nonpayable",
      "type": "function"
    },
    {
      "inputs": [
        {
          "internalType": "contract Banana",
          "name": "_address",
          "type": "address"
        }
      ],
      "name": "setGoldenBanana",
      "outputs": [],
      "stateMutability": "nonpayable",
      "type": "function"
    },
    {
      "inputs": [
        {
          "internalType": "uint256",
          "name": "_price",
          "type": "uint256"
        }
      ],
      "name": "setPricePublic",
      "outputs": [],
      "stateMutability": "nonpayable",
      "type": "function"
    },
    {
      "inputs": [
        {
          "internalType": "uint256",
          "name": "_price",
          "type": "uint256"
        }
      ],
      "name": "setPriceWl",
      "outputs": [],
      "stateMutability": "nonpayable",
      "type": "function"
    },
    {
      "inputs": [],
      "name": "setSaleClose",
      "outputs": [],
      "stateMutability": "nonpayable",
      "type": "function"
    },
    {
      "inputs": [],
      "name": "setSaleOpen",
      "outputs": [],
      "stateMutability": "nonpayable",
      "type": "function"
    },
    {
      "inputs": [
        {
          "internalType": "uint256",
          "name": "_whiteListStart",
          "type": "uint256"
        },
        {
          "internalType": "uint256",
          "name": "_publicStart",
          "type": "uint256"
        }
      ],
      "name": "setSaleStart",
      "outputs": [],
      "stateMutability": "nonpayable",
      "type": "function"
    },
    {
      "inputs": [
        {
          "internalType": "contract Banana",
          "name": "_address",
          "type": "address"
        }
      ],
      "name": "setSilverBanana",
      "outputs": [],
      "stateMutability": "nonpayable",
      "type": "function"
    },
    {
      "inputs": [
        {
          "internalType": "uint256",
          "name": "_supply",
          "type": "uint256"
        }
      ],
      "name": "setSupply",
      "outputs": [],
      "stateMutability": "nonpayable",
      "type": "function"
    },
    {
      "inputs": [],
      "name": "silverBanana",
      "outputs": [
        {
          "internalType": "contract Banana",
          "name": "",
          "type": "address"
        }
      ],
      "stateMutability": "view",
      "type": "function"
    },
    {
      "inputs": [],
      "name": "stage",
      "outputs": [
        {
          "internalType": "enum OaycNFT.Status",
          "name": "",
          "type": "uint8"
        }
      ],
      "stateMutability": "view",
      "type": "function"
    },
    {
      "inputs": [],
      "name": "supply",
      "outputs": [
        {
          "internalType": "uint256",
          "name": "",
          "type": "uint256"
        }
      ],
      "stateMutability": "view",
      "type": "function"
    },
    {
      "inputs": [
        {
          "internalType": "bytes4",
          "name": "interfaceId",
          "type": "bytes4"
        }
      ],
      "name": "supportsInterface",
      "outputs": [
        {
          "internalType": "bool",
          "name": "",
          "type": "bool"
        }
      ],
      "stateMutability": "view",
      "type": "function"
    },
    {
      "inputs": [],
      "name": "symbol",
      "outputs": [
        {
          "internalType": "string",
          "name": "",
          "type": "string"
        }
      ],
      "stateMutability": "view",
      "type": "function"
    },
    {
      "inputs": [
        {
          "internalType": "uint256",
          "name": "index",
          "type": "uint256"
        }
      ],
      "name": "tokenByIndex",
      "outputs": [
        {
          "internalType": "uint256",
          "name": "",
          "type": "uint256"
        }
      ],
      "stateMutability": "view",
      "type": "function"
    },
    {
      "inputs": [
        {
          "internalType": "address",
          "name": "owner",
          "type": "address"
        },
        {
          "internalType": "uint256",
          "name": "index",
          "type": "uint256"
        }
      ],
      "name": "tokenOfOwnerByIndex",
      "outputs": [
        {
          "internalType": "uint256",
          "name": "",
          "type": "uint256"
        }
      ],
      "stateMutability": "view",
      "type": "function"
    },
    {
      "inputs": [
        {
          "internalType": "uint256",
          "name": "tokenId",
          "type": "uint256"
        }
      ],
      "name": "tokenURI",
      "outputs": [
        {
          "internalType": "string",
          "name": "",
          "type": "string"
        }
      ],
      "stateMutability": "view",
      "type": "function"
    },
    {
      "inputs": [],
      "name": "totalSupply",
      "outputs": [
        {
          "internalType": "uint256",
          "name": "",
          "type": "uint256"
        }
      ],
      "stateMutability": "view",
      "type": "function"
    },
    {
      "inputs": [
        {
          "internalType": "address",
          "name": "from",
          "type": "address"
        },
        {
          "internalType": "address",
          "name": "to",
          "type": "address"
        },
        {
          "internalType": "uint256",
          "name": "tokenId",
          "type": "uint256"
        }
      ],
      "name": "transferFrom",
      "outputs": [],
      "stateMutability": "nonpayable",
      "type": "function"
    },
    {
      "inputs": [
        {
          "internalType": "address",
          "name": "newOwner",
          "type": "address"
        }
      ],
      "name": "transferOwnership",
      "outputs": [],
      "stateMutability": "nonpayable",
      "type": "function"
    },
    {
      "inputs": [],
      "name": "whiteListStart",
      "outputs": [
        {
          "internalType": "uint256",
          "name": "",
          "type": "uint256"
        }
      ],
      "stateMutability": "view",
      "type": "function"
    },
    {
      "inputs": [],
      "name": "withdraw",
      "outputs": [],
      "stateMutability": "nonpayable",
      "type": "function"
    },
    {
      "inputs": [
        {
          "internalType": "contract IERC20",
          "name": "_token",
          "type": "address"
        }
      ],
      "name": "withdrawToken",
      "outputs": [],
      "stateMutability": "nonpayable",
      "type": "function"
    }
  ],
  "bytecode": "0x6080604052612710600b55678ac7230489e80000600c55676f05b59d3b200000600d553480156200002f57600080fd5b5060405162002e4438038062002e44833981016040819052620000529162000290565b8251839083906200006b9060009060208501906200011d565b508051620000819060019060208401906200011d565b5050506200009e62000098620000c760201b60201c565b620000cb565b601280546001600160a01b0319166001600160a01b0392909216919091179055506200035a9050565b3390565b600a80546001600160a01b038381166001600160a01b0319831681179093556040519116919082907f8be0079c531659141344cd1fd0a4f28419497f9722a3daafe3b4186f6b6457e090600090a35050565b8280546200012b906200031d565b90600052602060002090601f0160209004810192826200014f57600085556200019a565b82601f106200016a57805160ff19168380011785556200019a565b828001600101855582156200019a579182015b828111156200019a5782518255916020019190600101906200017d565b50620001a8929150620001ac565b5090565b5b80821115620001a85760008155600101620001ad565b634e487b7160e01b600052604160045260246000fd5b600082601f830112620001eb57600080fd5b81516001600160401b0380821115620002085762000208620001c3565b604051601f8301601f19908116603f01168101908282118183101715620002335762000233620001c3565b816040528381526020925086838588010111156200025057600080fd5b600091505b8382101562000274578582018301518183018401529082019062000255565b83821115620002865760008385830101525b9695505050505050565b600080600060608486031215620002a657600080fd5b83516001600160401b0380821115620002be57600080fd5b620002cc87838801620001d9565b94506020860151915080821115620002e357600080fd5b50620002f286828701620001d9565b604086015190935090506001600160a01b03811681146200031257600080fd5b809150509250925092565b600181811c908216806200033257607f821691505b602082108114156200035457634e487b7160e01b600052602260045260246000fd5b50919050565b612ada806200036a6000396000f3fe608060405234801561001057600080fd5b506004361061027f5760003560e01c806370a082311161015c578063a5f4c6ff116100ce578063d999cf0611610087578063d999cf0614610525578063e4ff8e4214610538578063e985e9c51461054b578063efd0cbf914610587578063f2fde38b1461059a578063fe67276c146105ad57600080fd5b8063a5f4c6ff146104bb578063aa2f4bc8146104c4578063b88d4fde146104d7578063c040e6b8146104ea578063c87b56dd146104ff578063c8a0dde61461051257600080fd5b806388eae7051161012057806388eae70514610466578063894760691461046f5780638da5cb5b1461048257806395d89b411461049357806399288dbb1461049b578063a22cb465146104a857600080fd5b806370a082311461041d578063715018a614610430578063738bfe97146104385780637de861ae1461044b57806388871a6a1461045357600080fd5b80633b4c4b25116101f557806342842e0e116101b957806342842e0e146103b65780634530a832146103c95780634f6ccce7146103dc57806355f804b3146103ef5780636352211e146104025780636c0360eb1461041557600080fd5b80633b4c4b25146103765780633ccfd60b146103895780633eda15de146103915780634099c0c81461039a57806341596c2c146103ad57600080fd5b806318160ddd1161024757806318160ddd1461031857806319dad6801461032057806323b872dd146103285780632dfdd2441461033b5780632f745c591461034e578063370158ea1461036157600080fd5b806301ffc9a714610284578063047fc9aa146102ac57806306fdde03146102c3578063081812fc146102d8578063095ea7b314610303575b600080fd5b6102976102923660046122fb565b6105c0565b60405190151581526020015b60405180910390f35b6102b5600b5481565b6040519081526020016102a3565b6102cb6105eb565b6040516102a39190612377565b6102eb6102e636600461238a565b61067d565b6040516001600160a01b0390911681526020016102a3565b6103166103113660046123b8565b6106a4565b005b6008546102b5565b6103166107bf565b6103166103363660046123e4565b6107d6565b6012546102eb906001600160a01b031681565b6102b561035c3660046123b8565b610807565b61036961089d565b6040516102a3919061245d565b61031661038436600461238a565b610958565b610316610965565b6102b5600d5481565b6014546102eb906001600160a01b031681565b6102b5600c5481565b6103166103c43660046123e4565b6109a0565b6103166103d736600461238a565b6109bb565b6102b56103ea36600461238a565b6109c8565b6103166103fd36600461254b565b610a5b565b6102eb61041036600461238a565b610a76565b6102cb610ad6565b6102b561042b366004612594565b610b64565b610316610bea565b6013546102eb906001600160a01b031681565b610316610bfe565b61031661046136600461238a565b610c12565b6102b560105481565b61031661047d366004612594565b610e9f565b600a546001600160a01b03166102eb565b6102cb610fa6565b600e546102979060ff1681565b6103166104b63660046125bf565b610fb5565b6102b560115481565b6103166104d236600461238a565b610fc0565b6103166104e53660046125f8565b61128e565b6104f26112c6565b6040516102a39190612678565b6102cb61050d36600461238a565b611334565b610316610520366004612686565b61140f565b610316610533366004612594565b61147b565b61031661054636600461238a565b6114a5565b6102976105593660046126a8565b6001600160a01b03918216600090815260056020908152604080832093909416825291909152205460ff1690565b61031661059536600461238a565b6114b2565b6103166105a8366004612594565b6116cd565b6103166105bb366004612594565b611743565b60006001600160e01b0319821663780e9d6360e01b14806105e557506105e58261176d565b92915050565b6060600080546105fa906126d6565b80601f0160208091040260200160405190810160405280929190818152602001828054610626906126d6565b80156106735780601f1061064857610100808354040283529160200191610673565b820191906000526020600020905b81548152906001019060200180831161065657829003601f168201915b5050505050905090565b6000610688826117bd565b506000908152600460205260409020546001600160a01b031690565b60006106af82610a76565b9050806001600160a01b0316836001600160a01b031614156107225760405162461bcd60e51b815260206004820152602160248201527f4552433732313a20617070726f76616c20746f2063757272656e74206f776e656044820152603960f91b60648201526084015b60405180910390fd5b336001600160a01b038216148061073e575061073e8133610559565b6107b05760405162461bcd60e51b815260206004820152603e60248201527f4552433732313a20617070726f76652063616c6c6572206973206e6f7420746f60448201527f6b656e206f776e6572206e6f7220617070726f76656420666f7220616c6c00006064820152608401610719565b6107ba838361181c565b505050565b6107c761188a565b600e805460ff19166001179055565b6107e033826118e4565b6107fc5760405162461bcd60e51b815260040161071990612711565b6107ba838383611963565b600061081283610b64565b82106108745760405162461bcd60e51b815260206004820152602b60248201527f455243373231456e756d657261626c653a206f776e657220696e646578206f7560448201526a74206f6620626f756e647360a81b6064820152608401610719565b506001600160a01b03919091166000908152600660209081526040808320938352929052205490565b6108e860408051610100810190915280600081526020016000815260200160008152602001600015158152602001600081526020016000815260200160008152602001600081525090565b6040518061010001604052806108fc6112c6565b600481111561090d5761090d612425565b815260105460208201526011546040820152600e5460ff1615156060820152600b54608082015260a00161094060085490565b8152602001600d548152602001600c54815250905090565b61096061188a565b600b55565b61096d61188a565b6040514790339082156108fc029083906000818181858888f1935050505015801561099c573d6000803e3d6000fd5b5050565b6107ba8383836040518060200160405280600081525061128e565b6109c361188a565b600c55565b60006109d360085490565b8210610a365760405162461bcd60e51b815260206004820152602c60248201527f455243373231456e756d657261626c653a20676c6f62616c20696e646578206f60448201526b7574206f6620626f756e647360a01b6064820152608401610719565b60088281548110610a4957610a4961275f565b90600052602060002001549050919050565b610a6361188a565b805161099c90600f90602084019061224c565b6000818152600260205260408120546001600160a01b0316806105e55760405162461bcd60e51b8152602060048201526018602482015277115490cdcc8c4e881a5b9d985b1a59081d1bdad95b88125160421b6044820152606401610719565b600f8054610ae3906126d6565b80601f0160208091040260200160405190810160405280929190818152602001828054610b0f906126d6565b8015610b5c5780601f10610b3157610100808354040283529160200191610b5c565b820191906000526020600020905b815481529060010190602001808311610b3f57829003601f168201915b505050505081565b60006001600160a01b038216610bce5760405162461bcd60e51b815260206004820152602960248201527f4552433732313a2061646472657373207a65726f206973206e6f7420612076616044820152683634b21037bbb732b960b91b6064820152608401610719565b506001600160a01b031660009081526003602052604090205490565b610bf261188a565b610bfc6000611b0a565b565b610c0661188a565b600e805460ff19169055565b600e5460ff16610c345760405162461bcd60e51b815260040161071990612775565b6014546001600160a01b0316610c835760405162461bcd60e51b815260206004820152601460248201527319dbdb19195b90985b985b98481b9bdd081cd95d60621b6044820152606401610719565b6014546040516331a9108f60e11b81526004810183905233916001600160a01b031690636352211e9060240160206040518083038186803b158015610cc757600080fd5b505afa158015610cdb573d6000803e3d6000fd5b505050506040513d601f19601f82011682018060405250810190610cff919061279d565b6001600160a01b031614610d615760405162461bcd60e51b8152602060048201526024808201527f43616c6c6572206973206e6f74206f776e6572206f6620676f6c64656e2062616044820152636e616e6160e01b6064820152608401610719565b6012546001600160a01b0316610d895760405162461bcd60e51b8152600401610719906127ba565b6002610d936112c6565b6004811115610da457610da4612425565b14610df15760405162461bcd60e51b815260206004820152601a60248201527f57686974656c697374206d696e74206e6f7420737461727465640000000000006044820152606401610719565b600b54600854610e029060016127f9565b1115610e205760405162461bcd60e51b815260040161071990612811565b601454604051630852cd8d60e31b8152600481018390526001600160a01b03909116906342966c68906024015b600060405180830381600087803b158015610e6757600080fd5b505af1158015610e7b573d6000803e3d6000fd5b50505050610e9c33610e8c60085490565b610e979060016127f9565b611b5c565b50565b610ea761188a565b6040516370a0823160e01b81523060048201526001600160a01b0382169063a9059cbb90339083906370a082319060240160206040518083038186803b158015610ef057600080fd5b505afa158015610f04573d6000803e3d6000fd5b505050506040513d601f19601f82011682018060405250810190610f289190612846565b6040516001600160e01b031960e085901b1681526001600160a01b0390921660048301526024820152604401602060405180830381600087803b158015610f6e57600080fd5b505af1158015610f82573d6000803e3d6000fd5b505050506040513d601f19601f8201168201806040525081019061099c919061285f565b6060600180546105fa906126d6565b61099c338383611b76565b600e5460ff16610fe25760405162461bcd60e51b815260040161071990612775565b6013546001600160a01b03166110315760405162461bcd60e51b81526020600482015260146024820152731cda5b1d995c90985b985b98481b9bdd081cd95d60621b6044820152606401610719565b6012546001600160a01b03166110595760405162461bcd60e51b8152600401610719906127ba565b6013546040516331a9108f60e11b81526004810183905233916001600160a01b031690636352211e9060240160206040518083038186803b15801561109d57600080fd5b505afa1580156110b1573d6000803e3d6000fd5b505050506040513d601f19601f820116820180604052508101906110d5919061279d565b6001600160a01b0316146111375760405162461bcd60e51b8152602060048201526024808201527f43616c6c6572206973206e6f74206f776e6572206f662073696c7665722062616044820152636e616e6160e01b6064820152608401610719565b60026111416112c6565b600481111561115257611152612425565b1461119f5760405162461bcd60e51b815260206004820152601a60248201527f57686974656c697374206d696e74206e6f7420737461727465640000000000006044820152606401610719565b600b546008546111b09060016127f9565b11156111ce5760405162461bcd60e51b815260040161071990612811565b601254600d546040516323b872dd60e01b815233600482015230602482015260448101919091526001600160a01b03909116906323b872dd90606401602060405180830381600087803b15801561122457600080fd5b505af1158015611238573d6000803e3d6000fd5b505050506040513d601f19601f8201168201806040525081019061125c919061285f565b50601354604051630852cd8d60e31b8152600481018390526001600160a01b03909116906342966c6890602401610e4d565b61129833836118e4565b6112b45760405162461bcd60e51b815260040161071990612711565b6112c084848484611c45565b50505050565b600e5460009060ff166112d95750600090565b600b54600854106112ea5750600190565b6011544290158015906112ff57506011548110155b1561130c57600391505090565b6010541580159061131f57506010548110155b1561132c57600291505090565b600491505090565b6000818152600260205260409020546060906001600160a01b03166113b35760405162461bcd60e51b815260206004820152602f60248201527f4552433732314d657461646174613a2055524920717565727920666f72206e6f60448201526e3732bc34b9ba32b73a103a37b5b2b760891b6064820152608401610719565b6000600f80546113c2906126d6565b9050116113de57604051806020016040528060008152506105e5565b600f6113e983611c78565b6040516020016113fa929190612898565b60405160208183030381529060405292915050565b61141761188a565b4282116114705760405162461bcd60e51b815260206004820152602160248201527f57686974656c6973742073686f756c6420626520696e207468652066757475726044820152606560f81b6064820152608401610719565b601091909155601155565b61148361188a565b601380546001600160a01b0319166001600160a01b0392909216919091179055565b6114ad61188a565b600d55565b600e5460ff166114d45760405162461bcd60e51b815260040161071990612775565b6012546001600160a01b03166114fc5760405162461bcd60e51b8152600401610719906127ba565b60036115066112c6565b600481111561151757611517612425565b146115645760405162461bcd60e51b815260206004820152601760248201527f5075626c6963206d696e74206e6f7420737461727465640000000000000000006044820152606401610719565b600b548161157160085490565b61157b91906127f9565b11156115995760405162461bcd60e51b815260040161071990612811565b600081116115e95760405162461bcd60e51b815260206004820152601c60248201527f496e76616c696420746f6b656e20636f756e7420737570706c696564000000006044820152606401610719565b601254600c546001600160a01b03909116906323b872dd9033903090611610908690612953565b6040516001600160e01b031960e086901b1681526001600160a01b0393841660048201529290911660248301526044820152606401602060405180830381600087803b15801561165f57600080fd5b505af1158015611673573d6000803e3d6000fd5b505050506040513d601f19601f82011682018060405250810190611697919061285f565b5060005b8181101561099c576116bb33826116b160085490565b610e9791906127f9565b806116c581612972565b91505061169b565b6116d561188a565b6001600160a01b03811661173a5760405162461bcd60e51b815260206004820152602660248201527f4f776e61626c653a206e6577206f776e657220697320746865207a65726f206160448201526564647265737360d01b6064820152608401610719565b610e9c81611b0a565b61174b61188a565b601480546001600160a01b0319166001600160a01b0392909216919091179055565b60006001600160e01b031982166380ac58cd60e01b148061179e57506001600160e01b03198216635b5e139f60e01b145b806105e557506301ffc9a760e01b6001600160e01b03198316146105e5565b6000818152600260205260409020546001600160a01b0316610e9c5760405162461bcd60e51b8152602060048201526018602482015277115490cdcc8c4e881a5b9d985b1a59081d1bdad95b88125160421b6044820152606401610719565b600081815260046020526040902080546001600160a01b0319166001600160a01b038416908117909155819061185182610a76565b6001600160a01b03167f8c5be1e5ebec7d5bd14f71427d1e84f3dd0314c0f7b2291e5b200ac8c7c3b92560405160405180910390a45050565b600a546001600160a01b03163314610bfc5760405162461bcd60e51b815260206004820181905260248201527f4f776e61626c653a2063616c6c6572206973206e6f7420746865206f776e65726044820152606401610719565b6000806118f083610a76565b9050806001600160a01b0316846001600160a01b0316148061193757506001600160a01b0380821660009081526005602090815260408083209388168352929052205460ff165b8061195b5750836001600160a01b03166119508461067d565b6001600160a01b0316145b949350505050565b826001600160a01b031661197682610a76565b6001600160a01b0316146119da5760405162461bcd60e51b815260206004820152602560248201527f4552433732313a207472616e736665722066726f6d20696e636f72726563742060448201526437bbb732b960d91b6064820152608401610719565b6001600160a01b038216611a3c5760405162461bcd60e51b8152602060048201526024808201527f4552433732313a207472616e7366657220746f20746865207a65726f206164646044820152637265737360e01b6064820152608401610719565b611a47838383611d76565b611a5260008261181c565b6001600160a01b0383166000908152600360205260408120805460019290611a7b90849061298d565b90915550506001600160a01b0382166000908152600360205260408120805460019290611aa99084906127f9565b909155505060008181526002602052604080822080546001600160a01b0319166001600160a01b0386811691821790925591518493918716917fddf252ad1be2c89b69c2b068fc378daa952ba7f163c4a11628f55a4df523b3ef91a4505050565b600a80546001600160a01b038381166001600160a01b0319831681179093556040519116919082907f8be0079c531659141344cd1fd0a4f28419497f9722a3daafe3b4186f6b6457e090600090a35050565b61099c828260405180602001604052806000815250611e2e565b816001600160a01b0316836001600160a01b03161415611bd85760405162461bcd60e51b815260206004820152601960248201527f4552433732313a20617070726f766520746f2063616c6c6572000000000000006044820152606401610719565b6001600160a01b03838116600081815260056020908152604080832094871680845294825291829020805460ff191686151590811790915591519182527f17307eab39ab6107e8899845ad3d59bd9653f200f220920489ca2b5937696c31910160405180910390a3505050565b611c50848484611963565b611c5c84848484611e61565b6112c05760405162461bcd60e51b8152600401610719906129a4565b606081611c9c5750506040805180820190915260018152600360fc1b602082015290565b8160005b8115611cc65780611cb081612972565b9150611cbf9050600a83612a0c565b9150611ca0565b60008167ffffffffffffffff811115611ce157611ce16124bf565b6040519080825280601f01601f191660200182016040528015611d0b576020820181803683370190505b5090505b841561195b57611d2060018361298d565b9150611d2d600a86612a20565b611d389060306127f9565b60f81b818381518110611d4d57611d4d61275f565b60200101906001600160f81b031916908160001a905350611d6f600a86612a0c565b9450611d0f565b6001600160a01b038316611dd157611dcc81600880546000838152600960205260408120829055600182018355919091527ff3f7a9fe364faab93b216da50a3214154f22a0a2b415b23a84c8169e8b636ee30155565b611df4565b816001600160a01b0316836001600160a01b031614611df457611df48382611f6e565b6001600160a01b038216611e0b576107ba8161200b565b826001600160a01b0316826001600160a01b0316146107ba576107ba82826120ba565b611e3883836120fe565b611e456000848484611e61565b6107ba5760405162461bcd60e51b8152600401610719906129a4565b60006001600160a01b0384163b15611f6357604051630a85bd0160e11b81526001600160a01b0385169063150b7a0290611ea5903390899088908890600401612a34565b602060405180830381600087803b158015611ebf57600080fd5b505af1925050508015611eef575060408051601f3d908101601f19168201909252611eec91810190612a71565b60015b611f49573d808015611f1d576040519150601f19603f3d011682016040523d82523d6000602084013e611f22565b606091505b508051611f415760405162461bcd60e51b8152600401610719906129a4565b805181602001fd5b6001600160e01b031916630a85bd0160e11b14905061195b565b506001949350505050565b60006001611f7b84610b64565b611f85919061298d565b600083815260076020526040902054909150808214611fd8576001600160a01b03841660009081526006602090815260408083208584528252808320548484528184208190558352600790915290208190555b5060009182526007602090815260408084208490556001600160a01b039094168352600681528383209183525290812055565b60085460009061201d9060019061298d565b600083815260096020526040812054600880549394509092849081106120455761204561275f565b9060005260206000200154905080600883815481106120665761206661275f565b600091825260208083209091019290925582815260099091526040808220849055858252812055600880548061209e5761209e612a8e565b6001900381819060005260206000200160009055905550505050565b60006120c583610b64565b6001600160a01b039093166000908152600660209081526040808320868452825280832085905593825260079052919091209190915550565b6001600160a01b0382166121545760405162461bcd60e51b815260206004820181905260248201527f4552433732313a206d696e7420746f20746865207a65726f20616464726573736044820152606401610719565b6000818152600260205260409020546001600160a01b0316156121b95760405162461bcd60e51b815260206004820152601c60248201527f4552433732313a20746f6b656e20616c7265616479206d696e746564000000006044820152606401610719565b6121c560008383611d76565b6001600160a01b03821660009081526003602052604081208054600192906121ee9084906127f9565b909155505060008181526002602052604080822080546001600160a01b0319166001600160a01b03861690811790915590518392907fddf252ad1be2c89b69c2b068fc378daa952ba7f163c4a11628f55a4df523b3ef908290a45050565b828054612258906126d6565b90600052602060002090601f01602090048101928261227a57600085556122c0565b82601f1061229357805160ff19168380011785556122c0565b828001600101855582156122c0579182015b828111156122c05782518255916020019190600101906122a5565b506122cc9291506122d0565b5090565b5b808211156122cc57600081556001016122d1565b6001600160e01b031981168114610e9c57600080fd5b60006020828403121561230d57600080fd5b8135612318816122e5565b9392505050565b60005b8381101561233a578181015183820152602001612322565b838111156112c05750506000910152565b6000815180845261236381602086016020860161231f565b601f01601f19169290920160200192915050565b602081526000612318602083018461234b565b60006020828403121561239c57600080fd5b5035919050565b6001600160a01b0381168114610e9c57600080fd5b600080604083850312156123cb57600080fd5b82356123d6816123a3565b946020939093013593505050565b6000806000606084860312156123f957600080fd5b8335612404816123a3565b92506020840135612414816123a3565b929592945050506040919091013590565b634e487b7160e01b600052602160045260246000fd5b6005811061245957634e487b7160e01b600052602160045260246000fd5b9052565b60006101008201905061247182845161243b565b60208301516020830152604083015160408301526060830151151560608301526080830151608083015260a083015160a083015260c083015160c083015260e083015160e083015292915050565b634e487b7160e01b600052604160045260246000fd5b600067ffffffffffffffff808411156124f0576124f06124bf565b604051601f8501601f19908116603f01168101908282118183101715612518576125186124bf565b8160405280935085815286868601111561253157600080fd5b858560208301376000602087830101525050509392505050565b60006020828403121561255d57600080fd5b813567ffffffffffffffff81111561257457600080fd5b8201601f8101841361258557600080fd5b61195b848235602084016124d5565b6000602082840312156125a657600080fd5b8135612318816123a3565b8015158114610e9c57600080fd5b600080604083850312156125d257600080fd5b82356125dd816123a3565b915060208301356125ed816125b1565b809150509250929050565b6000806000806080858703121561260e57600080fd5b8435612619816123a3565b93506020850135612629816123a3565b925060408501359150606085013567ffffffffffffffff81111561264c57600080fd5b8501601f8101871361265d57600080fd5b61266c878235602084016124d5565b91505092959194509250565b602081016105e5828461243b565b6000806040838503121561269957600080fd5b50508035926020909101359150565b600080604083850312156126bb57600080fd5b82356126c6816123a3565b915060208301356125ed816123a3565b600181811c908216806126ea57607f821691505b6020821081141561270b57634e487b7160e01b600052602260045260246000fd5b50919050565b6020808252602e908201527f4552433732313a2063616c6c6572206973206e6f7420746f6b656e206f776e6560408201526d1c881b9bdc88185c1c1c9bdd995960921b606082015260800190565b634e487b7160e01b600052603260045260246000fd5b6020808252600e908201526d14d85b19481a5cc818db1bdcd95960921b604082015260600190565b6000602082840312156127af57600080fd5b8151612318816123a3565b6020808252600f908201526e13d4151bdad95b881b9bdd081cd95d608a1b604082015260600190565b634e487b7160e01b600052601160045260246000fd5b6000821982111561280c5761280c6127e3565b500190565b6020808252818101527f507572636861736520776f756c6420657863656564206d617820746f6b656e73604082015260600190565b60006020828403121561285857600080fd5b5051919050565b60006020828403121561287157600080fd5b8151612318816125b1565b6000815161288e81856020860161231f565b9290920192915050565b600080845481600182811c9150808316806128b457607f831692505b60208084108214156128d457634e487b7160e01b86526022600452602486fd5b8180156128e857600181146128f957612926565b60ff19861689528489019650612926565b60008b81526020902060005b8681101561291e5781548b820152908501908301612905565b505084890196505b50505050505061294a612939828661287c565b64173539b7b760d91b815260050190565b95945050505050565b600081600019048311821515161561296d5761296d6127e3565b500290565b6000600019821415612986576129866127e3565b5060010190565b60008282101561299f5761299f6127e3565b500390565b60208082526032908201527f4552433732313a207472616e7366657220746f206e6f6e20455243373231526560408201527131b2b4bb32b91034b6b83632b6b2b73a32b960711b606082015260800190565b634e487b7160e01b600052601260045260246000fd5b600082612a1b57612a1b6129f6565b500490565b600082612a2f57612a2f6129f6565b500690565b6001600160a01b0385811682528416602082015260408101839052608060608201819052600090612a679083018461234b565b9695505050505050565b600060208284031215612a8357600080fd5b8151612318816122e5565b634e487b7160e01b600052603160045260246000fdfea26469706673582212200365e7f4a46274db1837ef202ba9c329626f49ffecf6a29afa615d8ee89613bb64736f6c63430008090033",
  "linkReferences": {},
  "deployedLinkReferences": {}
}